{
  "address": "0x56a76bcC92361f6DF8D75476feD8843EdC70e1C9",
  "abi": [
    {
      "inputs": [
        {
          "internalType": "address",
          "name": "_libAddressManager",
          "type": "address"
        },
        {
          "internalType": "uint256",
          "name": "_maxTransactionGasLimit",
          "type": "uint256"
        },
        {
          "internalType": "uint256",
          "name": "_l2GasDiscountDivisor",
          "type": "uint256"
        },
        {
          "internalType": "uint256",
          "name": "_enqueueGasCost",
          "type": "uint256"
        }
      ],
      "stateMutability": "nonpayable",
      "type": "constructor"
    },
    {
      "anonymous": false,
      "inputs": [
        {
          "indexed": false,
          "internalType": "address",
          "name": "_sender",
          "type": "address"
        },
        {
          "indexed": false,
          "internalType": "uint256",
          "name": "_chainId",
          "type": "uint256"
        },
        {
          "indexed": false,
          "internalType": "uint256",
          "name": "_index",
          "type": "uint256"
        },
        {
          "indexed": false,
          "internalType": "bytes27",
          "name": "_globalMetadata",
          "type": "bytes27"
        }
      ],
      "name": "BatchElementDeleted",
      "type": "event"
    },
    {
      "anonymous": false,
      "inputs": [
        {
          "indexed": false,
          "internalType": "address",
          "name": "_sender",
          "type": "address"
        },
        {
          "indexed": false,
          "internalType": "uint256",
          "name": "_chainId",
          "type": "uint256"
        },
        {
          "indexed": false,
          "internalType": "bytes32",
          "name": "_object",
          "type": "bytes32"
        },
        {
          "indexed": false,
          "internalType": "bytes27",
          "name": "_globalMetadata",
          "type": "bytes27"
        }
      ],
      "name": "BatchPushed",
      "type": "event"
    },
    {
      "anonymous": false,
      "inputs": [
        {
          "indexed": false,
          "internalType": "address",
          "name": "_sender",
          "type": "address"
        },
        {
          "indexed": false,
          "internalType": "uint256",
          "name": "_chainId",
          "type": "uint256"
        },
        {
          "indexed": false,
          "internalType": "uint256",
          "name": "_index",
          "type": "uint256"
        },
        {
          "indexed": false,
          "internalType": "bytes32",
          "name": "_object",
          "type": "bytes32"
        }
      ],
      "name": "BatchSetted",
      "type": "event"
    },
    {
      "anonymous": false,
      "inputs": [
        {
          "indexed": false,
          "internalType": "address",
          "name": "_sender",
          "type": "address"
        },
        {
          "indexed": false,
          "internalType": "uint256",
          "name": "_chainId",
          "type": "uint256"
        },
        {
          "indexed": false,
          "internalType": "bytes27",
          "name": "_globalMetadata",
          "type": "bytes27"
        }
      ],
      "name": "BatchesGlobalMetadataSet",
      "type": "event"
    },
    {
      "anonymous": false,
      "inputs": [
        {
          "indexed": false,
          "internalType": "uint256",
          "name": "l2GasDiscountDivisor",
          "type": "uint256"
        },
        {
          "indexed": false,
          "internalType": "uint256",
          "name": "enqueueGasCost",
          "type": "uint256"
        },
        {
          "indexed": false,
          "internalType": "uint256",
          "name": "enqueueL2GasPrepaid",
          "type": "uint256"
        }
      ],
      "name": "L2GasParamsUpdated",
      "type": "event"
    },
    {
      "anonymous": false,
      "inputs": [
        {
          "indexed": false,
          "internalType": "uint256",
          "name": "_chainId",
          "type": "uint256"
        },
        {
          "indexed": false,
          "internalType": "uint256",
          "name": "_startingQueueIndex",
          "type": "uint256"
        },
        {
          "indexed": false,
          "internalType": "uint256",
          "name": "_numQueueElements",
          "type": "uint256"
        },
        {
          "indexed": false,
          "internalType": "uint256",
          "name": "_totalElements",
          "type": "uint256"
        }
      ],
      "name": "QueueBatchAppended",
      "type": "event"
    },
    {
      "anonymous": false,
      "inputs": [
        {
          "indexed": false,
          "internalType": "address",
          "name": "_sender",
          "type": "address"
        },
        {
          "indexed": false,
          "internalType": "uint256",
          "name": "_chainId",
          "type": "uint256"
        },
        {
          "indexed": false,
          "internalType": "uint256",
          "name": "_index",
          "type": "uint256"
        },
        {
          "indexed": false,
          "internalType": "bytes27",
          "name": "_globalMetadata",
          "type": "bytes27"
        }
      ],
      "name": "QueueElementDeleted",
      "type": "event"
    },
    {
      "anonymous": false,
      "inputs": [
        {
          "indexed": false,
          "internalType": "address",
          "name": "_sender",
          "type": "address"
        },
        {
          "indexed": false,
          "internalType": "uint256",
          "name": "_chainId",
          "type": "uint256"
        },
        {
          "indexed": false,
          "internalType": "bytes27",
          "name": "_globalMetadata",
          "type": "bytes27"
        }
      ],
      "name": "QueueGlobalMetadataSet",
      "type": "event"
    },
    {
      "anonymous": false,
      "inputs": [
        {
          "indexed": false,
          "internalType": "address",
          "name": "_sender",
          "type": "address"
        },
        {
          "indexed": false,
          "internalType": "uint256",
          "name": "_chainId",
          "type": "uint256"
        },
        {
          "components": [
            {
              "internalType": "bytes32",
              "name": "transactionHash",
              "type": "bytes32"
            },
            {
              "internalType": "uint40",
              "name": "timestamp",
              "type": "uint40"
            },
            {
              "internalType": "uint40",
              "name": "blockNumber",
              "type": "uint40"
            }
          ],
          "indexed": false,
          "internalType": "struct Lib_OVMCodec.QueueElement",
          "name": "_object",
          "type": "tuple"
        }
      ],
      "name": "QueuePushed",
      "type": "event"
    },
    {
      "anonymous": false,
      "inputs": [
        {
          "indexed": false,
          "internalType": "address",
          "name": "_sender",
          "type": "address"
        },
        {
          "indexed": false,
          "internalType": "uint256",
          "name": "_chainId",
          "type": "uint256"
        },
        {
          "indexed": false,
          "internalType": "uint256",
          "name": "_index",
          "type": "uint256"
        },
        {
          "components": [
            {
              "internalType": "bytes32",
              "name": "transactionHash",
              "type": "bytes32"
            },
            {
              "internalType": "uint40",
              "name": "timestamp",
              "type": "uint40"
            },
            {
              "internalType": "uint40",
              "name": "blockNumber",
              "type": "uint40"
            }
          ],
          "indexed": false,
          "internalType": "struct Lib_OVMCodec.QueueElement",
          "name": "_object",
          "type": "tuple"
        }
      ],
      "name": "QueueSetted",
      "type": "event"
    },
    {
      "anonymous": false,
      "inputs": [
        {
          "indexed": false,
          "internalType": "uint256",
          "name": "_chainId",
          "type": "uint256"
        },
        {
          "indexed": false,
          "internalType": "uint256",
          "name": "_startingQueueIndex",
          "type": "uint256"
        },
        {
          "indexed": false,
          "internalType": "uint256",
          "name": "_numQueueElements",
          "type": "uint256"
        },
        {
          "indexed": false,
          "internalType": "uint256",
          "name": "_totalElements",
          "type": "uint256"
        }
      ],
      "name": "SequencerBatchAppended",
      "type": "event"
    },
    {
      "anonymous": false,
      "inputs": [
        {
          "indexed": false,
          "internalType": "uint256",
          "name": "_chainId",
          "type": "uint256"
        },
        {
          "indexed": true,
          "internalType": "uint256",
          "name": "_batchIndex",
          "type": "uint256"
        },
        {
          "indexed": false,
          "internalType": "bytes32",
          "name": "_batchRoot",
          "type": "bytes32"
        },
        {
          "indexed": false,
          "internalType": "uint256",
          "name": "_batchSize",
          "type": "uint256"
        },
        {
          "indexed": false,
          "internalType": "uint256",
          "name": "_prevTotalElements",
          "type": "uint256"
        },
        {
          "indexed": false,
          "internalType": "bytes",
          "name": "_extraData",
          "type": "bytes"
        }
      ],
      "name": "TransactionBatchAppended",
      "type": "event"
    },
    {
      "anonymous": false,
      "inputs": [
        {
          "indexed": false,
          "internalType": "uint256",
          "name": "_chainId",
          "type": "uint256"
        },
        {
          "indexed": true,
          "internalType": "address",
          "name": "_l1TxOrigin",
          "type": "address"
        },
        {
          "indexed": true,
          "internalType": "address",
          "name": "_target",
          "type": "address"
        },
        {
          "indexed": false,
          "internalType": "uint256",
          "name": "_gasLimit",
          "type": "uint256"
        },
        {
          "indexed": false,
          "internalType": "bytes",
          "name": "_data",
          "type": "bytes"
        },
        {
          "indexed": true,
          "internalType": "uint256",
          "name": "_queueIndex",
          "type": "uint256"
        },
        {
          "indexed": false,
          "internalType": "uint256",
          "name": "_timestamp",
          "type": "uint256"
        }
      ],
      "name": "TransactionEnqueued",
      "type": "event"
    },
    {
      "inputs": [],
      "name": "DEFAULT_CHAINID",
      "outputs": [
        {
          "internalType": "uint256",
          "name": "",
          "type": "uint256"
        }
      ],
      "stateMutability": "view",
      "type": "function"
    },
    {
      "inputs": [],
      "name": "MAX_ROLLUP_TX_SIZE",
      "outputs": [
        {
          "internalType": "uint256",
          "name": "",
          "type": "uint256"
        }
      ],
      "stateMutability": "view",
      "type": "function"
    },
    {
      "inputs": [],
      "name": "MIN_ROLLUP_TX_GAS",
      "outputs": [
        {
          "internalType": "uint256",
          "name": "",
          "type": "uint256"
        }
      ],
      "stateMutability": "view",
      "type": "function"
    },
    {
      "inputs": [],
      "name": "appendSequencerBatch",
      "outputs": [],
      "stateMutability": "nonpayable",
      "type": "function"
    },
    {
      "inputs": [],
      "name": "appendSequencerBatchByChainId",
      "outputs": [],
      "stateMutability": "nonpayable",
      "type": "function"
    },
    {
      "inputs": [],
      "name": "batches",
      "outputs": [
        {
          "internalType": "contract IChainStorageContainer",
          "name": "",
          "type": "address"
        }
      ],
      "stateMutability": "view",
      "type": "function"
    },
    {
      "inputs": [
        {
          "internalType": "uint256",
          "name": "_chainId",
          "type": "uint256"
        },
        {
          "internalType": "uint256",
          "name": "_index",
          "type": "uint256"
        },
        {
          "internalType": "bytes27",
          "name": "_globalMetadata",
          "type": "bytes27"
        }
      ],
      "name": "deleteBatchElementsAfterInclusiveByChainId",
      "outputs": [],
      "stateMutability": "nonpayable",
      "type": "function"
    },
    {
      "inputs": [
        {
          "internalType": "address",
          "name": "_target",
          "type": "address"
        },
        {
          "internalType": "uint256",
          "name": "_gasLimit",
          "type": "uint256"
        },
        {
          "internalType": "bytes",
          "name": "_data",
          "type": "bytes"
        }
      ],
      "name": "enqueue",
      "outputs": [],
      "stateMutability": "nonpayable",
      "type": "function"
    },
    {
      "inputs": [
        {
          "internalType": "uint256",
          "name": "_chainId",
          "type": "uint256"
        },
        {
          "internalType": "address",
          "name": "_target",
          "type": "address"
        },
        {
          "internalType": "uint256",
          "name": "_gasLimit",
          "type": "uint256"
        },
        {
          "internalType": "bytes",
          "name": "_data",
          "type": "bytes"
        }
      ],
      "name": "enqueueByChainId",
      "outputs": [],
      "stateMutability": "nonpayable",
      "type": "function"
    },
    {
      "inputs": [],
      "name": "enqueueGasCost",
      "outputs": [
        {
          "internalType": "uint256",
          "name": "",
          "type": "uint256"
        }
      ],
      "stateMutability": "view",
      "type": "function"
    },
    {
      "inputs": [],
      "name": "enqueueL2GasPrepaid",
      "outputs": [
        {
          "internalType": "uint256",
          "name": "",
          "type": "uint256"
        }
      ],
      "stateMutability": "view",
      "type": "function"
    },
    {
      "inputs": [
        {
          "internalType": "uint256",
          "name": "_chainId",
          "type": "uint256"
        },
        {
          "internalType": "uint256",
          "name": "_index",
          "type": "uint256"
        }
      ],
      "name": "getBatchByChainId",
      "outputs": [
        {
          "internalType": "bytes32",
          "name": "",
          "type": "bytes32"
        }
      ],
      "stateMutability": "view",
      "type": "function"
    },
    {
      "inputs": [
        {
          "internalType": "uint256",
          "name": "_chainId",
          "type": "uint256"
        }
      ],
      "name": "getBatchGlobalMetadataByChainId",
      "outputs": [
        {
          "internalType": "bytes27",
          "name": "",
          "type": "bytes27"
        }
      ],
      "stateMutability": "view",
      "type": "function"
    },
    {
      "inputs": [],
      "name": "getLastBlockNumber",
      "outputs": [
        {
          "internalType": "uint40",
          "name": "",
          "type": "uint40"
        }
      ],
      "stateMutability": "view",
      "type": "function"
    },
    {
      "inputs": [
        {
          "internalType": "uint256",
          "name": "_chainId",
          "type": "uint256"
        }
      ],
      "name": "getLastBlockNumberByChainId",
      "outputs": [
        {
          "internalType": "uint40",
          "name": "",
          "type": "uint40"
        }
      ],
      "stateMutability": "view",
      "type": "function"
    },
    {
      "inputs": [],
      "name": "getLastTimestamp",
      "outputs": [
        {
          "internalType": "uint40",
          "name": "",
          "type": "uint40"
        }
      ],
      "stateMutability": "view",
      "type": "function"
    },
    {
      "inputs": [
        {
          "internalType": "uint256",
          "name": "_chainId",
          "type": "uint256"
        }
      ],
      "name": "getLastTimestampByChainId",
      "outputs": [
        {
          "internalType": "uint40",
          "name": "",
          "type": "uint40"
        }
      ],
      "stateMutability": "view",
      "type": "function"
    },
    {
      "inputs": [],
      "name": "getNextQueueIndex",
      "outputs": [
        {
          "internalType": "uint40",
          "name": "",
          "type": "uint40"
        }
      ],
      "stateMutability": "view",
      "type": "function"
    },
    {
      "inputs": [
        {
          "internalType": "uint256",
          "name": "_chainId",
          "type": "uint256"
        }
      ],
      "name": "getNextQueueIndexByChainId",
      "outputs": [
        {
          "internalType": "uint40",
          "name": "",
          "type": "uint40"
        }
      ],
      "stateMutability": "view",
      "type": "function"
    },
    {
      "inputs": [],
      "name": "getNumPendingQueueElements",
      "outputs": [
        {
          "internalType": "uint40",
          "name": "",
          "type": "uint40"
        }
      ],
      "stateMutability": "view",
      "type": "function"
    },
    {
      "inputs": [
        {
          "internalType": "uint256",
          "name": "_chainId",
          "type": "uint256"
        }
      ],
      "name": "getNumPendingQueueElementsByChainId",
      "outputs": [
        {
          "internalType": "uint40",
          "name": "",
          "type": "uint40"
        }
      ],
      "stateMutability": "view",
      "type": "function"
    },
    {
      "inputs": [
        {
          "internalType": "uint256",
          "name": "_index",
          "type": "uint256"
        }
      ],
      "name": "getQueueElement",
      "outputs": [
        {
          "components": [
            {
              "internalType": "bytes32",
              "name": "transactionHash",
              "type": "bytes32"
            },
            {
              "internalType": "uint40",
              "name": "timestamp",
              "type": "uint40"
            },
            {
              "internalType": "uint40",
              "name": "blockNumber",
              "type": "uint40"
            }
          ],
          "internalType": "struct Lib_OVMCodec.QueueElement",
          "name": "_element",
          "type": "tuple"
        }
      ],
      "stateMutability": "view",
      "type": "function"
    },
    {
      "inputs": [
        {
          "internalType": "uint256",
          "name": "_chainId",
          "type": "uint256"
        },
        {
          "internalType": "uint256",
          "name": "_index",
          "type": "uint256"
        }
      ],
      "name": "getQueueElementByChainId",
      "outputs": [
        {
          "components": [
            {
              "internalType": "bytes32",
              "name": "transactionHash",
              "type": "bytes32"
            },
            {
              "internalType": "uint40",
              "name": "timestamp",
              "type": "uint40"
            },
            {
              "internalType": "uint40",
              "name": "blockNumber",
              "type": "uint40"
            }
          ],
          "internalType": "struct Lib_OVMCodec.QueueElement",
          "name": "_element",
          "type": "tuple"
        }
      ],
      "stateMutability": "view",
      "type": "function"
    },
    {
      "inputs": [],
      "name": "getQueueLength",
      "outputs": [
        {
          "internalType": "uint40",
          "name": "",
          "type": "uint40"
        }
      ],
      "stateMutability": "view",
      "type": "function"
    },
    {
      "inputs": [
        {
          "internalType": "uint256",
          "name": "_chainId",
          "type": "uint256"
        }
      ],
      "name": "getQueueLengthByChainId",
      "outputs": [
        {
          "internalType": "uint40",
          "name": "",
          "type": "uint40"
        }
      ],
      "stateMutability": "view",
      "type": "function"
    },
    {
      "inputs": [],
      "name": "getTotalBatches",
      "outputs": [
        {
          "internalType": "uint256",
          "name": "_totalBatches",
          "type": "uint256"
        }
      ],
      "stateMutability": "view",
      "type": "function"
    },
    {
      "inputs": [
        {
          "internalType": "uint256",
          "name": "_chainId",
          "type": "uint256"
        }
      ],
      "name": "getTotalBatchesByChainId",
      "outputs": [
        {
          "internalType": "uint256",
          "name": "_totalBatches",
          "type": "uint256"
        }
      ],
      "stateMutability": "view",
      "type": "function"
    },
    {
      "inputs": [],
      "name": "getTotalElements",
      "outputs": [
        {
          "internalType": "uint256",
          "name": "_totalElements",
          "type": "uint256"
        }
      ],
      "stateMutability": "view",
      "type": "function"
    },
    {
      "inputs": [
        {
          "internalType": "uint256",
          "name": "_chainId",
          "type": "uint256"
        }
      ],
      "name": "getTotalElementsByChainId",
      "outputs": [
        {
          "internalType": "uint256",
          "name": "_totalElements",
          "type": "uint256"
        }
      ],
      "stateMutability": "view",
      "type": "function"
    },
    {
      "inputs": [],
      "name": "l2GasDiscountDivisor",
      "outputs": [
        {
          "internalType": "uint256",
          "name": "",
          "type": "uint256"
        }
      ],
      "stateMutability": "view",
      "type": "function"
    },
    {
      "inputs": [
        {
          "internalType": "uint256",
          "name": "_chainId",
          "type": "uint256"
        }
      ],
      "name": "lengthBatchByChainId",
      "outputs": [
        {
          "internalType": "uint256",
          "name": "",
          "type": "uint256"
        }
      ],
      "stateMutability": "view",
      "type": "function"
    },
    {
      "inputs": [],
      "name": "libAddressManager",
      "outputs": [
        {
          "internalType": "contract Lib_AddressManager",
          "name": "",
          "type": "address"
        }
      ],
      "stateMutability": "view",
      "type": "function"
    },
    {
      "inputs": [],
      "name": "maxTransactionGasLimit",
      "outputs": [
        {
          "internalType": "uint256",
          "name": "",
          "type": "uint256"
        }
      ],
      "stateMutability": "view",
      "type": "function"
    },
    {
      "inputs": [
        {
          "internalType": "uint256",
          "name": "_chainId",
          "type": "uint256"
        },
        {
          "internalType": "bytes32",
          "name": "_object",
          "type": "bytes32"
        },
        {
          "internalType": "bytes27",
          "name": "_globalMetadata",
          "type": "bytes27"
        }
      ],
      "name": "pushBatchByChainId",
      "outputs": [],
      "stateMutability": "nonpayable",
      "type": "function"
    },
    {
      "inputs": [
        {
          "internalType": "uint256",
          "name": "_chainId",
          "type": "uint256"
        },
        {
          "components": [
            {
              "internalType": "bytes32",
              "name": "transactionHash",
              "type": "bytes32"
            },
            {
              "internalType": "uint40",
              "name": "timestamp",
              "type": "uint40"
            },
            {
              "internalType": "uint40",
              "name": "blockNumber",
              "type": "uint40"
            }
          ],
          "internalType": "struct Lib_OVMCodec.QueueElement",
          "name": "_object",
          "type": "tuple"
        }
      ],
      "name": "pushQueueByChainId",
      "outputs": [],
      "stateMutability": "nonpayable",
      "type": "function"
    },
    {
      "inputs": [],
      "name": "queue",
      "outputs": [
        {
          "internalType": "contract IChainStorageContainer",
          "name": "",
          "type": "address"
        }
      ],
      "stateMutability": "view",
      "type": "function"
    },
    {
      "inputs": [
        {
          "internalType": "string",
          "name": "_name",
          "type": "string"
        }
      ],
      "name": "resolve",
      "outputs": [
        {
          "internalType": "address",
          "name": "",
          "type": "address"
        }
      ],
      "stateMutability": "view",
      "type": "function"
    },
    {
      "inputs": [
        {
          "internalType": "uint256",
          "name": "_chainId",
          "type": "uint256"
        },
        {
          "internalType": "uint256",
          "name": "_index",
          "type": "uint256"
        },
        {
          "internalType": "bytes32",
          "name": "_object",
          "type": "bytes32"
        }
      ],
      "name": "setBatchByChainId",
      "outputs": [],
      "stateMutability": "nonpayable",
      "type": "function"
    },
    {
      "inputs": [
        {
          "internalType": "uint256",
          "name": "_chainId",
          "type": "uint256"
        },
        {
          "internalType": "bytes27",
          "name": "_globalMetadata",
          "type": "bytes27"
        }
      ],
      "name": "setBatchGlobalMetadataByChainId",
      "outputs": [],
      "stateMutability": "nonpayable",
      "type": "function"
    },
    {
      "inputs": [
        {
          "internalType": "uint256",
          "name": "_l2GasDiscountDivisor",
          "type": "uint256"
        },
        {
          "internalType": "uint256",
          "name": "_enqueueGasCost",
          "type": "uint256"
        }
      ],
      "name": "setGasParams",
      "outputs": [],
      "stateMutability": "nonpayable",
      "type": "function"
    },
    {
      "inputs": [
        {
          "internalType": "uint256",
          "name": "_chainId",
          "type": "uint256"
        },
        {
          "internalType": "uint256",
          "name": "_index",
          "type": "uint256"
        },
        {
          "components": [
            {
              "internalType": "bytes32",
              "name": "transactionHash",
              "type": "bytes32"
            },
            {
              "internalType": "uint40",
              "name": "timestamp",
              "type": "uint40"
            },
            {
              "internalType": "uint40",
              "name": "blockNumber",
              "type": "uint40"
            }
          ],
          "internalType": "struct Lib_OVMCodec.QueueElement",
          "name": "_object",
          "type": "tuple"
        }
      ],
      "name": "setQueueByChainId",
      "outputs": [],
      "stateMutability": "nonpayable",
      "type": "function"
    }
  ],
  "transactionHash": "0xbe37f0c7bb6b8cce36075f9cead6fc36abdde2765fa304cbc3303823148ee263",
  "args": [
    "0x918778e825747a892b17C66fe7D24C618262867d",
    1100000000,
    32,
    60000
  ],
  "solcInputHash": "aad23d34300e438238a0739b0c367631",
  "bytecode": "0x60806040523480156200001157600080fd5b50604051620038d9380380620038d9833981016040819052620000349162000078565b600080546001600160a01b0319166001600160a01b0386161790556004839055600282905560018190556200006a8183620000c5565b60035550620000f392505050565b600080600080608085870312156200008f57600080fd5b84516001600160a01b0381168114620000a757600080fd5b60208601516040870151606090970151919890975090945092505050565b6000816000190483118215151615620000ee57634e487b7160e01b600052601160045260246000fd5b500290565b6137d680620001036000396000f3fe608060405234801561001057600080fd5b50600436106102d35760003560e01c80637a209b9311610186578063b4be51ae116100e3578063db29772211610097578063e654b1fb11610071578063e654b1fb146105fb578063edcc4a4514610604578063f722b41a1461061757600080fd5b8063db297722146105d8578063e10d29ee146105eb578063e561dddc146105f357600080fd5b8063ccf987c8116100c8578063ccf987c8146105bf578063cfdf677e146105c8578063d0f89344146105d057600080fd5b8063b4be51ae1461057a578063b8f770051461058d57600080fd5b80638d38c6c11161013a578063a14420ee1161011f578063a14420ee1461054c578063a16d359a1461055f578063a8cda37b1461057257600080fd5b80638d38c6c1146105305780639156f18a1461053957600080fd5b8063876ed5cb1161016b578063876ed5cb146105145780638a52e6221461051d5780638c7de742146103ee57600080fd5b80637a209b93146104e25780637aa63a861461050c57600080fd5b8063461a4478116102345780635bbbb7ed116101e85780636fee07e0116101cd5780636fee07e01461048c57806378f4b2f21461049f5780637a167a8a146104a957600080fd5b80635bbbb7ed1461047057806363d5dbd11461047957600080fd5b80634f5da7c6116102195780634f5da7c614610442578063511da531146104555780635ae6256d1461046857600080fd5b8063461a44781461041c5780634a0eddab1461042f57600080fd5b8063299ca4781161028b5780632de6a708116102705780632de6a708146103ee578063378997701461040157806343be0a841461040957600080fd5b8063299ca478146103655780632a7f18be146103aa57600080fd5b806319625535116102bc57806319625535146103095780632538f3a81461031c57806325412c841461035257600080fd5b80630545ba77146102d85780630b3dfa97146102ed575b600080fd5b6102eb6102e6366004612ed6565b61061f565b005b6102f660035481565b6040519081526020015b60405180910390f35b6102eb610317366004612ed6565b6107f9565b61033c61032a366004612f0f565b60009081526006602052604090205490565b60405164ffffffffff9091168152602001610300565b6102f6610360366004612f28565b6109c5565b6000546103859073ffffffffffffffffffffffffffffffffffffffff1681565b60405173ffffffffffffffffffffffffffffffffffffffff9091168152602001610300565b6103bd6103b8366004612f0f565b610a7d565b604080518251815260208084015164ffffffffff908116918301919091529282015190921690820152606001610300565b6102f66103fc366004612f0f565b610b26565b61033c610bc0565b61033c610417366004612f0f565b610bd4565b61038561042a36600461300d565b610bff565b61033c61043d366004612f0f565b610ca6565b6102eb61045036600461306e565b610cbc565b6102eb6104633660046130e6565b610e11565b61033c6111ce565b6102f661044081565b6102eb610487366004613149565b6111e2565b6102eb61049a366004613175565b6113a0565b6102f6620186a081565b61044060005260056020527f0dc7af05b69860904321737f972990978ada95ccab9945c9e4152a2706ab58865464ffffffffff1661033c565b6104f56104f0366004612f0f565b6113b3565b60405164ffffffffff199091168152602001610300565b6102f6611447565b6102f661c35081565b6102f661052b366004612f0f565b611462565b6102f660045481565b61033c610547366004612f0f565b61147f565b6102eb61055a3660046131ce565b611495565b6103bd61056d366004612f28565b61165e565b6102eb6116eb565b6102eb6105883660046131fe565b611cb1565b61044060005260066020527ff2fadc8f281df3b2e312450efbc7e5145e4214fc70e639a3a1b10148ef5697af5461033c565b6102f660025481565b610385611df3565b6102eb611e1b565b61033c6105e6366004612f0f565b612362565b610385612379565b6102f66123b9565b6102f660015481565b6102eb610612366004612f28565b612440565b61033c6125b6565b61065d6040518060400160405280601081526020017f4d564d5f53757065724d616e6167657200000000000000000000000000000000815250610bff565b73ffffffffffffffffffffffffffffffffffffffff163373ffffffffffffffffffffffffffffffffffffffff1614610704576040805162461bcd60e51b81526020600482015260248101919091527f436861696e53746f72616765436f6e7461696e65723a2046756e6374696f6e2060448201527f63616e206f6e6c792062652063616c6c656420627920746865206f776e65722e60648201526084015b60405180910390fd5b61070c611df3565b6040517fbc052576000000000000000000000000000000000000000000000000000000008152600481018590526024810184905264ffffffffff198316604482015273ffffffffffffffffffffffffffffffffffffffff919091169063bc05257690606401600060405180830381600087803b15801561078b57600080fd5b505af115801561079f573d6000803e3d6000fd5b5050604080513381526020810187905290810185905264ffffffffff19841660608201527fe3b4c53eef322c0bb4aba4dae151a0cd9c381d45db311cbe6ffe8a47806bca9a925060800190505b60405180910390a1505050565b6108376040518060400160405280601081526020017f4d564d5f53757065724d616e6167657200000000000000000000000000000000815250610bff565b73ffffffffffffffffffffffffffffffffffffffff163373ffffffffffffffffffffffffffffffffffffffff16146108d9576040805162461bcd60e51b81526020600482015260248101919091527f436861696e53746f72616765436f6e7461696e65723a2046756e6374696f6e2060448201527f63616e206f6e6c792062652063616c6c656420627920746865206f776e65722e60648201526084016106fb565b6108e1611df3565b6040517fe6e436c0000000000000000000000000000000000000000000000000000000008152600481018590526024810184905264ffffffffff198316604482015273ffffffffffffffffffffffffffffffffffffffff919091169063e6e436c090606401600060405180830381600087803b15801561096057600080fd5b505af1158015610974573d6000803e3d6000fd5b5050604080513381526020810187905290810185905264ffffffffff19841660608201527fdaa76f618a31042f0705fdcf560ac258420fd56e1202be8a1d3faa236d530e89925060800190506107ec565b60006109cf611df3565b6040517f67d18b9b000000000000000000000000000000000000000000000000000000008152600481018590526024810184905273ffffffffffffffffffffffffffffffffffffffff91909116906367d18b9b9060440160206040518083038186803b158015610a3e57600080fd5b505afa158015610a52573d6000803e3d6000fd5b505050506040513d601f19601f82011682018060405250810190610a76919061322b565b9392505050565b604080516060810182526000808252602082018190529181019190915261044060005260066020527ff2fadc8f281df3b2e312450efbc7e5145e4214fc70e639a3a1b10148ef5697af805483908110610ad857610ad8613244565b6000918252602091829020604080516060810182526002909302909101805483526001015464ffffffffff808216948401949094526501000000000090049092169181019190915292915050565b6000610b30611df3565b73ffffffffffffffffffffffffffffffffffffffff1663576f2588836040518263ffffffff1660e01b8152600401610b6a91815260200190565b60206040518083038186803b158015610b8257600080fd5b505afa158015610b96573d6000803e3d6000fd5b505050506040513d601f19601f82011682018060405250810190610bba919061322b565b92915050565b600080610bcb612618565b50949350505050565b6000818152600560209081526040808320546006909252822054610bba9164ffffffffff16906132a2565b600080546040517fbf40fac100000000000000000000000000000000000000000000000000000000815273ffffffffffffffffffffffffffffffffffffffff9091169063bf40fac190610c56908590600401613342565b60206040518083038186803b158015610c6e57600080fd5b505afa158015610c82573d6000803e3d6000fd5b505050506040513d601f19601f82011682018060405250810190610bba9190613355565b600080610cb2836126d3565b9695505050505050565b610cfa6040518060400160405280601081526020017f4d564d5f53757065724d616e6167657200000000000000000000000000000000815250610bff565b73ffffffffffffffffffffffffffffffffffffffff163373ffffffffffffffffffffffffffffffffffffffff1614610d9c576040805162461bcd60e51b81526020600482015260248101919091527f436861696e53746f72616765436f6e7461696e65723a2046756e6374696f6e2060448201527f63616e206f6e6c792062652063616c6c656420627920746865206f776e65722e60648201526084016106fb565b6000838152600660205260409020805482919084908110610dbf57610dbf613244565b90600052602060002090600202018181610dd99190613385565b9050507f5a3965b29b524ca11ad9115cbeff6477733f21383a7d5220aa3bd535ea116eb6338484846040516107ec949392919061343f565b610e3260405180606001604052806021815260200161375f60219139610bff565b73ffffffffffffffffffffffffffffffffffffffff163373ffffffffffffffffffffffffffffffffffffffff1614610ed25760405162461bcd60e51b815260206004820152602b60248201527f6f6e6c79207468652063726f737320646f6d61696e206d657373656e6765722060448201527f63616e20656e717565756500000000000000000000000000000000000000000060648201526084016106fb565b61c35081511115610f4b5760405162461bcd60e51b815260206004820152603d60248201527f5472616e73616374696f6e20646174612073697a652065786365656473206d6160448201527f78696d756d20666f7220726f6c6c7570207472616e73616374696f6e2e00000060648201526084016106fb565b600454821115610fc35760405162461bcd60e51b815260206004820152603d60248201527f5472616e73616374696f6e20676173206c696d69742065786365656473206d6160448201527f78696d756d20666f7220726f6c6c7570207472616e73616374696f6e2e00000060648201526084016106fb565b620186a082101561103c5760405162461bcd60e51b815260206004820152602960248201527f5472616e73616374696f6e20676173206c696d697420746f6f206c6f7720746f60448201527f20656e71756575652e000000000000000000000000000000000000000000000060648201526084016106fb565b60003332141561104d575033611066565b5033731111000000000000000000000000000000001111015b60008185858560405160200161107f9493929190613477565b604080517fffffffffffffffffffffffffffffffffffffffffffffffffffffffffffffffe0818403018152828252805160209182012060008a8152600680845284822060608701865283875264ffffffffff4281168887019081524382169789019788528254600181810185558487528887209a516002909202909a01908155905190890180549851831665010000000000027fffffffffffffffffffffffffffffffffffffffffffff000000000000000000009099169190921617969096179095558b8252909252915491935091611157916134b6565b9050808673ffffffffffffffffffffffffffffffffffffffff168473ffffffffffffffffffffffffffffffffffffffff167f6afbb2eaf0241302d1ab6244dff35383c745f31ee1f878e9052d510baeb425068a8989426040516111bd94939291906134cd565b60405180910390a450505050505050565b6000806111d9612618565b95945050505050565b6112206040518060400160405280601081526020017f4d564d5f53757065724d616e6167657200000000000000000000000000000000815250610bff565b73ffffffffffffffffffffffffffffffffffffffff163373ffffffffffffffffffffffffffffffffffffffff16146112c2576040805162461bcd60e51b81526020600482015260248101919091527f436861696e53746f72616765436f6e7461696e65723a2046756e6374696f6e2060448201527f63616e206f6e6c792062652063616c6c656420627920746865206f776e65722e60648201526084016106fb565b6112ca611df3565b6040517f4cd4d76900000000000000000000000000000000000000000000000000000000815260048101859052602481018490526044810183905273ffffffffffffffffffffffffffffffffffffffff9190911690634cd4d76990606401600060405180830381600087803b15801561134257600080fd5b505af1158015611356573d6000803e3d6000fd5b50506040805133815260208101879052908101859052606081018490527fd7503502091a493b0a762f4ddf6bb0854a3b7b9e3955f186226d2fabc94bf7a1925060800190506107ec565b6113ae610440848484610e11565b505050565b60006113bd611df3565b73ffffffffffffffffffffffffffffffffffffffff166324a49415836040518263ffffffff1660e01b81526004016113f791815260200190565b60206040518083038186803b15801561140f57600080fd5b505afa158015611423573d6000803e3d6000fd5b505050506040513d601f19601f82011682018060405250810190610bba91906134fd565b600080611452612618565b50505064ffffffffff1692915050565b60008061146e836126d3565b50505064ffffffffff169392505050565b60008061148b836126d3565b5095945050505050565b6114d36040518060400160405280601081526020017f4d564d5f53757065724d616e6167657200000000000000000000000000000000815250610bff565b73ffffffffffffffffffffffffffffffffffffffff163373ffffffffffffffffffffffffffffffffffffffff1614611575576040805162461bcd60e51b81526020600482015260248101919091527f436861696e53746f72616765436f6e7461696e65723a2046756e6374696f6e2060448201527f63616e206f6e6c792062652063616c6c656420627920746865206f776e65722e60648201526084016106fb565b61157d611df3565b6040517f24d722440000000000000000000000000000000000000000000000000000000081526004810184905264ffffffffff198316602482015273ffffffffffffffffffffffffffffffffffffffff91909116906324d7224490604401600060405180830381600087803b1580156115f557600080fd5b505af1158015611609573d6000803e3d6000fd5b5050604080513381526020810186905264ffffffffff198516918101919091527fdbc6a2a2ec9c0d9fd8fe896da2050bcea6b51cbc50d6108ec57ba994144cc21a925060600190505b60405180910390a15050565b6040805160608101825260008082526020820181905291810191909152600083815260066020526040902080548390811061169b5761169b613244565b6000918252602091829020604080516060810182526002909302909101805483526001015464ffffffffff8082169484019490945265010000000000900490921691810191909152905092915050565b60043560243560d81c60293560e890811c90602c35901c61170b84611462565b8364ffffffffff16146117865760405162461bcd60e51b815260206004820152603d60248201527f41637475616c20626174636820737461727420696e64657820646f6573206e6f60448201527f74206d6174636820657870656374656420737461727420696e6465782e00000060648201526084016106fb565b6117b66117928561279c565b6040516020016117a2919061351a565b604051602081830303815290604052610bff565b73ffffffffffffffffffffffffffffffffffffffff163373ffffffffffffffffffffffffffffffffffffffff16146118565760405162461bcd60e51b815260206004820152602d60248201527f46756e6374696f6e2063616e206f6e6c792062652063616c6c6564206279207460448201527f68652053657175656e6365722e0000000000000000000000000000000000000060648201526084016106fb565b60008162ffffff16116118d15760405162461bcd60e51b815260206004820152602860248201527f4d7573742070726f76696465206174206c65617374206f6e652062617463682060448201527f636f6e746578742e00000000000000000000000000000000000000000000000060648201526084016106fb565b60008262ffffff161161194c5760405162461bcd60e51b815260206004820152602160248201527f4d75737420617070656e64206174206c65617374206f6e6520656c656d656e7460448201527f2e0000000000000000000000000000000000000000000000000000000000000060648201526084016106fb565b600061195e62ffffff8316601061355b565b61196990600f613598565b905064ffffffffff81163610156119e85760405162461bcd60e51b815260206004820152602260248201527f4e6f7420656e6f756768204261746368436f6e74657874732070726f7669646560448201527f642e00000000000000000000000000000000000000000000000000000000000060648201526084016106fb565b60008581526005602090815260408083205481516080810183528481529283018490529082018390526060820183905264ffffffffff16919060005b8562ffffff168163ffffffff161015611a85576000611a4b60008b8463ffffffff166128f0565b8051909350839150611a5d90856135b0565b9350826020015185611a6f91906135d8565b9450508080611a7d906135f8565b915050611a24565b5060008881526006602052604090205464ffffffffff84161115611b375760405162461bcd60e51b815260206004820152604260248201527f417474656d7074656420746f20617070656e64206d6f726520656c656d656e7460448201527f73207468616e2061726520617661696c61626c6520696e20746865207175657560648201527f652e000000000000000000000000000000000000000000000000000000000000608482015260a4016106fb565b6000611b488362ffffff891661361c565b63ffffffff169050600080836020015160001415611b7157505060408201516060830151611bec565b60008b8152600660205260408120611b8a6001896132a2565b64ffffffffff1681548110611ba157611ba1613244565b6000918252602091829020604080516060810182526002909302909101805483526001015464ffffffffff808216948401859052650100000000009091041691018190529093509150505b611c118b611bfb6001436134b6565b408b62ffffff168664ffffffffff16868661298e565b7f178ecbc4b986ebf7ea68a0a7ae593212f963053458fda23484ad60e95dde758d8b611c3d85896132a2565b85611c478f611462565b604051611c75949392919093845264ffffffffff928316602085015291166040830152606082015260800190565b60405180910390a15050506000978852505060056020526040909520805464ffffffffff191664ffffffffff9096169590951790945550505050565b611cef6040518060400160405280601081526020017f4d564d5f53757065724d616e6167657200000000000000000000000000000000815250610bff565b73ffffffffffffffffffffffffffffffffffffffff163373ffffffffffffffffffffffffffffffffffffffff1614611d91576040805162461bcd60e51b81526020600482015260248101919091527f436861696e53746f72616765436f6e7461696e65723a2046756e6374696f6e2060448201527f63616e206f6e6c792062652063616c6c656420627920746865206f776e65722e60648201526084016106fb565b6000828152600660209081526040822080546001810182559083529120829160020201611dbe8282613385565b50507f56afa4f6505f4a309504be105b887cb40789cdeea8e108f671d00e2ae07f3dcd33838360405161165293929190613639565b6000611e1660405180606001604052806021815260200161378060219139610bff565b905090565b60043560d81c60093560e890811c90600c35901c611e37611447565b8364ffffffffff1614611eb25760405162461bcd60e51b815260206004820152603d60248201527f41637475616c20626174636820737461727420696e64657820646f6573206e6f60448201527f74206d6174636820657870656374656420737461727420696e6465782e00000060648201526084016106fb565b611ef06040518060400160405280600d81526020017f4f564d5f53657175656e63657200000000000000000000000000000000000000815250610bff565b73ffffffffffffffffffffffffffffffffffffffff163373ffffffffffffffffffffffffffffffffffffffff1614611f905760405162461bcd60e51b815260206004820152602d60248201527f46756e6374696f6e2063616e206f6e6c792062652063616c6c6564206279207460448201527f68652053657175656e6365722e0000000000000000000000000000000000000060648201526084016106fb565b6000611fa262ffffff8316601061355b565b611fad90600f613598565b905064ffffffffff811636101561202c5760405162461bcd60e51b815260206004820152602260248201527f4e6f7420656e6f756768204261746368436f6e74657874732070726f7669646560448201527f642e00000000000000000000000000000000000000000000000000000000000060648201526084016106fb565b6104406000908152600560209081527f0dc7af05b69860904321737f972990978ada95ccab9945c9e4152a2706ab5886546040805160808101825284815292830184905282018390526060820183905264ffffffffff169060005b8562ffffff168163ffffffff1610156120e55760006120ab8263ffffffff16612bd2565b80519093508391506120bd90866135b0565b94508260200151846120cf91906135d8565b93505080806120dd906135f8565b915050612087565b5061044060005260066020527ff2fadc8f281df3b2e312450efbc7e5145e4214fc70e639a3a1b10148ef5697af5464ffffffffff831611156121b55760405162461bcd60e51b815260206004820152604260248201527f417474656d7074656420746f20617070656e64206d6f726520656c656d656e7460448201527f73207468616e2061726520617661696c61626c6520696e20746865207175657560648201527f652e000000000000000000000000000000000000000000000000000000000000608482015260a4016106fb565b60006121c68462ffffff891661361c565b63ffffffff1690506000808360200151600014156121ef5750506040820151606083015161228a565b610440600090815260066020527ff2fadc8f281df3b2e312450efbc7e5145e4214fc70e639a3a1b10148ef5697af6122286001886132a2565b64ffffffffff168154811061223f5761223f613244565b6000918252602091829020604080516060810182526002909302909101805483526001015464ffffffffff808216948401859052650100000000009091041691018190529093509150505b6122ae6122986001436134b6565b408a62ffffff168564ffffffffff168585612c59565b7f178ecbc4b986ebf7ea68a0a7ae593212f963053458fda23484ad60e95dde758d6122d984876132a2565b846122e2611447565b6040805164ffffffffff948516815293909216602084015290820152610440606082015260800160405180910390a15050610440600052505060056020527f0dc7af05b69860904321737f972990978ada95ccab9945c9e4152a2706ab5886805464ffffffffff191664ffffffffff929092169190911790555050505050565b60008061236e836126d3565b509095945050505050565b6000611e166040518060400160405280601f81526020017f436861696e53746f72616765436f6e7461696e65722d4354432d717565756500815250610bff565b60006123c3611df3565b73ffffffffffffffffffffffffffffffffffffffff16631f7b6d326040518163ffffffff1660e01b815260040160206040518083038186803b15801561240857600080fd5b505afa15801561241c573d6000803e3d6000fd5b505050506040513d601f19601f82011682018060405250810190611e16919061322b565b60008054906101000a900473ffffffffffffffffffffffffffffffffffffffff1673ffffffffffffffffffffffffffffffffffffffff16638da5cb5b6040518163ffffffff1660e01b815260040160206040518083038186803b1580156124a657600080fd5b505afa1580156124ba573d6000803e3d6000fd5b505050506040513d601f19601f820116820180604052508101906124de9190613355565b73ffffffffffffffffffffffffffffffffffffffff163373ffffffffffffffffffffffffffffffffffffffff16146125585760405162461bcd60e51b815260206004820181905260248201527f4f6e6c792063616c6c61626c6520627920746865204275726e2041646d696e2e60448201526064016106fb565b6001819055600282905561256c818361355b565b60038190556002546001546040805192835260208301919091528101919091527fc6ed75e96b8b18b71edc1a6e82a9d677f8268c774a262c624eeb2cf0a8b3e07e90606001611652565b61044060009081527f0dc7af05b69860904321737f972990978ada95ccab9945c9e4152a2706ab58865460066020527ff2fadc8f281df3b2e312450efbc7e5145e4214fc70e639a3a1b10148ef5697af54611e169164ffffffffff16906132a2565b6000806000806000612628611df3565b73ffffffffffffffffffffffffffffffffffffffff1663ccf8f9696040518163ffffffff1660e01b815260040160206040518083038186803b15801561266d57600080fd5b505afa158015612681573d6000803e3d6000fd5b505050506040513d601f19601f820116820180604052508101906126a591906134fd565b64ffffffffff602882901c811697605083901c82169750607883901c8216965060a09290921c169350915050565b60008060008060006126e3611df3565b73ffffffffffffffffffffffffffffffffffffffff166324a49415876040518263ffffffff1660e01b815260040161271d91815260200190565b60206040518083038186803b15801561273557600080fd5b505afa158015612749573d6000803e3d6000fd5b505050506040513d601f19601f8201168201806040525081019061276d91906134fd565b64ffffffffff602882901c811698605083901c82169850607883901c8216975060a09290921c16945092505050565b6060816127dc57505060408051808201909152600181527f3000000000000000000000000000000000000000000000000000000000000000602082015290565b8160005b811561280657806127f08161366a565b91506127ff9050600a836136a3565b91506127e0565b60008167ffffffffffffffff81111561282157612821612f4a565b6040519080825280601f01601f19166020018201604052801561284b576020820181803683370190505b509050815b8515610bcb576128616001826134b6565b90506000612870600a886136a3565b61287b90600a61355b565b61288590886134b6565b6128909060306136de565b905060008160f81b9050808484815181106128ad576128ad613244565b60200101907effffffffffffffffffffffffffffffffffffffffffffffffffffffffffffff1916908160001a9053506128e7600a896136a3565b97505050612850565b61291b6040518060800160405280600081526020016000815260200160008152602001600081525090565b600061292860108461355b565b612933866020613598565b61293e90600f613598565b6129489190613598565b60408051608081018252823560e890811c82526003840135901c6020820152600683013560d890811c92820192909252600b90920135901c606082015295945050505050565b6000612998611df3565b90506000806129a6896126d3565b50506040805160a08101918290527f576f25880000000000000000000000000000000000000000000000000000000090915260a481018c905291935091506000908073ffffffffffffffffffffffffffffffffffffffff861663576f258860c4830160206040518083038186803b158015612a2057600080fd5b505afa158015612a34573d6000803e3d6000fd5b505050506040513d601f19601f82011682018060405250810190612a58919061322b565b81526020018a81526020018981526020018464ffffffffff16815260200160405180602001604052806000815250815250905080600001517fc4c3b7c157dc7d495c3ed62df83a8b8d6bdf6724d0cc0150228eba4976c4e3318b8360200151846040015185606001518660800151604051612ad7959493929190613703565b60405180910390a26000612aea82612e5b565b90506000612b2c8c846040015187612b0291906135d8565b612b0c8c886135d8565b8b8b602883811b8517605084901b17607883901b17901b95945050505050565b6040517fe6e436c0000000000000000000000000000000000000000000000000000000008152600481018e90526024810184905264ffffffffff198216604482015290915073ffffffffffffffffffffffffffffffffffffffff87169063e6e436c090606401600060405180830381600087803b158015612bac57600080fd5b505af1158015612bc0573d6000803e3d6000fd5b50505050505050505050505050505050565b612bfd6040518060800160405280600081526020016000815260200160008152602001600081525090565b6000612c0a60108461355b565b612c1590600f613598565b60408051608081018252823560e890811c82526003840135901c6020820152600683013560d890811c92820192909252600b90920135901c60608201529392505050565b6000612c63611df3565b9050600080612c70612618565b50509150915060006040518060a001604052808573ffffffffffffffffffffffffffffffffffffffff16631f7b6d326040518163ffffffff1660e01b815260040160206040518083038186803b158015612cc957600080fd5b505afa158015612cdd573d6000803e3d6000fd5b505050506040513d601f19601f82011682018060405250810190612d01919061322b565b81526020018a81526020018981526020018464ffffffffff16815260200160405180602001604052806000815250815250905080600001517fc4c3b7c157dc7d495c3ed62df83a8b8d6bdf6724d0cc0150228eba4976c4e3316104408360200151846040015185606001518660800151604051612d82959493929190613703565b60405180910390a26000612d9582612e5b565b90506000612dbd836040015186612dac91906135d8565b612db68b876135d8565b8a8a612ea1565b6040517f2015276c0000000000000000000000000000000000000000000000000000000081526004810184905264ffffffffff198216602482015290915073ffffffffffffffffffffffffffffffffffffffff871690632015276c90604401600060405180830381600087803b158015612e3657600080fd5b505af1158015612e4a573d6000803e3d6000fd5b505050505050505050505050505050565b60008160200151826040015183606001518460800151604051602001612e849493929190613739565b604051602081830303815290604052805190602001209050919050565b602883811b8517605084901b17607883901b17901b5b949350505050565b64ffffffffff1981168114612ed357600080fd5b50565b600080600060608486031215612eeb57600080fd5b83359250602084013591506040840135612f0481612ebf565b809150509250925092565b600060208284031215612f2157600080fd5b5035919050565b60008060408385031215612f3b57600080fd5b50508035926020909101359150565b7f4e487b7100000000000000000000000000000000000000000000000000000000600052604160045260246000fd5b600067ffffffffffffffff80841115612f9457612f94612f4a565b604051601f85017fffffffffffffffffffffffffffffffffffffffffffffffffffffffffffffffe0908116603f01168101908282118183101715612fda57612fda612f4a565b81604052809350858152868686011115612ff357600080fd5b858560208301376000602087830101525050509392505050565b60006020828403121561301f57600080fd5b813567ffffffffffffffff81111561303657600080fd5b8201601f8101841361304757600080fd5b612eb784823560208401612f79565b60006060828403121561306857600080fd5b50919050565b600080600060a0848603121561308357600080fd5b833592506020840135915061309b8560408601613056565b90509250925092565b73ffffffffffffffffffffffffffffffffffffffff81168114612ed357600080fd5b600082601f8301126130d757600080fd5b610a7683833560208501612f79565b600080600080608085870312156130fc57600080fd5b84359350602085013561310e816130a4565b925060408501359150606085013567ffffffffffffffff81111561313157600080fd5b61313d878288016130c6565b91505092959194509250565b60008060006060848603121561315e57600080fd5b505081359360208301359350604090920135919050565b60008060006060848603121561318a57600080fd5b8335613195816130a4565b925060208401359150604084013567ffffffffffffffff8111156131b857600080fd5b6131c4868287016130c6565b9150509250925092565b600080604083850312156131e157600080fd5b8235915060208301356131f381612ebf565b809150509250929050565b6000806080838503121561321157600080fd5b823591506132228460208501613056565b90509250929050565b60006020828403121561323d57600080fd5b5051919050565b7f4e487b7100000000000000000000000000000000000000000000000000000000600052603260045260246000fd5b7f4e487b7100000000000000000000000000000000000000000000000000000000600052601160045260246000fd5b600064ffffffffff838116908316818110156132c0576132c0613273565b039392505050565b60005b838110156132e35781810151838201526020016132cb565b838111156132f2576000848401525b50505050565b600081518084526133108160208601602086016132c8565b601f017fffffffffffffffffffffffffffffffffffffffffffffffffffffffffffffffe0169290920160200192915050565b602081526000610a7660208301846132f8565b60006020828403121561336757600080fd5b8151610a76816130a4565b64ffffffffff81168114612ed357600080fd5b8135815560018101602083013561339b81613372565b64ffffffffff8116905081548164ffffffffff19821617835560408501356133c281613372565b69ffffffffff00000000008160281b16837fffffffffffffffffffffffffffffffffffffffffffff00000000000000000000841617178455505050505050565b80358252602081013561341481613372565b64ffffffffff908116602084015260408201359061343182613372565b808216604085015250505050565b73ffffffffffffffffffffffffffffffffffffffff85168152602081018490526040810183905260c081016111d96060830184613402565b600073ffffffffffffffffffffffffffffffffffffffff808716835280861660208401525083604083015260806060830152610cb260808301846132f8565b6000828210156134c8576134c8613273565b500390565b8481528360208201526080604082015260006134ec60808301856132f8565b905082606083015295945050505050565b60006020828403121561350f57600080fd5b8151610a7681612ebf565b6000825161352c8184602087016132c8565b7f5f4d564d5f53657175656e636572000000000000000000000000000000000000920191825250600e01919050565b6000817fffffffffffffffffffffffffffffffffffffffffffffffffffffffffffffffff048311821515161561359357613593613273565b500290565b600082198211156135ab576135ab613273565b500190565b600063ffffffff8083168185168083038211156135cf576135cf613273565b01949350505050565b600064ffffffffff8083168185168083038211156135cf576135cf613273565b600063ffffffff8083168181141561361257613612613273565b6001019392505050565b600063ffffffff838116908316818110156132c0576132c0613273565b73ffffffffffffffffffffffffffffffffffffffff841681526020810183905260a08101612eb76040830184613402565b60007fffffffffffffffffffffffffffffffffffffffffffffffffffffffffffffffff82141561369c5761369c613273565b5060010190565b6000826136d9577f4e487b7100000000000000000000000000000000000000000000000000000000600052601260045260246000fd5b500490565b600060ff821660ff84168060ff038211156136fb576136fb613273565b019392505050565b85815284602082015283604082015282606082015260a06080820152600061372e60a08301846132f8565b979650505050505050565b848152836020820152826040820152608060608201526000610cb260808301846132f856fe50726f78795f5f4f564d5f4c3143726f7373446f6d61696e4d657373656e676572436861696e53746f72616765436f6e7461696e65722d4354432d62617463686573a2646970667358221220df9778683a9e46dcef3453d175eb075bd3a4c460e10a0a8e5f77102875b70f1364736f6c63430008090033",
  "devdoc": {
    "details": "The Canonical Transaction Chain (CTC) contract is an append-only log of transactions which must be applied to the rollup state. It defines the ordering of rollup transactions by writing them to the 'CTC:batches' instance of the Chain Storage Container. The CTC also allows any account to 'enqueue' an L2 transaction, which will require that the Sequencer will eventually append it to the rollup state. Runtime target: EVM",
    "kind": "dev",
    "methods": {
      "appendSequencerBatch()": {
        "details": "This function uses a custom encoding scheme for efficiency reasons. .param _shouldStartAtElement Specific batch we expect to start appending to. .param _totalElementsToAppend Total number of batch elements we expect to append. .param _contexts Array of batch contexts. .param _transactionDataFields Array of raw transaction data."
      },
      "appendSequencerBatchByChainId()": {
        "details": "This function uses a custom encoding scheme for efficiency reasons. .param _shouldStartAtElement Specific batch we expect to start appending to. .param _totalElementsToAppend Total number of batch elements we expect to append. .param _contexts Array of batch contexts. .param _transactionDataFields Array of raw transaction data."
      },
      "batches()": {
        "returns": {
          "_0": "Reference to the batch storage container."
        }
      },
      "enqueue(address,uint256,bytes)": {
        "params": {
          "_data": "Transaction data.",
          "_gasLimit": "Gas limit for the enqueued L2 transaction.",
          "_target": "Target L2 contract to send the transaction to."
        }
      },
      "enqueueByChainId(uint256,address,uint256,bytes)": {
        "params": {
          "_data": "Transaction data.",
          "_gasLimit": "Gas limit for the enqueued L2 transaction.",
          "_target": "Target L2 contract to send the transaction to."
        }
      },
      "getLastBlockNumber()": {
        "returns": {
          "_0": "Blocknumber for the last transaction."
        }
      },
      "getLastBlockNumberByChainId(uint256)": {
        "returns": {
          "_0": "Blocknumber for the last transaction."
        }
      },
      "getLastTimestamp()": {
        "returns": {
          "_0": "Timestamp for the last transaction."
        }
      },
      "getLastTimestampByChainId(uint256)": {
        "returns": {
          "_0": "Timestamp for the last transaction."
        }
      },
      "getNextQueueIndex()": {
        "returns": {
          "_0": "Index for the next queue element."
        }
      },
      "getNextQueueIndexByChainId(uint256)": {
        "returns": {
          "_0": "Index for the next queue element."
        }
      },
      "getNumPendingQueueElements()": {
        "returns": {
          "_0": "Number of pending queue elements."
        }
      },
      "getNumPendingQueueElementsByChainId(uint256)": {
        "returns": {
          "_0": "Number of pending queue elements."
        }
      },
      "getQueueElement(uint256)": {
        "params": {
          "_index": "Index of the queue element to access."
        },
        "returns": {
          "_element": "Queue element at the given index."
        }
      },
      "getQueueElementByChainId(uint256,uint256)": {
        "params": {
          "_index": "Index of the queue element to access."
        },
        "returns": {
          "_element": "Queue element at the given index."
        }
      },
      "getQueueLength()": {
        "returns": {
          "_0": "Length of the queue."
        }
      },
      "getQueueLengthByChainId(uint256)": {
        "returns": {
          "_0": "Length of the queue."
        }
      },
      "getTotalBatches()": {
        "returns": {
          "_totalBatches": "Total submitted batches."
        }
      },
      "getTotalBatchesByChainId(uint256)": {
        "returns": {
          "_totalBatches": "Total submitted batches."
        }
      },
      "getTotalElements()": {
        "returns": {
          "_totalElements": "Total submitted elements."
        }
      },
      "getTotalElementsByChainId(uint256)": {
        "returns": {
          "_totalElements": "Total submitted elements."
        }
      },
      "queue()": {
        "returns": {
          "_0": "Reference to the queue storage container."
        }
      },
      "resolve(string)": {
        "params": {
          "_name": "Name to resolve an address for."
        },
        "returns": {
          "_0": "Address associated with the given name."
        }
      }
    },
    "title": "CanonicalTransactionChain",
    "version": 1
  },
  "userdoc": {
    "kind": "user",
    "methods": {
      "appendSequencerBatch()": {
        "notice": "Allows the sequencer to append a batch of transactions."
      },
      "appendSequencerBatchByChainId()": {
        "notice": "Allows the sequencer to append a batch of transactions."
      },
      "batches()": {
        "notice": "Accesses the batch storage container."
      },
      "enqueue(address,uint256,bytes)": {
        "notice": "Adds a transaction to the queue."
      },
      "enqueueByChainId(uint256,address,uint256,bytes)": {
        "notice": "Adds a transaction to the queue."
      },
      "getLastBlockNumber()": {
        "notice": "Returns the blocknumber of the last transaction."
      },
      "getLastBlockNumberByChainId(uint256)": {
        "notice": "Returns the blocknumber of the last transaction."
      },
      "getLastTimestamp()": {
        "notice": "Returns the timestamp of the last transaction."
      },
      "getLastTimestampByChainId(uint256)": {
        "notice": "Returns the timestamp of the last transaction."
      },
      "getNextQueueIndex()": {
        "notice": "Returns the index of the next element to be enqueued."
      },
      "getNextQueueIndexByChainId(uint256)": {
        "notice": "Returns the index of the next element to be enqueued."
      },
      "getNumPendingQueueElements()": {
        "notice": "Get the number of queue elements which have not yet been included."
      },
      "getNumPendingQueueElementsByChainId(uint256)": {
        "notice": "Get the number of queue elements which have not yet been included."
      },
      "getQueueElement(uint256)": {
        "notice": "Gets the queue element at a particular index."
      },
      "getQueueElementByChainId(uint256,uint256)": {
        "notice": "Gets the queue element at a particular index."
      },
      "getQueueLength()": {
        "notice": "Retrieves the length of the queue, including both pending and canonical transactions."
      },
      "getQueueLengthByChainId(uint256)": {
        "notice": "Retrieves the length of the queue, including both pending and canonical transactions."
      },
      "getTotalBatches()": {
        "notice": "Retrieves the total number of batches submitted."
      },
      "getTotalBatchesByChainId(uint256)": {
        "notice": "Retrieves the total number of batches submitted."
      },
      "getTotalElements()": {
        "notice": "Retrieves the total number of elements submitted."
      },
      "getTotalElementsByChainId(uint256)": {
        "notice": "Retrieves the total number of elements submitted."
      },
      "queue()": {
        "notice": "Accesses the queue storage container."
      },
      "resolve(string)": {
        "notice": "Resolves the address associated with a given name."
      },
      "setGasParams(uint256,uint256)": {
        "notice": "Allows the Burn Admin to update the parameters which determine the amount of gas to burn. The value of enqueueL2GasPrepaid is immediately updated as well."
      }
    },
    "version": 1
  },
  "storageLayout": {
    "storage": [
      {
        "astId": 13951,
        "contract": "contracts/L1/rollup/CanonicalTransactionChain.sol:CanonicalTransactionChain",
        "label": "libAddressManager",
        "offset": 0,
        "slot": "0",
        "type": "t_contract(Lib_AddressManager)13943"
      },
      {
        "astId": 5196,
        "contract": "contracts/L1/rollup/CanonicalTransactionChain.sol:CanonicalTransactionChain",
        "label": "enqueueGasCost",
        "offset": 0,
        "slot": "1",
        "type": "t_uint256"
      },
      {
        "astId": 5198,
        "contract": "contracts/L1/rollup/CanonicalTransactionChain.sol:CanonicalTransactionChain",
        "label": "l2GasDiscountDivisor",
        "offset": 0,
        "slot": "2",
        "type": "t_uint256"
      },
      {
        "astId": 5200,
        "contract": "contracts/L1/rollup/CanonicalTransactionChain.sol:CanonicalTransactionChain",
        "label": "enqueueL2GasPrepaid",
        "offset": 0,
        "slot": "3",
        "type": "t_uint256"
      },
      {
        "astId": 5220,
        "contract": "contracts/L1/rollup/CanonicalTransactionChain.sol:CanonicalTransactionChain",
        "label": "maxTransactionGasLimit",
        "offset": 0,
        "slot": "4",
        "type": "t_uint256"
      },
      {
        "astId": 5224,
        "contract": "contracts/L1/rollup/CanonicalTransactionChain.sol:CanonicalTransactionChain",
        "label": "_nextQueueIndex",
        "offset": 0,
        "slot": "5",
        "type": "t_mapping(t_uint256,t_uint40)"
      },
      {
        "astId": 5230,
        "contract": "contracts/L1/rollup/CanonicalTransactionChain.sol:CanonicalTransactionChain",
        "label": "queueElements",
        "offset": 0,
        "slot": "6",
        "type": "t_mapping(t_uint256,t_array(t_struct(QueueElement)13684_storage)dyn_storage)"
      }
    ],
    "types": {
      "t_array(t_struct(QueueElement)13684_storage)dyn_storage": {
        "base": "t_struct(QueueElement)13684_storage",
        "encoding": "dynamic_array",
        "label": "struct Lib_OVMCodec.QueueElement[]",
        "numberOfBytes": "32"
      },
      "t_bytes32": {
        "encoding": "inplace",
        "label": "bytes32",
        "numberOfBytes": "32"
      },
      "t_contract(Lib_AddressManager)13943": {
        "encoding": "inplace",
        "label": "contract Lib_AddressManager",
        "numberOfBytes": "20"
      },
      "t_mapping(t_uint256,t_array(t_struct(QueueElement)13684_storage)dyn_storage)": {
        "encoding": "mapping",
        "key": "t_uint256",
        "label": "mapping(uint256 => struct Lib_OVMCodec.QueueElement[])",
        "numberOfBytes": "32",
        "value": "t_array(t_struct(QueueElement)13684_storage)dyn_storage"
      },
      "t_mapping(t_uint256,t_uint40)": {
        "encoding": "mapping",
        "key": "t_uint256",
        "label": "mapping(uint256 => uint40)",
        "numberOfBytes": "32",
        "value": "t_uint40"
      },
      "t_struct(QueueElement)13684_storage": {
        "encoding": "inplace",
        "label": "struct Lib_OVMCodec.QueueElement",
        "members": [
          {
            "astId": 13679,
            "contract": "contracts/L1/rollup/CanonicalTransactionChain.sol:CanonicalTransactionChain",
            "label": "transactionHash",
            "offset": 0,
            "slot": "0",
            "type": "t_bytes32"
          },
          {
            "astId": 13681,
            "contract": "contracts/L1/rollup/CanonicalTransactionChain.sol:CanonicalTransactionChain",
            "label": "timestamp",
            "offset": 0,
            "slot": "1",
            "type": "t_uint40"
          },
          {
            "astId": 13683,
            "contract": "contracts/L1/rollup/CanonicalTransactionChain.sol:CanonicalTransactionChain",
            "label": "blockNumber",
            "offset": 5,
            "slot": "1",
            "type": "t_uint40"
          }
        ],
        "numberOfBytes": "64"
      },
      "t_uint256": {
        "encoding": "inplace",
        "label": "uint256",
        "numberOfBytes": "32"
      },
      "t_uint40": {
        "encoding": "inplace",
        "label": "uint40",
        "numberOfBytes": "5"
      }
    }
  }
}