{
  "address": "0x10739F09f6e62689c0aA8A1878816de9e166d6f9",
  "abi": [
    {
      "inputs": [
        {
          "internalType": "address",
          "name": "_libAddressManager",
          "type": "address"
        },
        {
          "internalType": "string",
          "name": "_owner",
          "type": "string"
        }
      ],
      "stateMutability": "nonpayable",
      "type": "constructor"
    },
    {
      "inputs": [],
      "name": "DEFAULT_CHAINID",
      "outputs": [
        {
          "internalType": "uint256",
          "name": "",
          "type": "uint256"
        }
      ],
      "stateMutability": "view",
      "type": "function"
    },
    {
      "inputs": [
        {
          "internalType": "uint256",
          "name": "_index",
          "type": "uint256"
        },
        {
          "internalType": "bytes27",
          "name": "_globalMetadata",
          "type": "bytes27"
        }
      ],
      "name": "deleteElementsAfterInclusive",
      "outputs": [],
      "stateMutability": "nonpayable",
      "type": "function"
    },
    {
      "inputs": [
        {
          "internalType": "uint256",
          "name": "_index",
          "type": "uint256"
        }
      ],
      "name": "deleteElementsAfterInclusive",
      "outputs": [],
      "stateMutability": "nonpayable",
      "type": "function"
    },
    {
      "inputs": [
        {
          "internalType": "uint256",
          "name": "_chainId",
          "type": "uint256"
        },
        {
          "internalType": "uint256",
          "name": "_index",
          "type": "uint256"
        }
      ],
      "name": "deleteElementsAfterInclusiveByChainId",
      "outputs": [],
      "stateMutability": "nonpayable",
      "type": "function"
    },
    {
      "inputs": [
        {
          "internalType": "uint256",
          "name": "_chainId",
          "type": "uint256"
        },
        {
          "internalType": "uint256",
          "name": "_index",
          "type": "uint256"
        },
        {
          "internalType": "bytes27",
          "name": "_globalMetadata",
          "type": "bytes27"
        }
      ],
      "name": "deleteElementsAfterInclusiveByChainId",
      "outputs": [],
      "stateMutability": "nonpayable",
      "type": "function"
    },
    {
      "inputs": [
        {
          "internalType": "uint256",
          "name": "_index",
          "type": "uint256"
        }
      ],
      "name": "get",
      "outputs": [
        {
          "internalType": "bytes32",
          "name": "",
          "type": "bytes32"
        }
      ],
      "stateMutability": "view",
      "type": "function"
    },
    {
      "inputs": [
        {
          "internalType": "uint256",
          "name": "_chainId",
          "type": "uint256"
        },
        {
          "internalType": "uint256",
          "name": "_index",
          "type": "uint256"
        }
      ],
      "name": "getByChainId",
      "outputs": [
        {
          "internalType": "bytes32",
          "name": "",
          "type": "bytes32"
        }
      ],
      "stateMutability": "view",
      "type": "function"
    },
    {
      "inputs": [],
      "name": "getGlobalMetadata",
      "outputs": [
        {
          "internalType": "bytes27",
          "name": "",
          "type": "bytes27"
        }
      ],
      "stateMutability": "view",
      "type": "function"
    },
    {
      "inputs": [
        {
          "internalType": "uint256",
          "name": "_chainId",
          "type": "uint256"
        }
      ],
      "name": "getGlobalMetadataByChainId",
      "outputs": [
        {
          "internalType": "bytes27",
          "name": "",
          "type": "bytes27"
        }
      ],
      "stateMutability": "view",
      "type": "function"
    },
    {
      "inputs": [],
      "name": "length",
      "outputs": [
        {
          "internalType": "uint256",
          "name": "",
          "type": "uint256"
        }
      ],
      "stateMutability": "view",
      "type": "function"
    },
    {
      "inputs": [
        {
          "internalType": "uint256",
          "name": "_chainId",
          "type": "uint256"
        }
      ],
      "name": "lengthByChainId",
      "outputs": [
        {
          "internalType": "uint256",
          "name": "",
          "type": "uint256"
        }
      ],
      "stateMutability": "view",
      "type": "function"
    },
    {
      "inputs": [],
      "name": "libAddressManager",
      "outputs": [
        {
          "internalType": "contract Lib_AddressManager",
          "name": "",
          "type": "address"
        }
      ],
      "stateMutability": "view",
      "type": "function"
    },
    {
      "inputs": [],
      "name": "owner",
      "outputs": [
        {
          "internalType": "string",
          "name": "",
          "type": "string"
        }
      ],
      "stateMutability": "view",
      "type": "function"
    },
    {
      "inputs": [
        {
          "internalType": "bytes32",
          "name": "_object",
          "type": "bytes32"
        },
        {
          "internalType": "bytes27",
          "name": "_globalMetadata",
          "type": "bytes27"
        }
      ],
      "name": "push",
      "outputs": [],
      "stateMutability": "nonpayable",
      "type": "function"
    },
    {
      "inputs": [
        {
          "internalType": "bytes32",
          "name": "_object",
          "type": "bytes32"
        }
      ],
      "name": "push",
      "outputs": [],
      "stateMutability": "nonpayable",
      "type": "function"
    },
    {
      "inputs": [
        {
          "internalType": "uint256",
          "name": "_chainId",
          "type": "uint256"
        },
        {
          "internalType": "bytes32",
          "name": "_object",
          "type": "bytes32"
        }
      ],
      "name": "pushByChainId",
      "outputs": [],
      "stateMutability": "nonpayable",
      "type": "function"
    },
    {
      "inputs": [
        {
          "internalType": "uint256",
          "name": "_chainId",
          "type": "uint256"
        },
        {
          "internalType": "bytes32",
          "name": "_object",
          "type": "bytes32"
        },
        {
          "internalType": "bytes27",
          "name": "_globalMetadata",
          "type": "bytes27"
        }
      ],
      "name": "pushByChainId",
      "outputs": [],
      "stateMutability": "nonpayable",
      "type": "function"
    },
    {
      "inputs": [
        {
          "internalType": "string",
          "name": "_name",
          "type": "string"
        }
      ],
      "name": "resolve",
      "outputs": [
        {
          "internalType": "address",
          "name": "",
          "type": "address"
        }
      ],
      "stateMutability": "view",
      "type": "function"
    },
    {
      "inputs": [
        {
          "internalType": "uint256",
          "name": "_chainId",
          "type": "uint256"
        },
        {
          "internalType": "uint256",
          "name": "_index",
          "type": "uint256"
        },
        {
          "internalType": "bytes32",
          "name": "_object",
          "type": "bytes32"
        }
      ],
      "name": "setByChainId",
      "outputs": [],
      "stateMutability": "nonpayable",
      "type": "function"
    },
    {
      "inputs": [
        {
          "internalType": "bytes27",
          "name": "_globalMetadata",
          "type": "bytes27"
        }
      ],
      "name": "setGlobalMetadata",
      "outputs": [],
      "stateMutability": "nonpayable",
      "type": "function"
    },
    {
      "inputs": [
        {
          "internalType": "uint256",
          "name": "_chainId",
          "type": "uint256"
        },
        {
          "internalType": "bytes27",
          "name": "_globalMetadata",
          "type": "bytes27"
        }
      ],
      "name": "setGlobalMetadataByChainId",
      "outputs": [],
      "stateMutability": "nonpayable",
      "type": "function"
    }
  ],
  "transactionHash": "0x649e70d6c1e08af7c461b7d8b24d37928bf7b2edea369a83f767d20b58c5905f",
  "args": [
    "0x918778e825747a892b17C66fe7D24C618262867d",
    "StateCommitmentChain"
  ],
  "solcInputHash": "aad23d34300e438238a0739b0c367631",
  "bytecode": "0x60806040523480156200001157600080fd5b50604051620017f3380380620017f3833981016040819052620000349162000129565b600080546001600160a01b0319166001600160a01b0384161790558051620000649060019060208401906200006d565b50505062000266565b8280546200007b9062000229565b90600052602060002090601f0160209004810192826200009f5760008555620000ea565b82601f10620000ba57805160ff1916838001178555620000ea565b82800160010185558215620000ea579182015b82811115620000ea578251825591602001919060010190620000cd565b50620000f8929150620000fc565b5090565b5b80821115620000f85760008155600101620000fd565b634e487b7160e01b600052604160045260246000fd5b600080604083850312156200013d57600080fd5b82516001600160a01b03811681146200015557600080fd5b602084810151919350906001600160401b03808211156200017557600080fd5b818601915086601f8301126200018a57600080fd5b8151818111156200019f576200019f62000113565b604051601f8201601f19908116603f01168101908382118183101715620001ca57620001ca62000113565b816040528281528986848701011115620001e357600080fd5b600093505b82841015620002075784840186015181850187015292850192620001e8565b82841115620002195760008684830101525b8096505050505050509250929050565b600181811c908216806200023e57607f821691505b602082108114156200026057634e487b7160e01b600052602260045260246000fd5b50919050565b61157d80620002766000396000f3fe608060405234801561001057600080fd5b50600436106101775760003560e01c8063576f2588116100d8578063a5d829961161008c578063bc05257611610066578063bc0525761461031d578063ccf8f96914610330578063e6e436c01461033857600080fd5b8063a5d82996146102e4578063b15369c3146102f7578063b298e36b1461030a57600080fd5b806367d18b9b116100bd57806367d18b9b146102a95780638da5cb5b146102bc5780639507d39a146102d157600080fd5b8063576f25881461028d5780635bbbb7ed146102a057600080fd5b806329061de21161012f578063461a447811610114578063461a4478146102545780634651d91e146102675780634cd4d7691461027a57600080fd5b806329061de2146101fc578063299ca4781461020f57600080fd5b80632015276c116101605780632015276c146101ac57806324a49415146101bf57806324d72244146101e957600080fd5b8063167fd6811461017c5780631f7b6d3214610191575b600080fd5b61018f61018a36600461121d565b61034b565b005b610199610496565b6040519081526020015b60405180910390f35b61018f6101ba36600461121d565b6104a8565b6101d26101cd366004611249565b610567565b60405164ffffffffff1990911681526020016101a3565b61018f6101f736600461121d565b610584565b61018f61020a366004611262565b61064e565b60005461022f9073ffffffffffffffffffffffffffffffffffffffff1681565b60405173ffffffffffffffffffffffffffffffffffffffff90911681526020016101a3565b61022f6102623660046112ac565b61070f565b61018f610275366004611249565b6107b6565b61018f61028836600461137b565b610874565b61019961029b366004611249565b61094b565b61019961044081565b6101996102b73660046113a7565b61096f565b6102c4610995565b6040516101a391906113c9565b6101996102df366004611249565b610a23565b61018f6102f23660046113a7565b610a31565b61018f6103053660046113a7565b610afb565b61018f610318366004611249565b610bc5565b61018f61032b36600461143c565b610c83565b6101d2610d4e565b61018f61034636600461143c565b610d5b565b6103de6001805461035b90611471565b80601f016020809104026020016040519081016040528092919081815260200182805461038790611471565b80156103d45780601f106103a9576101008083540402835291602001916103d4565b820191906000526020600020905b8154815290600101906020018083116103b757829003601f168201915b505050505061070f565b73ffffffffffffffffffffffffffffffffffffffff163373ffffffffffffffffffffffffffffffffffffffff1614610485576040805162461bcd60e51b81526020600482015260248101919091527f436861696e53746f72616765436f6e7461696e65723a2046756e6374696f6e2060448201527f63616e206f6e6c792062652063616c6c656420627920746865206f776e65722e60648201526084015b60405180910390fd5b6104926104408383610c83565b5050565b60006104a361044061094b565b905090565b6104b86001805461035b90611471565b73ffffffffffffffffffffffffffffffffffffffff163373ffffffffffffffffffffffffffffffffffffffff161461055a576040805162461bcd60e51b81526020600482015260248101919091527f436861696e53746f72616765436f6e7461696e65723a2046756e6374696f6e2060448201527f63616e206f6e6c792062652063616c6c656420627920746865206f776e65722e606482015260840161047c565b6104926104408383610d5b565b600081815260026020526040812061057e90610e26565b92915050565b6105946001805461035b90611471565b73ffffffffffffffffffffffffffffffffffffffff163373ffffffffffffffffffffffffffffffffffffffff1614610636576040805162461bcd60e51b81526020600482015260248101919091527f436861696e53746f72616765436f6e7461696e65723a2046756e6374696f6e2060448201527f63616e206f6e6c792062652063616c6c656420627920746865206f776e65722e606482015260840161047c565b60008281526002602052604090206104929082610e74565b61065e6001805461035b90611471565b73ffffffffffffffffffffffffffffffffffffffff163373ffffffffffffffffffffffffffffffffffffffff1614610700576040805162461bcd60e51b81526020600482015260248101919091527f436861696e53746f72616765436f6e7461696e65723a2046756e6374696f6e2060448201527f63616e206f6e6c792062652063616c6c656420627920746865206f776e65722e606482015260840161047c565b61070c61044082610584565b50565b600080546040517fbf40fac100000000000000000000000000000000000000000000000000000000815273ffffffffffffffffffffffffffffffffffffffff9091169063bf40fac1906107669085906004016113c9565b60206040518083038186803b15801561077e57600080fd5b505afa158015610792573d6000803e3d6000fd5b505050506040513d601f19601f8201168201806040525081019061057e91906114c5565b6107c66001805461035b90611471565b73ffffffffffffffffffffffffffffffffffffffff163373ffffffffffffffffffffffffffffffffffffffff1614610868576040805162461bcd60e51b81526020600482015260248101919091527f436861696e53746f72616765436f6e7461696e65723a2046756e6374696f6e2060448201527f63616e206f6e6c792062652063616c6c656420627920746865206f776e65722e606482015260840161047c565b61070c61044082610a31565b6108846001805461035b90611471565b73ffffffffffffffffffffffffffffffffffffffff163373ffffffffffffffffffffffffffffffffffffffff1614610926576040805162461bcd60e51b81526020600482015260248101919091527f436861696e53746f72616765436f6e7461696e65723a2046756e6374696f6e2060448201527f63616e206f6e6c792062652063616c6c656420627920746865206f776e65722e606482015260840161047c565b600092835260026020908152604080852093855260019093019052912055565b505050565b600081815260026020526040812061096290610ed0565b64ffffffffff1692915050565b600082815260026020526040812061098e9064ffffffffff8416610f1b565b9392505050565b600180546109a290611471565b80601f01602080910402602001604051908101604052809291908181526020018280546109ce90611471565b8015610a1b5780601f106109f057610100808354040283529160200191610a1b565b820191906000526020600020905b8154815290600101906020018083116109fe57829003601f168201915b505050505081565b600061057e6104408361096f565b610a416001805461035b90611471565b73ffffffffffffffffffffffffffffffffffffffff163373ffffffffffffffffffffffffffffffffffffffff1614610ae3576040805162461bcd60e51b81526020600482015260248101919091527f436861696e53746f72616765436f6e7461696e65723a2046756e6374696f6e2060448201527f63616e206f6e6c792062652063616c6c656420627920746865206f776e65722e606482015260840161047c565b60008281526002602052604090206104929082610fd0565b610b0b6001805461035b90611471565b73ffffffffffffffffffffffffffffffffffffffff163373ffffffffffffffffffffffffffffffffffffffff1614610bad576040805162461bcd60e51b81526020600482015260248101919091527f436861696e53746f72616765436f6e7461696e65723a2046756e6374696f6e2060448201527f63616e206f6e6c792062652063616c6c656420627920746865206f776e65722e606482015260840161047c565b6000828152600260205260409020610492908261102d565b610bd56001805461035b90611471565b73ffffffffffffffffffffffffffffffffffffffff163373ffffffffffffffffffffffffffffffffffffffff1614610c77576040805162461bcd60e51b81526020600482015260248101919091527f436861696e53746f72616765436f6e7461696e65723a2046756e6374696f6e2060448201527f63616e206f6e6c792062652063616c6c656420627920746865206f776e65722e606482015260840161047c565b61070c61044082610afb565b610c936001805461035b90611471565b73ffffffffffffffffffffffffffffffffffffffff163373ffffffffffffffffffffffffffffffffffffffff1614610d35576040805162461bcd60e51b81526020600482015260248101919091527f436861696e53746f72616765436f6e7461696e65723a2046756e6374696f6e2060448201527f63616e206f6e6c792062652063616c6c656420627920746865206f776e65722e606482015260840161047c565b600083815260026020526040902061094690838361108a565b60006104a3610440610567565b610d6b6001805461035b90611471565b73ffffffffffffffffffffffffffffffffffffffff163373ffffffffffffffffffffffffffffffffffffffff1614610e0d576040805162461bcd60e51b81526020600482015260248101919091527f436861696e53746f72616765436f6e7461696e65723a2046756e6374696f6e2060448201527f63616e206f6e6c792062652063616c6c656420627920746865206f776e65722e606482015260840161047c565b6000838152600260205260409020610946908383611157565b600080610e6983604080518082019091526000808252602082015250546040805180820190915264ffffffffff8216815264ffffffffff19909116602082015290565b602001519392505050565b6000610eb683604080518082019091526000808252602082015250546040805180820190915264ffffffffff8216815264ffffffffff19909116602082015290565b64ffffffffff1983166020820152905061094683826111e2565b600080610f1383604080518082019091526000808252602082015250546040805180820190915264ffffffffff8216815264ffffffffff19909116602082015290565b519392505050565b600080610f5e84604080518082019091526000808252602082015250546040805180820190915264ffffffffff8216815264ffffffffff19909116602082015290565b805190915064ffffffffff168310610fb85760405162461bcd60e51b815260206004820152601460248201527f496e646578206f7574206f6620626f756e64732e000000000000000000000000604482015260640161047c565b50506000908152600191909101602052604090205490565b600061101283604080518082019091526000808252602082015250546040805180820190915264ffffffffff8216815264ffffffffff19909116602082015290565b90506109468282602001518561108a9092919063ffffffff16565b600061106f83604080518082019091526000808252602082015250546040805180820190915264ffffffffff8216815264ffffffffff19909116602082015290565b9050610946828260200151856111579092919063ffffffff16565b60006110cc84604080518082019091526000808252602082015250546040805180820190915264ffffffffff8216815264ffffffffff19909116602082015290565b9050806000015164ffffffffff168364ffffffffff161061112f5760405162461bcd60e51b815260206004820152601460248201527f496e646578206f7574206f6620626f756e64732e000000000000000000000000604482015260640161047c565b64ffffffffff8316815264ffffffffff198216602082015261115184826111e2565b50505050565b600061119984604080518082019091526000808252602082015250546040805180820190915264ffffffffff8216815264ffffffffff19909116602082015290565b805164ffffffffff16600090815260018601602052604090208490558051909150816111c4826114fb565b64ffffffffff1690525064ffffffffff198216602082015261115184825b80516020820151835481831792919083146111fb578285555b5050505050565b803564ffffffffff198116811461121857600080fd5b919050565b6000806040838503121561123057600080fd5b8235915061124060208401611202565b90509250929050565b60006020828403121561125b57600080fd5b5035919050565b60006020828403121561127457600080fd5b61098e82611202565b7f4e487b7100000000000000000000000000000000000000000000000000000000600052604160045260246000fd5b6000602082840312156112be57600080fd5b813567ffffffffffffffff808211156112d657600080fd5b818401915084601f8301126112ea57600080fd5b8135818111156112fc576112fc61127d565b604051601f82017fffffffffffffffffffffffffffffffffffffffffffffffffffffffffffffffe0908116603f011681019083821181831017156113425761134261127d565b8160405282815287602084870101111561135b57600080fd5b826020860160208301376000928101602001929092525095945050505050565b60008060006060848603121561139057600080fd5b505081359360208301359350604090920135919050565b600080604083850312156113ba57600080fd5b50508035926020909101359150565b600060208083528351808285015260005b818110156113f6578581018301518582016040015282016113da565b81811115611408576000604083870101525b50601f017fffffffffffffffffffffffffffffffffffffffffffffffffffffffffffffffe016929092016040019392505050565b60008060006060848603121561145157600080fd5b833592506020840135915061146860408501611202565b90509250925092565b600181811c9082168061148557607f821691505b602082108114156114bf577f4e487b7100000000000000000000000000000000000000000000000000000000600052602260045260246000fd5b50919050565b6000602082840312156114d757600080fd5b815173ffffffffffffffffffffffffffffffffffffffff8116811461098e57600080fd5b600064ffffffffff8083168181141561153d577f4e487b7100000000000000000000000000000000000000000000000000000000600052601160045260246000fd5b600101939250505056fea2646970667358221220b340f85f3f92fa0203f0d140bfe0390a401f074bf584690395075846fa900cda64736f6c63430008090033",
  "devdoc": {
    "details": "The Chain Storage Container provides its owner contract with read, write and delete functionality. This provides gas efficiency gains by enabling it to overwrite storage slots which can no longer be used in a fraud proof due to the fraud window having passed, and the associated chain state or transactions being finalized. Three distinct Chain Storage Containers will be deployed on Layer 1: 1. Stores transaction batches for the Canonical Transaction Chain 2. Stores queued transactions for the Canonical Transaction Chain 3. Stores chain state batches for the State Commitment Chain Runtime target: EVM",
    "kind": "dev",
    "methods": {
      "constructor": {
        "params": {
          "_libAddressManager": "Address of the Address Manager.",
          "_owner": "Name of the contract that owns this container (will be resolved later)."
        }
      },
      "deleteElementsAfterInclusive(uint256)": {
        "params": {
          "_index": "Object index to delete from."
        }
      },
      "deleteElementsAfterInclusive(uint256,bytes27)": {
        "params": {
          "_globalMetadata": "New global metadata for the container.",
          "_index": "Object index to delete from."
        }
      },
      "deleteElementsAfterInclusiveByChainId(uint256,uint256)": {
        "params": {
          "_chainId": "identity for the l2 chain.",
          "_index": "Object index to delete from."
        }
      },
      "deleteElementsAfterInclusiveByChainId(uint256,uint256,bytes27)": {
        "params": {
          "_chainId": "identity for the l2 chain.",
          "_globalMetadata": "New global metadata for the container.",
          "_index": "Object index to delete from."
        }
      },
      "get(uint256)": {
        "params": {
          "_index": "Index of the particular object to access."
        },
        "returns": {
          "_0": "32 byte object value."
        }
      },
      "getByChainId(uint256,uint256)": {
        "params": {
          "_chainId": "identity for the l2 chain.",
          "_index": "Index of the particular object to access."
        },
        "returns": {
          "_0": "32 byte object value."
        }
      },
      "getGlobalMetadata()": {
        "returns": {
          "_0": "Container global metadata field."
        }
      },
      "getGlobalMetadataByChainId(uint256)": {
        "params": {
          "_chainId": "identity for the l2 chain."
        },
        "returns": {
          "_0": "Container global metadata field."
        }
      },
      "length()": {
        "returns": {
          "_0": "Number of objects in the container."
        }
      },
      "lengthByChainId(uint256)": {
        "params": {
          "_chainId": "identity for the l2 chain."
        },
        "returns": {
          "_0": "Number of objects in the container."
        }
      },
      "push(bytes32)": {
        "params": {
          "_object": "A 32 byte value to insert into the container."
        }
      },
      "push(bytes32,bytes27)": {
        "params": {
          "_globalMetadata": "New global metadata for the container.",
          "_object": "A 32 byte value to insert into the container."
        }
      },
      "pushByChainId(uint256,bytes32)": {
        "params": {
          "_chainId": "identity for the l2 chain.",
          "_object": "A 32 byte value to insert into the container."
        }
      },
      "pushByChainId(uint256,bytes32,bytes27)": {
        "params": {
          "_chainId": "identity for the l2 chain.",
          "_globalMetadata": "New global metadata for the container.",
          "_object": "A 32 byte value to insert into the container."
        }
      },
      "resolve(string)": {
        "params": {
          "_name": "Name to resolve an address for."
        },
        "returns": {
          "_0": "Address associated with the given name."
        }
      },
      "setByChainId(uint256,uint256,bytes32)": {
        "params": {
          "_index": "position.",
          "_object": "A 32 byte value to insert into the container."
        }
      },
      "setGlobalMetadata(bytes27)": {
        "params": {
          "_globalMetadata": "New global metadata to set."
        }
      },
      "setGlobalMetadataByChainId(uint256,bytes27)": {
        "params": {
          "_chainId": "identity for the l2 chain.",
          "_globalMetadata": "New global metadata to set."
        }
      }
    },
    "title": "ChainStorageContainer",
    "version": 1
  },
  "userdoc": {
    "kind": "user",
    "methods": {
      "deleteElementsAfterInclusive(uint256)": {
        "notice": "Removes all objects after and including a given index."
      },
      "deleteElementsAfterInclusive(uint256,bytes27)": {
        "notice": "Removes all objects after and including a given index. Also allows setting the global metadata field."
      },
      "deleteElementsAfterInclusiveByChainId(uint256,uint256)": {
        "notice": "Removes all objects after and including a given index."
      },
      "deleteElementsAfterInclusiveByChainId(uint256,uint256,bytes27)": {
        "notice": "Removes all objects after and including a given index. Also allows setting the global metadata field."
      },
      "get(uint256)": {
        "notice": "Retrieves an object from the container."
      },
      "getByChainId(uint256,uint256)": {
        "notice": "Retrieves an object from the container."
      },
      "getGlobalMetadata()": {
        "notice": "Retrieves the container's global metadata field."
      },
      "getGlobalMetadataByChainId(uint256)": {
        "notice": "Retrieves the container's global metadata field."
      },
      "length()": {
        "notice": "Retrieves the number of objects stored in the container."
      },
      "lengthByChainId(uint256)": {
        "notice": "Retrieves the number of objects stored in the container."
      },
      "push(bytes32)": {
        "notice": "Pushes an object into the container."
      },
      "push(bytes32,bytes27)": {
        "notice": "Pushes an object into the container. Function allows setting the global metadata since we'll need to touch the \"length\" storage slot anyway, which also contains the global metadata (it's an optimization)."
      },
      "pushByChainId(uint256,bytes32)": {
        "notice": "Pushes an object into the container."
      },
      "pushByChainId(uint256,bytes32,bytes27)": {
        "notice": "Pushes an object into the container. Function allows setting the global metadata since we'll need to touch the \"length\" storage slot anyway, which also contains the global metadata (it's an optimization)."
      },
      "resolve(string)": {
        "notice": "Resolves the address associated with a given name."
      },
      "setByChainId(uint256,uint256,bytes32)": {
        "notice": "Set an object into the container. Function allows setting the global metadata since we'll need to touch the \"length\" storage slot anyway, which also contains the global metadata (it's an optimization)."
      },
      "setGlobalMetadata(bytes27)": {
        "notice": "Sets the container's global metadata field. We're using `bytes27` here because we use five bytes to maintain the length of the underlying data structure, meaning we have an extra 27 bytes to store arbitrary data."
      },
      "setGlobalMetadataByChainId(uint256,bytes27)": {
        "notice": "Sets the container's global metadata field. We're using `bytes27` here because we use five bytes to maintain the length of the underlying data structure, meaning we have an extra 27 bytes to store arbitrary data."
      }
    },
    "version": 1
  },
  "storageLayout": {
    "storage": [
      {
        "astId": 13951,
        "contract": "contracts/L1/rollup/ChainStorageContainer.sol:ChainStorageContainer",
        "label": "libAddressManager",
        "offset": 0,
        "slot": "0",
        "type": "t_contract(Lib_AddressManager)13943"
      },
      {
        "astId": 6929,
        "contract": "contracts/L1/rollup/ChainStorageContainer.sol:ChainStorageContainer",
        "label": "owner",
        "offset": 0,
        "slot": "1",
        "type": "t_string_storage"
      },
      {
        "astId": 6934,
        "contract": "contracts/L1/rollup/ChainStorageContainer.sol:ChainStorageContainer",
        "label": "buffers",
        "offset": 0,
        "slot": "2",
        "type": "t_mapping(t_uint256,t_struct(Buffer)17500_storage)"
      }
    ],
    "types": {
      "t_bytes32": {
        "encoding": "inplace",
        "label": "bytes32",
        "numberOfBytes": "32"
      },
      "t_contract(Lib_AddressManager)13943": {
        "encoding": "inplace",
        "label": "contract Lib_AddressManager",
        "numberOfBytes": "20"
      },
      "t_mapping(t_uint256,t_bytes32)": {
        "encoding": "mapping",
        "key": "t_uint256",
        "label": "mapping(uint256 => bytes32)",
        "numberOfBytes": "32",
        "value": "t_bytes32"
      },
      "t_mapping(t_uint256,t_struct(Buffer)17500_storage)": {
        "encoding": "mapping",
        "key": "t_uint256",
        "label": "mapping(uint256 => struct Lib_Buffer.Buffer)",
        "numberOfBytes": "32",
        "value": "t_struct(Buffer)17500_storage"
      },
      "t_string_storage": {
        "encoding": "bytes",
        "label": "string",
        "numberOfBytes": "32"
      },
      "t_struct(Buffer)17500_storage": {
        "encoding": "inplace",
        "label": "struct Lib_Buffer.Buffer",
        "members": [
          {
            "astId": 17495,
            "contract": "contracts/L1/rollup/ChainStorageContainer.sol:ChainStorageContainer",
            "label": "context",
            "offset": 0,
            "slot": "0",
            "type": "t_bytes32"
          },
          {
            "astId": 17499,
            "contract": "contracts/L1/rollup/ChainStorageContainer.sol:ChainStorageContainer",
            "label": "buf",
            "offset": 0,
            "slot": "1",
            "type": "t_mapping(t_uint256,t_bytes32)"
          }
        ],
        "numberOfBytes": "64"
      },
      "t_uint256": {
        "encoding": "inplace",
        "label": "uint256",
        "numberOfBytes": "32"
      }
    }
  }
}