{
  "address": "0x101500214981e7A5Ad2334D8404eaF365C2c3113",
  "abi": [
    {
      "inputs": [],
      "stateMutability": "nonpayable",
      "type": "constructor"
    },
    {
      "anonymous": false,
      "inputs": [
        {
          "indexed": false,
          "internalType": "uint256",
          "name": "_chainid",
          "type": "uint256"
        }
      ],
      "name": "ERC20ChainID",
      "type": "event"
    },
    {
      "anonymous": false,
      "inputs": [
        {
          "indexed": true,
          "internalType": "address",
          "name": "_l1Token",
          "type": "address"
        },
        {
          "indexed": true,
          "internalType": "address",
          "name": "_l2Token",
          "type": "address"
        },
        {
          "indexed": true,
          "internalType": "address",
          "name": "_from",
          "type": "address"
        },
        {
          "indexed": false,
          "internalType": "address",
          "name": "_to",
          "type": "address"
        },
        {
          "indexed": false,
          "internalType": "uint256",
          "name": "_amount",
          "type": "uint256"
        },
        {
          "indexed": false,
          "internalType": "bytes",
          "name": "_data",
          "type": "bytes"
        }
      ],
      "name": "ERC20DepositInitiated",
      "type": "event"
    },
    {
      "anonymous": false,
      "inputs": [
        {
          "indexed": true,
          "internalType": "address",
          "name": "_l1Token",
          "type": "address"
        },
        {
          "indexed": true,
          "internalType": "address",
          "name": "_l2Token",
          "type": "address"
        },
        {
          "indexed": true,
          "internalType": "address",
          "name": "_from",
          "type": "address"
        },
        {
          "indexed": false,
          "internalType": "address",
          "name": "_to",
          "type": "address"
        },
        {
          "indexed": false,
          "internalType": "uint256",
          "name": "_amount",
          "type": "uint256"
        },
        {
          "indexed": false,
          "internalType": "bytes",
          "name": "_data",
          "type": "bytes"
        }
      ],
      "name": "ERC20WithdrawalFinalized",
      "type": "event"
    },
    {
      "anonymous": false,
      "inputs": [
        {
          "indexed": true,
          "internalType": "address",
          "name": "_from",
          "type": "address"
        },
        {
          "indexed": true,
          "internalType": "address",
          "name": "_to",
          "type": "address"
        },
        {
          "indexed": false,
          "internalType": "uint256",
          "name": "_amount",
          "type": "uint256"
        },
        {
          "indexed": false,
          "internalType": "bytes",
          "name": "_data",
          "type": "bytes"
        },
        {
          "indexed": false,
          "internalType": "uint256",
          "name": "chainId",
          "type": "uint256"
        }
      ],
      "name": "ETHDepositInitiated",
      "type": "event"
    },
    {
      "anonymous": false,
      "inputs": [
        {
          "indexed": true,
          "internalType": "address",
          "name": "_from",
          "type": "address"
        },
        {
          "indexed": true,
          "internalType": "address",
          "name": "_to",
          "type": "address"
        },
        {
          "indexed": false,
          "internalType": "uint256",
          "name": "_amount",
          "type": "uint256"
        },
        {
          "indexed": false,
          "internalType": "bytes",
          "name": "_data",
          "type": "bytes"
        },
        {
          "indexed": false,
          "internalType": "uint256",
          "name": "chainId",
          "type": "uint256"
        }
      ],
      "name": "ETHWithdrawalFinalized",
      "type": "event"
    },
    {
      "inputs": [],
      "name": "DEFAULT_CHAINID",
      "outputs": [
        {
          "internalType": "uint256",
          "name": "",
          "type": "uint256"
        }
      ],
      "stateMutability": "view",
      "type": "function"
    },
    {
      "inputs": [],
      "name": "addressmgr",
      "outputs": [
        {
          "internalType": "address",
          "name": "",
          "type": "address"
        }
      ],
      "stateMutability": "view",
      "type": "function"
    },
    {
      "inputs": [
        {
          "internalType": "address",
          "name": "_l1Token",
          "type": "address"
        },
        {
          "internalType": "address",
          "name": "_l2Token",
          "type": "address"
        },
        {
          "internalType": "uint256",
          "name": "_amount",
          "type": "uint256"
        },
        {
          "internalType": "uint32",
          "name": "_l2Gas",
          "type": "uint32"
        },
        {
          "internalType": "bytes",
          "name": "_data",
          "type": "bytes"
        }
      ],
      "name": "depositERC20",
      "outputs": [],
      "stateMutability": "nonpayable",
      "type": "function"
    },
    {
      "inputs": [
        {
          "internalType": "uint256",
          "name": "_chainid",
          "type": "uint256"
        },
        {
          "internalType": "address",
          "name": "_l1Token",
          "type": "address"
        },
        {
          "internalType": "address",
          "name": "_l2Token",
          "type": "address"
        },
        {
          "internalType": "uint256",
          "name": "_amount",
          "type": "uint256"
        },
        {
          "internalType": "uint32",
          "name": "_l2Gas",
          "type": "uint32"
        },
        {
          "internalType": "bytes",
          "name": "_data",
          "type": "bytes"
        }
      ],
      "name": "depositERC20ByChainId",
      "outputs": [],
      "stateMutability": "payable",
      "type": "function"
    },
    {
      "inputs": [
        {
          "internalType": "address",
          "name": "_l1Token",
          "type": "address"
        },
        {
          "internalType": "address",
          "name": "_l2Token",
          "type": "address"
        },
        {
          "internalType": "address",
          "name": "_to",
          "type": "address"
        },
        {
          "internalType": "uint256",
          "name": "_amount",
          "type": "uint256"
        },
        {
          "internalType": "uint32",
          "name": "_l2Gas",
          "type": "uint32"
        },
        {
          "internalType": "bytes",
          "name": "_data",
          "type": "bytes"
        }
      ],
      "name": "depositERC20To",
      "outputs": [],
      "stateMutability": "nonpayable",
      "type": "function"
    },
    {
      "inputs": [
        {
          "internalType": "uint256",
          "name": "_chainid",
          "type": "uint256"
        },
        {
          "internalType": "address",
          "name": "_l1Token",
          "type": "address"
        },
        {
          "internalType": "address",
          "name": "_l2Token",
          "type": "address"
        },
        {
          "internalType": "address",
          "name": "_to",
          "type": "address"
        },
        {
          "internalType": "uint256",
          "name": "_amount",
          "type": "uint256"
        },
        {
          "internalType": "uint32",
          "name": "_l2Gas",
          "type": "uint32"
        },
        {
          "internalType": "bytes",
          "name": "_data",
          "type": "bytes"
        }
      ],
      "name": "depositERC20ToByChainId",
      "outputs": [],
      "stateMutability": "payable",
      "type": "function"
    },
    {
      "inputs": [
        {
          "internalType": "uint32",
          "name": "_l2Gas",
          "type": "uint32"
        },
        {
          "internalType": "bytes",
          "name": "_data",
          "type": "bytes"
        }
      ],
      "name": "depositETH",
      "outputs": [],
      "stateMutability": "payable",
      "type": "function"
    },
    {
      "inputs": [
        {
          "internalType": "uint256",
          "name": "_chainId",
          "type": "uint256"
        },
        {
          "internalType": "uint32",
          "name": "_l2Gas",
          "type": "uint32"
        },
        {
          "internalType": "bytes",
          "name": "_data",
          "type": "bytes"
        }
      ],
      "name": "depositETHByChainId",
      "outputs": [],
      "stateMutability": "payable",
      "type": "function"
    },
    {
      "inputs": [
        {
          "internalType": "address",
          "name": "_to",
          "type": "address"
        },
        {
          "internalType": "uint32",
          "name": "_l2Gas",
          "type": "uint32"
        },
        {
          "internalType": "bytes",
          "name": "_data",
          "type": "bytes"
        }
      ],
      "name": "depositETHTo",
      "outputs": [],
      "stateMutability": "payable",
      "type": "function"
    },
    {
      "inputs": [
        {
          "internalType": "uint256",
          "name": "_chainId",
          "type": "uint256"
        },
        {
          "internalType": "address",
          "name": "_to",
          "type": "address"
        },
        {
          "internalType": "uint32",
          "name": "_l2Gas",
          "type": "uint32"
        },
        {
          "internalType": "bytes",
          "name": "_data",
          "type": "bytes"
        }
      ],
      "name": "depositETHToByChainId",
      "outputs": [],
      "stateMutability": "payable",
      "type": "function"
    },
    {
      "inputs": [
        {
          "internalType": "address",
          "name": "",
          "type": "address"
        },
        {
          "internalType": "uint256",
          "name": "",
          "type": "uint256"
        },
        {
          "internalType": "address",
          "name": "",
          "type": "address"
        }
      ],
      "name": "deposits",
      "outputs": [
        {
          "internalType": "uint256",
          "name": "",
          "type": "uint256"
        }
      ],
      "stateMutability": "view",
      "type": "function"
    },
    {
      "inputs": [],
      "name": "donateETH",
      "outputs": [],
      "stateMutability": "payable",
      "type": "function"
    },
    {
      "inputs": [
        {
          "internalType": "address",
          "name": "_l1Token",
          "type": "address"
        },
        {
          "internalType": "address",
          "name": "_l2Token",
          "type": "address"
        },
        {
          "internalType": "address",
          "name": "_from",
          "type": "address"
        },
        {
          "internalType": "address",
          "name": "_to",
          "type": "address"
        },
        {
          "internalType": "uint256",
          "name": "_amount",
          "type": "uint256"
        },
        {
          "internalType": "bytes",
          "name": "_data",
          "type": "bytes"
        }
      ],
      "name": "finalizeERC20Withdrawal",
      "outputs": [],
      "stateMutability": "nonpayable",
      "type": "function"
    },
    {
      "inputs": [
        {
          "internalType": "uint256",
          "name": "_chainid",
          "type": "uint256"
        },
        {
          "internalType": "address",
          "name": "_l1Token",
          "type": "address"
        },
        {
          "internalType": "address",
          "name": "_l2Token",
          "type": "address"
        },
        {
          "internalType": "address",
          "name": "_from",
          "type": "address"
        },
        {
          "internalType": "address",
          "name": "_to",
          "type": "address"
        },
        {
          "internalType": "uint256",
          "name": "_amount",
          "type": "uint256"
        },
        {
          "internalType": "bytes",
          "name": "_data",
          "type": "bytes"
        }
      ],
      "name": "finalizeERC20WithdrawalByChainId",
      "outputs": [],
      "stateMutability": "nonpayable",
      "type": "function"
    },
    {
      "inputs": [
        {
          "internalType": "address",
          "name": "_from",
          "type": "address"
        },
        {
          "internalType": "address",
          "name": "_to",
          "type": "address"
        },
        {
          "internalType": "uint256",
          "name": "_amount",
          "type": "uint256"
        },
        {
          "internalType": "bytes",
          "name": "_data",
          "type": "bytes"
        }
      ],
      "name": "finalizeETHWithdrawal",
      "outputs": [],
      "stateMutability": "nonpayable",
      "type": "function"
    },
    {
      "inputs": [
        {
          "internalType": "uint256",
          "name": "_chainid",
          "type": "uint256"
        },
        {
          "internalType": "address",
          "name": "_from",
          "type": "address"
        },
        {
          "internalType": "address",
          "name": "_to",
          "type": "address"
        },
        {
          "internalType": "uint256",
          "name": "_amount",
          "type": "uint256"
        },
        {
          "internalType": "bytes",
          "name": "_data",
          "type": "bytes"
        }
      ],
      "name": "finalizeETHWithdrawalByChainId",
      "outputs": [],
      "stateMutability": "nonpayable",
      "type": "function"
    },
    {
      "inputs": [
        {
          "internalType": "uint256",
          "name": "_chainid",
          "type": "uint256"
        },
        {
          "internalType": "address",
          "name": "_from",
          "type": "address"
        },
        {
          "internalType": "address",
          "name": "_to",
          "type": "address"
        },
        {
          "internalType": "uint256",
          "name": "_amount",
          "type": "uint256"
        },
        {
          "internalType": "bytes",
          "name": "_data",
          "type": "bytes"
        }
      ],
      "name": "finalizeMetisWithdrawalByChainId",
      "outputs": [],
      "stateMutability": "nonpayable",
      "type": "function"
    },
    {
      "inputs": [
        {
          "internalType": "address",
          "name": "_l1messenger",
          "type": "address"
        },
        {
          "internalType": "address",
          "name": "_l2TokenBridge",
          "type": "address"
        },
        {
          "internalType": "address",
          "name": "_metis",
          "type": "address"
        },
        {
          "internalType": "address",
          "name": "_addressmgr",
          "type": "address"
        }
      ],
      "name": "initialize",
      "outputs": [],
      "stateMutability": "nonpayable",
      "type": "function"
    },
    {
      "inputs": [],
      "name": "l2TokenBridge",
      "outputs": [
        {
          "internalType": "address",
          "name": "",
          "type": "address"
        }
      ],
      "stateMutability": "view",
      "type": "function"
    },
    {
      "inputs": [],
      "name": "messenger",
      "outputs": [
        {
          "internalType": "address",
          "name": "",
          "type": "address"
        }
      ],
      "stateMutability": "view",
      "type": "function"
    },
    {
      "inputs": [],
      "name": "metis",
      "outputs": [
        {
          "internalType": "address",
          "name": "",
          "type": "address"
        }
      ],
      "stateMutability": "view",
      "type": "function"
    }
  ],
  "transactionHash": "0xf97b2db3e10e22447bf7a5d15f7c1857c9a4ac53a9cbb079d481b50276237f8c",
  "args": [],
  "solcInputHash": "aad23d34300e438238a0739b0c367631",
  "bytecode": "0x608060405234801561001057600080fd5b50600080546001600160a01b0319169055612d07806100306000396000f3fe60806040526004361061016a5760003560e01c80638b4c40b0116100cb578063a9f9e6751161007f578063ef808be211610059578063ef808be214610371578063f4a1381414610384578063f8c8765e146103c257600080fd5b8063a9f9e6751461031e578063b1a1a8821461033e578063e59745541461035157600080fd5b806391c49bf8116100b057806391c49bf8146102d85780639a2ac6d5146102f8578063a396a59c1461030b57600080fd5b80638b4c40b01461018f57806390a40a76146102b857600080fd5b806358a997f6116101225780636cebdc45116101075780636cebdc4514610265578063838b25201461028557806384e930f0146102a557600080fd5b806358a997f6146102215780635bbbb7ed1461024157600080fd5b8063153928f411610153578063153928f4146101b1578063200997b3146101ee5780633cb747bf1461020157600080fd5b80630546aaa91461016f5780631532ec3414610191575b600080fd5b34801561017b57600080fd5b5061018f61018a3660046122cf565b6103e2565b005b34801561019d57600080fd5b5061018f6101ac36600461234b565b6106d1565b3480156101bd57600080fd5b506003546101d1906001600160a01b031681565b6040516001600160a01b0390911681526020015b60405180910390f35b61018f6101fc3660046123d7565b6109bc565b34801561020d57600080fd5b506000546101d1906001600160a01b031681565b34801561022d57600080fd5b5061018f61023c36600461242b565b610a06565b34801561024d57600080fd5b5061025761044081565b6040519081526020016101e5565b34801561027157600080fd5b5061018f610280366004612490565b610a70565b34801561029157600080fd5b5061018f6102a0366004612531565b610c37565b61018f6102b33660046125c7565b610c53565b3480156102c457600080fd5b5061018f6102d33660046122cf565b610ceb565b3480156102e457600080fd5b506001546101d1906001600160a01b031681565b61018f610306366004612621565b610ec8565b61018f610319366004612650565b610f0a565b34801561032a57600080fd5b5061018f61033936600461267d565b610f6a565b61018f61034c3660046126f6565b611132565b34801561035d57600080fd5b506002546101d1906001600160a01b031681565b61018f61037f366004612749565b6111c8565b34801561039057600080fd5b5061025761039f3660046127c8565b600460209081526000938452604080852082529284528284209052825290205481565b3480156103ce57600080fd5b5061018f6103dd36600461280a565b6111d9565b6001546001600160a01b03166104006000546001600160a01b031690565b6001600160a01b0316336001600160a01b03161461048b5760405162461bcd60e51b815260206004820152602e60248201527f4f564d5f58434841494e3a206d657373656e67657220636f6e7472616374207560448201527f6e61757468656e7469636174656400000000000000000000000000000000000060648201526084015b60405180910390fd5b806001600160a01b03166104a76000546001600160a01b031690565b6001600160a01b0316636e296e456040518163ffffffff1660e01b815260040160206040518083038186803b1580156104df57600080fd5b505afa1580156104f3573d6000803e3d6000fd5b505050506040513d601f19601f820116820180604052508101906105179190612866565b6001600160a01b0316146105935760405162461bcd60e51b815260206004820152603060248201527f4f564d5f58434841494e3a2077726f6e672073656e646572206f662063726f7360448201527f732d646f6d61696e206d657373616765000000000000000000000000000000006064820152608401610482565b604080516000808252602082019092526001600160a01b0387169086906040516105bd91906128de565b60006040518083038185875af1925050503d80600081146105fa576040519150601f19603f3d011682016040523d82523d6000602084013e6105ff565b606091505b50509050806106765760405162461bcd60e51b815260206004820152603460248201527f5472616e7366657248656c7065723a3a736166655472616e736665724554483a60448201527f20455448207472616e73666572206661696c65640000000000000000000000006064820152608401610482565b856001600160a01b0316876001600160a01b03167f727233b1ab656a027266fdc255d394b9aa8a2db3b7ff0fd6150dc3a8686f30cb8787878d6040516106bf9493929190612925565b60405180910390a35050505050505050565b6001546001600160a01b03166106ef6000546001600160a01b031690565b6001600160a01b0316336001600160a01b0316146107755760405162461bcd60e51b815260206004820152602e60248201527f4f564d5f58434841494e3a206d657373656e67657220636f6e7472616374207560448201527f6e61757468656e746963617465640000000000000000000000000000000000006064820152608401610482565b806001600160a01b03166107916000546001600160a01b031690565b6001600160a01b0316636e296e456040518163ffffffff1660e01b815260040160206040518083038186803b1580156107c957600080fd5b505afa1580156107dd573d6000803e3d6000fd5b505050506040513d601f19601f820116820180604052508101906108019190612866565b6001600160a01b03161461087d5760405162461bcd60e51b815260206004820152603060248201527f4f564d5f58434841494e3a2077726f6e672073656e646572206f662063726f7360448201527f732d646f6d61696e206d657373616765000000000000000000000000000000006064820152608401610482565b604080516000808252602082019092526001600160a01b0387169086906040516108a791906128de565b60006040518083038185875af1925050503d80600081146108e4576040519150601f19603f3d011682016040523d82523d6000602084013e6108e9565b606091505b50509050806109605760405162461bcd60e51b815260206004820152603460248201527f5472616e7366657248656c7065723a3a736166655472616e736665724554483a60448201527f20455448207472616e73666572206661696c65640000000000000000000000006064820152608401610482565b856001600160a01b0316876001600160a01b03167f727233b1ab656a027266fdc255d394b9aa8a2db3b7ff0fd6150dc3a8686f30cb8787876104406040516109ab9493929190612925565b60405180910390a350505050505050565b6109ff8533868686868080601f0160208091040260200160405190810160405280939291908181526020018383808284376000920191909152506112c092505050565b5050505050565b333b15610a555760405162461bcd60e51b815260206004820152600f60248201527f4163636f756e74206e6f7420454f4100000000000000000000000000000000006044820152606401610482565b610a686104408787333389898989611613565b505050505050565b6001546001600160a01b0316610a8e6000546001600160a01b031690565b6001600160a01b0316336001600160a01b031614610b145760405162461bcd60e51b815260206004820152602e60248201527f4f564d5f58434841494e3a206d657373656e67657220636f6e7472616374207560448201527f6e61757468656e746963617465640000000000000000000000000000000000006064820152608401610482565b806001600160a01b0316610b306000546001600160a01b031690565b6001600160a01b0316636e296e456040518163ffffffff1660e01b815260040160206040518083038186803b158015610b6857600080fd5b505afa158015610b7c573d6000803e3d6000fd5b505050506040513d601f19601f82011682018060405250810190610ba09190612866565b6001600160a01b031614610c1c5760405162461bcd60e51b815260206004820152603060248201527f4f564d5f58434841494e3a2077726f6e672073656e646572206f662063726f7360448201527f732d646f6d61696e206d657373616765000000000000000000000000000000006064820152608401610482565b610c2c8989898989898989611bf8565b505050505050505050565b610c4a6104408888338989898989611613565b50505050505050565b333b15610ca25760405162461bcd60e51b815260206004820152600f60248201527f4163636f756e74206e6f7420454f4100000000000000000000000000000000006044820152606401610482565b610ce58433338686868080601f0160208091040260200160405190810160405280939291908181526020018383808284376000920191909152506112c092505050565b50505050565b6001546001600160a01b0316610d096000546001600160a01b031690565b6001600160a01b0316336001600160a01b031614610d8f5760405162461bcd60e51b815260206004820152602e60248201527f4f564d5f58434841494e3a206d657373656e67657220636f6e7472616374207560448201527f6e61757468656e746963617465640000000000000000000000000000000000006064820152608401610482565b806001600160a01b0316610dab6000546001600160a01b031690565b6001600160a01b0316636e296e456040518163ffffffff1660e01b815260040160206040518083038186803b158015610de357600080fd5b505afa158015610df7573d6000803e3d6000fd5b505050506040513d601f19601f82011682018060405250810190610e1b9190612866565b6001600160a01b031614610e975760405162461bcd60e51b815260206004820152603060248201527f4f564d5f58434841494e3a2077726f6e672073656e646572206f662063726f7360448201527f732d646f6d61696e206d657373616765000000000000000000000000000000006064820152608401610482565b600254610c4a9088906001600160a01b031673deaddeaddeaddeaddeaddeaddeaddeaddead00008989898989611bf8565b610ce533858585858080601f016020809104026020016040519081016040528093929190818152602001838380828437600092019190915250611d0892505050565b333b15610f595760405162461bcd60e51b815260206004820152600f60248201527f4163636f756e74206e6f7420454f4100000000000000000000000000000000006044820152606401610482565b610c4a878787333389898989611613565b6001546001600160a01b0316610f886000546001600160a01b031690565b6001600160a01b0316336001600160a01b03161461100e5760405162461bcd60e51b815260206004820152602e60248201527f4f564d5f58434841494e3a206d657373656e67657220636f6e7472616374207560448201527f6e61757468656e746963617465640000000000000000000000000000000000006064820152608401610482565b806001600160a01b031661102a6000546001600160a01b031690565b6001600160a01b0316636e296e456040518163ffffffff1660e01b815260040160206040518083038186803b15801561106257600080fd5b505afa158015611076573d6000803e3d6000fd5b505050506040513d601f19601f8201168201806040525081019061109a9190612866565b6001600160a01b0316146111165760405162461bcd60e51b815260206004820152603060248201527f4f564d5f58434841494e3a2077726f6e672073656e646572206f662063726f7360448201527f732d646f6d61696e206d657373616765000000000000000000000000000000006064820152608401610482565b61112861044089898989898989611bf8565b5050505050505050565b333b156111815760405162461bcd60e51b815260206004820152600f60248201527f4163636f756e74206e6f7420454f4100000000000000000000000000000000006044820152606401610482565b6111c333338585858080601f016020809104026020016040519081016040528093929190818152602001838380828437600092019190915250611d0892505050565b505050565b611128888888338989898989611613565b6000546001600160a01b0316156112585760405162461bcd60e51b815260206004820152602660248201527f436f6e74726163742068617320616c7265616479206265656e20696e6974696160448201527f6c697a65642e00000000000000000000000000000000000000000000000000006064820152608401610482565b600080546001600160a01b039586167fffffffffffffffffffffffff0000000000000000000000000000000000000000918216179091556001805494861694821694909417909355600280549285169284169290921790915560038054919093169116179055565b6003546040517fbf40fac100000000000000000000000000000000000000000000000000000000815260206004820152601260248201527f4d564d5f446973636f756e744f7261636c65000000000000000000000000000060448201526000916001600160a01b03169063bf40fac19060640160206040518083038186803b15801561134b57600080fd5b505afa15801561135f573d6000803e3d6000fd5b505050506040513d601f19601f820116820180604052508101906113839190612866565b90506000816001600160a01b031663bf53926e6040518163ffffffff1660e01b815260040160206040518083038186803b1580156113c057600080fd5b505afa1580156113d4573d6000803e3d6000fd5b505050506040513d601f19601f820116820180604052508101906113f89190612950565b90508063ffffffff168463ffffffff161015611412578093505b6000826001600160a01b031663d137874b6040518163ffffffff1660e01b815260040160206040518083038186803b15801561144d57600080fd5b505afa158015611461573d6000803e3d6000fd5b505050506040513d601f19601f820116820180604052508101906114859190612950565b6114959063ffffffff8716612998565b9050348111156114a482611d17565b6040516020016114b491906129d5565b604051602081830303815290604052906114e15760405162461bcd60e51b81526004016104829190612a6c565b5060007f662a633a000000000000000000000000000000000000000000000000000000008173420000000000000000000000000000000000000a8a8a6115278734612a7f565b8a60405160240161153d96959493929190612a96565b60408051601f198184030181529190526020810180517bffffffffffffffffffffffffffffffffffffffffffffffffffffffff167fffffffff00000000000000000000000000000000000000000000000000000000909316929092179091526001549091506115b9908a906001600160a01b0316888486611e74565b866001600160a01b0316886001600160a01b03167f742461272f8da1cbe655542d3257acb1f1d5f4e6eaa79692ac5609b0f89cb64434888d60405161160093929190612ae4565b60405180910390a3505050505050505050565b6003546040517fbf40fac100000000000000000000000000000000000000000000000000000000815260206004820152601260248201527f4d564d5f446973636f756e744f7261636c65000000000000000000000000000060448201526000916001600160a01b03169063bf40fac19060640160206040518083038186803b15801561169e57600080fd5b505afa1580156116b2573d6000803e3d6000fd5b505050506040513d601f19601f820116820180604052508101906116d69190612866565b9050806001600160a01b031663bf53926e6040518163ffffffff1660e01b815260040160206040518083038186803b15801561171157600080fd5b505afa158015611725573d6000803e3d6000fd5b505050506040513d601f19601f820116820180604052508101906117499190612950565b63ffffffff168463ffffffff1610156117d057806001600160a01b031663bf53926e6040518163ffffffff1660e01b815260040160206040518083038186803b15801561179557600080fd5b505afa1580156117a9573d6000803e3d6000fd5b505050506040513d601f19601f820116820180604052508101906117cd9190612950565b93505b34816001600160a01b031663d137874b6040518163ffffffff1660e01b815260040160206040518083038186803b15801561180a57600080fd5b505afa15801561181e573d6000803e3d6000fd5b505050506040513d601f19601f820116820180604052508101906118429190612950565b6118529063ffffffff8716612998565b11156118dd826001600160a01b031663d137874b6040518163ffffffff1660e01b815260040160206040518083038186803b15801561189057600080fd5b505afa1580156118a4573d6000803e3d6000fd5b505050506040513d601f19601f820116820180604052508101906118c89190612950565b6118d89063ffffffff8816612998565b611d17565b6040516020016118ed91906129d5565b6040516020818303038152906040529061191a5760405162461bcd60e51b81526004016104829190612a6c565b506119306001600160a01b038a16883088611efe565b6002546060906001600160a01b038b811691161415611a065760405173deaddeaddeaddeaddeaddeaddeaddeaddead000099507f662a633a00000000000000000000000000000000000000000000000000000000906119a0906000908c908c908c908c908b908b90602401612b0d565b60408051601f198184030181529190526020810180517bffffffffffffffffffffffffffffffffffffffffffffffffffffffff167fffffffff00000000000000000000000000000000000000000000000000000000909316929092179091529050611aa7565b6040517f662a633a0000000000000000000000000000000000000000000000000000000090611a45908c908c908c908c908c908b908b90602401612b0d565b60408051601f198184030181529190526020810180517bffffffffffffffffffffffffffffffffffffffffffffffffffffffff167fffffffff000000000000000000000000000000000000000000000000000000009093169290921790915290505b600154611ac1908c906001600160a01b0316878434611e74565b6001600160a01b03808b1660009081526004602090815260408083208f84528252808320938d1683529290522054611afa908790612b5d565b600460008c6001600160a01b03166001600160a01b0316815260200190815260200160002060008d815260200190815260200160002060008b6001600160a01b03166001600160a01b03168152602001908152602001600020819055507fc333b5c3e71358b85edbb94334230ac00644c26af29851f9034a7105eb84b0778b604051611b8891815260200190565b60405180910390a1876001600160a01b0316896001600160a01b03168b6001600160a01b03167f718594027abd4eaed59f95162563e0cc6d0e8d5b86b1c7be8b1b0ac3343d03968a8a8989604051611be39493929190612b75565b60405180910390a45050505050505050505050565b6001600160a01b0380881660009081526004602090815260408083208c84528252808320938a1683529290522054611c31908490612a7f565b6001600160a01b0380891660008181526004602090815260408083208e84528252808320948c1683529390529190912091909155611c70908585611faf565b6040518881527fc333b5c3e71358b85edbb94334230ac00644c26af29851f9034a7105eb84b0779060200160405180910390a1846001600160a01b0316866001600160a01b0316886001600160a01b03167f3ceee06c1e37648fcbb6ed52e17b3e1f275a1f8c7b22a84b2b84732431e046b387878787604051611cf69493929190612b75565b60405180910390a45050505050505050565b610ce5610440858585856112c0565b606081611d5757505060408051808201909152600181527f3000000000000000000000000000000000000000000000000000000000000000602082015290565b8160005b8115611d815780611d6b81612ba8565b9150611d7a9050600a83612be1565b9150611d5b565b60008167ffffffffffffffff811115611d9c57611d9c612883565b6040519080825280601f01601f191660200182016040528015611dc6576020820181803683370190505b509050815b8515611e6b57611ddc600182612a7f565b90506000611deb600a88612be1565b611df690600a612998565b611e009088612a7f565b611e0b906030612c1c565b905060008160f81b905080848481518110611e2857611e28612c41565b60200101907effffffffffffffffffffffffffffffffffffffffffffffffffffffffffffff1916908160001a905350611e62600a89612be1565b97505050611dcb565b50949350505050565b6000546040517f44dd5ed60000000000000000000000000000000000000000000000000000000081526001600160a01b03909116906344dd5ed6908390611ec5908990899088908a90600401612c70565b6000604051808303818588803b158015611ede57600080fd5b505af1158015611ef2573d6000803e3d6000fd5b50505050505050505050565b6040516001600160a01b0380851660248301528316604482015260648101829052610ce59085907f23b872dd00000000000000000000000000000000000000000000000000000000906084015b60408051601f198184030181529190526020810180517bffffffffffffffffffffffffffffffffffffffffffffffffffffffff167fffffffff0000000000000000000000000000000000000000000000000000000090931692909217909152611ff8565b6040516001600160a01b0383166024820152604481018290526111c39084907fa9059cbb0000000000000000000000000000000000000000000000000000000090606401611f4b565b600061204d826040518060400160405280602081526020017f5361666545524332303a206c6f772d6c6576656c2063616c6c206661696c6564815250856001600160a01b03166120dd9092919063ffffffff16565b8051909150156111c3578080602001905181019061206b9190612caf565b6111c35760405162461bcd60e51b815260206004820152602a60248201527f5361666545524332303a204552433230206f7065726174696f6e20646964206e60448201527f6f742073756363656564000000000000000000000000000000000000000000006064820152608401610482565b60606120ec84846000856120f6565b90505b9392505050565b60608247101561216e5760405162461bcd60e51b815260206004820152602660248201527f416464726573733a20696e73756666696369656e742062616c616e636520666f60448201527f722063616c6c00000000000000000000000000000000000000000000000000006064820152608401610482565b843b6121bc5760405162461bcd60e51b815260206004820152601d60248201527f416464726573733a2063616c6c20746f206e6f6e2d636f6e74726163740000006044820152606401610482565b600080866001600160a01b031685876040516121d891906128de565b60006040518083038185875af1925050503d8060008114612215576040519150601f19603f3d011682016040523d82523d6000602084013e61221a565b606091505b509150915061222a828286612235565b979650505050505050565b606083156122445750816120ef565b8251156122545782518084602001fd5b8160405162461bcd60e51b81526004016104829190612a6c565b6001600160a01b038116811461228357600080fd5b50565b60008083601f84011261229857600080fd5b50813567ffffffffffffffff8111156122b057600080fd5b6020830191508360208285010111156122c857600080fd5b9250929050565b60008060008060008060a087890312156122e857600080fd5b8635955060208701356122fa8161226e565b9450604087013561230a8161226e565b935060608701359250608087013567ffffffffffffffff81111561232d57600080fd5b61233989828a01612286565b979a9699509497509295939492505050565b60008060008060006080868803121561236357600080fd5b853561236e8161226e565b9450602086013561237e8161226e565b935060408601359250606086013567ffffffffffffffff8111156123a157600080fd5b6123ad88828901612286565b969995985093965092949392505050565b803563ffffffff811681146123d257600080fd5b919050565b6000806000806000608086880312156123ef57600080fd5b8535945060208601356124018161226e565b935061240f604087016123be565b9250606086013567ffffffffffffffff8111156123a157600080fd5b60008060008060008060a0878903121561244457600080fd5b863561244f8161226e565b9550602087013561245f8161226e565b945060408701359350612474606088016123be565b9250608087013567ffffffffffffffff81111561232d57600080fd5b60008060008060008060008060e0898b0312156124ac57600080fd5b8835975060208901356124be8161226e565b965060408901356124ce8161226e565b955060608901356124de8161226e565b945060808901356124ee8161226e565b935060a0890135925060c089013567ffffffffffffffff81111561251157600080fd5b61251d8b828c01612286565b999c989b5096995094979396929594505050565b600080600080600080600060c0888a03121561254c57600080fd5b87356125578161226e565b965060208801356125678161226e565b955060408801356125778161226e565b94506060880135935061258c608089016123be565b925060a088013567ffffffffffffffff8111156125a857600080fd5b6125b48a828b01612286565b989b979a50959850939692959293505050565b600080600080606085870312156125dd57600080fd5b843593506125ed602086016123be565b9250604085013567ffffffffffffffff81111561260957600080fd5b61261587828801612286565b95989497509550505050565b6000806000806060858703121561263757600080fd5b84356126428161226e565b93506125ed602086016123be565b600080600080600080600060c0888a03121561266b57600080fd5b8735965060208801356125678161226e565b600080600080600080600060c0888a03121561269857600080fd5b87356126a38161226e565b965060208801356126b38161226e565b955060408801356126c38161226e565b945060608801356126d38161226e565b93506080880135925060a088013567ffffffffffffffff8111156125a857600080fd5b60008060006040848603121561270b57600080fd5b612714846123be565b9250602084013567ffffffffffffffff81111561273057600080fd5b61273c86828701612286565b9497909650939450505050565b60008060008060008060008060e0898b03121561276557600080fd5b8835975060208901356127778161226e565b965060408901356127878161226e565b955060608901356127978161226e565b9450608089013593506127ac60a08a016123be565b925060c089013567ffffffffffffffff81111561251157600080fd5b6000806000606084860312156127dd57600080fd5b83356127e88161226e565b92506020840135915060408401356127ff8161226e565b809150509250925092565b6000806000806080858703121561282057600080fd5b843561282b8161226e565b9350602085013561283b8161226e565b9250604085013561284b8161226e565b9150606085013561285b8161226e565b939692955090935050565b60006020828403121561287857600080fd5b81516120ef8161226e565b7f4e487b7100000000000000000000000000000000000000000000000000000000600052604160045260246000fd5b60005b838110156128cd5781810151838201526020016128b5565b83811115610ce55750506000910152565b600082516128f08184602087016128b2565b9190910192915050565b818352818160208501375060006020828401015260006020601f19601f840116840101905092915050565b84815260606020820152600061293f6060830185876128fa565b905082604083015295945050505050565b60006020828403121561296257600080fd5b5051919050565b7f4e487b7100000000000000000000000000000000000000000000000000000000600052601160045260246000fd5b6000817fffffffffffffffffffffffffffffffffffffffffffffffffffffffffffffffff04831182151516156129d0576129d0612969565b500290565b7f696e73756666696369656e742066656520737570706c6965642e2073656e642081527f6174206c65617374200000000000000000000000000000000000000000000000602082015260008251612a338160298501602087016128b2565b9190910160290192915050565b60008151808452612a588160208601602086016128b2565b601f01601f19169290920160200192915050565b6020815260006120ef6020830184612a40565b600082821015612a9157612a91612969565b500390565b60006001600160a01b0380891683528088166020840152808716604084015280861660608401525083608083015260c060a0830152612ad860c0830184612a40565b98975050505050505050565b838152606060208201526000612afd6060830185612a40565b9050826040830152949350505050565b60006001600160a01b03808a1683528089166020840152808816604084015280871660608401525084608083015260c060a0830152612b5060c0830184866128fa565b9998505050505050505050565b60008219821115612b7057612b70612969565b500190565b6001600160a01b0385168152836020820152606060408201526000612b9e6060830184866128fa565b9695505050505050565b60007fffffffffffffffffffffffffffffffffffffffffffffffffffffffffffffffff821415612bda57612bda612969565b5060010190565b600082612c17577f4e487b7100000000000000000000000000000000000000000000000000000000600052601260045260246000fd5b500490565b600060ff821660ff84168060ff03821115612c3957612c39612969565b019392505050565b7f4e487b7100000000000000000000000000000000000000000000000000000000600052603260045260246000fd5b8481526001600160a01b0384166020820152608060408201526000612c986080830185612a40565b905063ffffffff8316606083015295945050505050565b600060208284031215612cc157600080fd5b815180151581146120ef57600080fdfea26469706673582212208f81963409ccb3b3d39ed6098aa70b0ef79c576dfec2be3c84aed20777ee1b4f64736f6c63430008090033",
  "devdoc": {
    "details": "The L1 ETH and ERC20 Bridge is a contract which stores deposited L1 funds and standard tokens that are in use on L2. It synchronizes a corresponding L2 Bridge, informing it of deposits and listening to it for newly finalized withdrawals. Runtime target: EVM",
    "kind": "dev",
    "methods": {
      "depositERC20(address,address,uint256,uint32,bytes)": {
        "details": "deposit an amount of the ERC20 to the caller's balance on L2.",
        "params": {
          "_amount": "Amount of the ERC20 to deposit",
          "_data": "Optional data to forward to L2. This data is provided        solely as a convenience for external contracts. Aside from enforcing a maximum        length, these contracts provide no guarantees about its content.",
          "_l1Token": "Address of the L1 ERC20 we are depositing",
          "_l2Gas": "Gas limit required to complete the deposit on L2.",
          "_l2Token": "Address of the L1 respective L2 ERC20"
        }
      },
      "depositERC20ByChainId(uint256,address,address,uint256,uint32,bytes)": {
        "details": "deposit an amount of the ERC20 to the caller's balance on L2.",
        "params": {
          "_amount": "Amount of the ERC20 to deposit",
          "_chainid": "chainid",
          "_data": "Optional data to forward to L2. This data is provided        solely as a convenience for external contracts. Aside from enforcing a maximum        length, these contracts provide no guarantees about its content.",
          "_l1Token": "Address of the L1 ERC20 we are depositing",
          "_l2Gas": "Gas limit required to complete the deposit on L2.",
          "_l2Token": "Address of the L1 respective L2 ERC20"
        }
      },
      "depositERC20To(address,address,address,uint256,uint32,bytes)": {
        "details": "deposit an amount of ERC20 to a recipient's balance on L2.",
        "params": {
          "_amount": "Amount of the ERC20 to deposit.",
          "_data": "Optional data to forward to L2. This data is provided        solely as a convenience for external contracts. Aside from enforcing a maximum        length, these contracts provide no guarantees about its content.",
          "_l1Token": "Address of the L1 ERC20 we are depositing",
          "_l2Gas": "Gas limit required to complete the deposit on L2.",
          "_l2Token": "Address of the L1 respective L2 ERC20",
          "_to": "L2 address to credit the withdrawal to."
        }
      },
      "depositERC20ToByChainId(uint256,address,address,address,uint256,uint32,bytes)": {
        "details": "deposit an amount of ERC20 to a recipient's balance on L2.",
        "params": {
          "_amount": "Amount of the ERC20 to deposit.",
          "_chainid": "chainid",
          "_data": "Optional data to forward to L2. This data is provided        solely as a convenience for external contracts. Aside from enforcing a maximum        length, these contracts provide no guarantees about its content.",
          "_l1Token": "Address of the L1 ERC20 we are depositing",
          "_l2Gas": "Gas limit required to complete the deposit on L2.",
          "_l2Token": "Address of the L1 respective L2 ERC20",
          "_to": "L2 address to credit the withdrawal to."
        }
      },
      "depositETH(uint32,bytes)": {
        "details": "Deposit an amount of the ETH to the caller's balance on L2.",
        "params": {
          "_data": "Optional data to forward to L2. This data is provided        solely as a convenience for external contracts. Aside from enforcing a maximum        length, these contracts provide no guarantees about its content.",
          "_l2Gas": "Gas limit required to complete the deposit on L2."
        }
      },
      "depositETHTo(address,uint32,bytes)": {
        "details": "Deposit an amount of ETH to a recipient's balance on L2.",
        "params": {
          "_data": "Optional data to forward to L2. This data is provided        solely as a convenience for external contracts. Aside from enforcing a maximum        length, these contracts provide no guarantees about its content.",
          "_l2Gas": "Gas limit required to complete the deposit on L2.",
          "_to": "L2 address to credit the withdrawal to."
        }
      },
      "donateETH()": {
        "details": "Adds ETH balance to the account. This is meant to allow for ETH to be migrated from an old gateway to a new gateway. NOTE: This is left for one upgrade only so we are able to receive the migrated ETH from the old contract"
      },
      "finalizeERC20Withdrawal(address,address,address,address,uint256,bytes)": {
        "details": "Complete a withdrawal from L2 to L1, and credit funds to the recipient's balance of the L1 ERC20 token. This call will fail if the initialized withdrawal from L2 has not been finalized.",
        "params": {
          "_amount": "Amount of the ERC20 to deposit.",
          "_data": "Data provided by the sender on L2. This data is provided   solely as a convenience for external contracts. Aside from enforcing a maximum   length, these contracts provide no guarantees about its content.",
          "_from": "L2 address initiating the transfer.",
          "_l1Token": "Address of L1 token to finalizeWithdrawal for.",
          "_l2Token": "Address of L2 token where withdrawal was initiated.",
          "_to": "L1 address to credit the withdrawal to."
        }
      },
      "finalizeERC20WithdrawalByChainId(uint256,address,address,address,address,uint256,bytes)": {
        "details": "Complete a withdrawal from L2 to L1, and credit funds to the recipient's balance of the L1 ERC20 token. This call will fail if the initialized withdrawal from L2 has not been finalized.",
        "params": {
          "_amount": "Amount of the ERC20 to deposit.",
          "_chainid": "chainid",
          "_data": "Data provided by the sender on L2. This data is provided   solely as a convenience for external contracts. Aside from enforcing a maximum   length, these contracts provide no guarantees about its content.",
          "_from": "L2 address initiating the transfer.",
          "_l1Token": "Address of L1 token to finalizeWithdrawal for.",
          "_l2Token": "Address of L2 token where withdrawal was initiated.",
          "_to": "L1 address to credit the withdrawal to."
        }
      },
      "finalizeETHWithdrawal(address,address,uint256,bytes)": {
        "details": "Complete a withdrawal from L2 to L1, and credit funds to the recipient's balance of the L1 ETH token. Since only the xDomainMessenger can call this function, it will never be called before the withdrawal is finalized.",
        "params": {
          "_amount": "Amount of the ERC20 to deposit.",
          "_data": "Optional data to forward to L2. This data is provided        solely as a convenience for external contracts. Aside from enforcing a maximum        length, these contracts provide no guarantees about its content.",
          "_from": "L2 address initiating the transfer.",
          "_to": "L1 address to credit the withdrawal to."
        }
      },
      "finalizeMetisWithdrawalByChainId(uint256,address,address,uint256,bytes)": {
        "details": "Complete a withdrawal from L2 to L1, and credit funds to the recipient's balance of the L1 ERC20 token. This call will fail if the initialized withdrawal from L2 has not been finalized.",
        "params": {
          "_amount": "Amount of the ERC20 to deposit.",
          "_chainid": "chainid",
          "_data": "Data provided by the sender on L2. This data is provided   solely as a convenience for external contracts. Aside from enforcing a maximum   length, these contracts provide no guarantees about its content.",
          "_from": "L2 address initiating the transfer.",
          "_to": "L1 address to credit the withdrawal to."
        }
      },
      "initialize(address,address,address,address)": {
        "params": {
          "_l1messenger": "L1 Messenger address being used for cross-chain communications.",
          "_l2TokenBridge": "L2 standard bridge address."
        }
      }
    },
    "stateVariables": {
      "l2TokenBridge": {
        "details": "get the address of the corresponding L2 bridge contract.",
        "return": "Address of the corresponding L2 bridge contract.",
        "returns": {
          "_0": "Address of the corresponding L2 bridge contract."
        }
      }
    },
    "title": "L1StandardBridge",
    "version": 1
  },
  "userdoc": {
    "kind": "user",
    "methods": {},
    "version": 1
  },
  "storageLayout": {
    "storage": [
      {
        "astId": 13398,
        "contract": "contracts/L1/messaging/L1StandardBridge.sol:L1StandardBridge",
        "label": "messenger",
        "offset": 0,
        "slot": "0",
        "type": "t_address"
      },
      {
        "astId": 3220,
        "contract": "contracts/L1/messaging/L1StandardBridge.sol:L1StandardBridge",
        "label": "l2TokenBridge",
        "offset": 0,
        "slot": "1",
        "type": "t_address"
      },
      {
        "astId": 3222,
        "contract": "contracts/L1/messaging/L1StandardBridge.sol:L1StandardBridge",
        "label": "metis",
        "offset": 0,
        "slot": "2",
        "type": "t_address"
      },
      {
        "astId": 3224,
        "contract": "contracts/L1/messaging/L1StandardBridge.sol:L1StandardBridge",
        "label": "addressmgr",
        "offset": 0,
        "slot": "3",
        "type": "t_address"
      },
      {
        "astId": 3232,
        "contract": "contracts/L1/messaging/L1StandardBridge.sol:L1StandardBridge",
        "label": "deposits",
        "offset": 0,
        "slot": "4",
        "type": "t_mapping(t_address,t_mapping(t_uint256,t_mapping(t_address,t_uint256)))"
      }
    ],
    "types": {
      "t_address": {
        "encoding": "inplace",
        "label": "address",
        "numberOfBytes": "20"
      },
      "t_mapping(t_address,t_mapping(t_uint256,t_mapping(t_address,t_uint256)))": {
        "encoding": "mapping",
        "key": "t_address",
        "label": "mapping(address => mapping(uint256 => mapping(address => uint256)))",
        "numberOfBytes": "32",
        "value": "t_mapping(t_uint256,t_mapping(t_address,t_uint256))"
      },
      "t_mapping(t_address,t_uint256)": {
        "encoding": "mapping",
        "key": "t_address",
        "label": "mapping(address => uint256)",
        "numberOfBytes": "32",
        "value": "t_uint256"
      },
      "t_mapping(t_uint256,t_mapping(t_address,t_uint256))": {
        "encoding": "mapping",
        "key": "t_uint256",
        "label": "mapping(uint256 => mapping(address => uint256))",
        "numberOfBytes": "32",
        "value": "t_mapping(t_address,t_uint256)"
      },
      "t_uint256": {
        "encoding": "inplace",
        "label": "uint256",
        "numberOfBytes": "32"
      }
    }
  }
}