{
  "address": "0x9E2E3be85df5Ca63DE7674BA64ffD564075f3B48",
  "abi": [
    {
      "inputs": [],
      "stateMutability": "nonpayable",
      "type": "constructor"
    },
    {
      "anonymous": false,
      "inputs": [
        {
          "indexed": false,
          "internalType": "uint256",
          "name": "chainid",
          "type": "uint256"
        },
        {
          "indexed": false,
          "internalType": "bytes",
          "name": "configs",
          "type": "bytes"
        }
      ],
      "name": "PushConfig",
      "type": "event"
    },
    {
      "anonymous": false,
      "inputs": [
        {
          "indexed": false,
          "internalType": "uint256",
          "name": "chainid",
          "type": "uint256"
        },
        {
          "indexed": false,
          "internalType": "address",
          "name": "wallet",
          "type": "address"
        },
        {
          "indexed": false,
          "internalType": "address",
          "name": "manager",
          "type": "address"
        }
      ],
      "name": "SwitchSeq",
      "type": "event"
    },
    {
      "inputs": [],
      "name": "CONFIG_OWNER_KEY",
      "outputs": [
        {
          "internalType": "string",
          "name": "",
          "type": "string"
        }
      ],
      "stateMutability": "view",
      "type": "function"
    },
    {
      "inputs": [],
      "name": "addressmgr",
      "outputs": [
        {
          "internalType": "address",
          "name": "",
          "type": "address"
        }
      ],
      "stateMutability": "view",
      "type": "function"
    },
    {
      "inputs": [],
      "name": "messenger",
      "outputs": [
        {
          "internalType": "address",
          "name": "",
          "type": "address"
        }
      ],
      "stateMutability": "view",
      "type": "function"
    },
    {
      "inputs": [
        {
          "internalType": "uint256",
          "name": "_chainId",
          "type": "uint256"
        },
        {
          "internalType": "bytes",
          "name": "_configs",
          "type": "bytes"
        }
      ],
      "name": "pushConfig",
      "outputs": [],
      "stateMutability": "payable",
      "type": "function"
    },
    {
      "inputs": [
        {
          "internalType": "uint256",
          "name": "_chainId",
          "type": "uint256"
        },
        {
          "internalType": "address",
          "name": "wallet",
          "type": "address"
        },
        {
          "internalType": "address",
          "name": "manager",
          "type": "address"
        }
      ],
      "name": "switchSequencer",
      "outputs": [],
      "stateMutability": "payable",
      "type": "function"
    }
  ],
  "transactionHash": "0xfa5bf4196c495552023550bdc520fa731355d4a0b0814bab7d19a02b08ee2859",
  "args": [],
  "solcInputHash": "aad23d34300e438238a0739b0c367631",
  "bytecode": "0x608060405234801561001057600080fd5b50600080546001600160a01b0319169055610841806100306000396000f3fe60806040526004361061005a5760003560e01c80633cb747bf116100435780633cb747bf146100cb5780635a8477b6146100f8578063669fdeb51461010b57600080fd5b8063153928f41461005f5780631b71775a146100b6575b600080fd5b34801561006b57600080fd5b5060015461008c9073ffffffffffffffffffffffffffffffffffffffff1681565b60405173ffffffffffffffffffffffffffffffffffffffff90911681526020015b60405180910390f35b6100c96100c43660046105d7565b610161565b005b3480156100d757600080fd5b5060005461008c9073ffffffffffffffffffffffffffffffffffffffff1681565b6100c9610106366004610619565b610427565b34801561011757600080fd5b506101546040518060400160405280600d81526020017f4d455449535f4d414e414745520000000000000000000000000000000000000081525081565b6040516100ad9190610700565b600154604080518082018252600d81527f4d455449535f4d414e4147455200000000000000000000000000000000000000602082015290517fbf40fac100000000000000000000000000000000000000000000000000000000815273ffffffffffffffffffffffffffffffffffffffff9092169163bf40fac1916101e791600401610700565b60206040518083038186803b1580156101ff57600080fd5b505afa158015610213573d6000803e3d6000fd5b505050506040513d601f19601f82011682018060405250810190610237919061071a565b73ffffffffffffffffffffffffffffffffffffffff163373ffffffffffffffffffffffffffffffffffffffff161461031b576040517f08c379a000000000000000000000000000000000000000000000000000000000815260206004820152604960248201527f4d564d5f4c32436861696e4d616e616765724f6e4c313a2046756e6374696f6e60448201527f2063616e206f6e6c792062652063616c6c656420627920746865204d4554495360648201527f5f4d414e414745522e0000000000000000000000000000000000000000000000608482015260a40160405180910390fd5b6040805173ffffffffffffffffffffffffffffffffffffffff848116602483015283166044808301919091528251808303909101815260649091019091526020810180517bffffffffffffffffffffffffffffffffffffffffffffffffffffffff167f82692954000000000000000000000000000000000000000000000000000000001790526103c684734200000000000000000000000000000000000011633b9aca00843461051b565b6040805185815273ffffffffffffffffffffffffffffffffffffffff80861660208301528416918101919091527fce1ce68ea1c1f9b0761cc6810eba4dbeccc95e25d56c24e0e953e4c30b1c4c6d906060015b60405180910390a150505050565b600063892d8d5e60e01b8383604051602401610444929190610780565b604080517fffffffffffffffffffffffffffffffffffffffffffffffffffffffffffffffe08184030181529190526020810180517bffffffffffffffffffffffffffffffffffffffffffffffffffffffff167fffffffff000000000000000000000000000000000000000000000000000000009093169290921790915290506104e884734200000000000000000000000000000000000011633b9aca00843461051b565b7fb7ff3a8319c740dc1d27bfe78867ae1a0aa349dcaa81d9c9a6b05100983e7d6d8484846040516104199392919061079c565b6000546040517f44dd5ed600000000000000000000000000000000000000000000000000000000815273ffffffffffffffffffffffffffffffffffffffff909116906344dd5ed6908390610579908990899088908a906004016107bf565b6000604051808303818588803b15801561059257600080fd5b505af11580156105a6573d6000803e3d6000fd5b50505050505050505050565b73ffffffffffffffffffffffffffffffffffffffff811681146105d457600080fd5b50565b6000806000606084860312156105ec57600080fd5b8335925060208401356105fe816105b2565b9150604084013561060e816105b2565b809150509250925092565b60008060006040848603121561062e57600080fd5b83359250602084013567ffffffffffffffff8082111561064d57600080fd5b818601915086601f83011261066157600080fd5b81358181111561067057600080fd5b87602082850101111561068257600080fd5b6020830194508093505050509250925092565b6000815180845260005b818110156106bb5760208185018101518683018201520161069f565b818111156106cd576000602083870101525b50601f017fffffffffffffffffffffffffffffffffffffffffffffffffffffffffffffffe0169290920160200192915050565b6020815260006107136020830184610695565b9392505050565b60006020828403121561072c57600080fd5b8151610713816105b2565b8183528181602085013750600060208284010152600060207fffffffffffffffffffffffffffffffffffffffffffffffffffffffffffffffe0601f840116840101905092915050565b602081526000610794602083018486610737565b949350505050565b8381526040602082015260006107b6604083018486610737565b95945050505050565b84815273ffffffffffffffffffffffffffffffffffffffff841660208201526080604082015260006107f46080830185610695565b905063ffffffff831660608301529594505050505056fea26469706673582212206aa9ca441be134953f22d5125c73fa39cbf7a3c6f183d7cb6d0df5480e7f67fc64736f6c63430008090033",
  "devdoc": {
    "details": "if want support multi l2 chain on l1,it should add a manager to desc  how many l2 chain now ,and dispatch the l2 chain id to make it is unique. Compiler used: solc Runtime target: EVM",
    "kind": "dev",
    "methods": {},
    "title": "MVM_L2ChainManagerOnL1",
    "version": 1
  },
  "userdoc": {
    "kind": "user",
    "methods": {},
    "version": 1
  },
  "storageLayout": {
    "storage": [
      {
        "astId": 13398,
        "contract": "contracts/MVM/MVM_L2ChainManagerOnL1.sol:MVM_L2ChainManagerOnL1",
        "label": "messenger",
        "offset": 0,
        "slot": "0",
        "type": "t_address"
      },
      {
        "astId": 11256,
        "contract": "contracts/MVM/MVM_L2ChainManagerOnL1.sol:MVM_L2ChainManagerOnL1",
        "label": "addressmgr",
        "offset": 0,
        "slot": "1",
        "type": "t_address"
      },
      {
        "astId": 11260,
        "contract": "contracts/MVM/MVM_L2ChainManagerOnL1.sol:MVM_L2ChainManagerOnL1",
        "label": "squencers",
        "offset": 0,
        "slot": "2",
        "type": "t_mapping(t_uint256,t_address)"
      },
      {
        "astId": 11264,
        "contract": "contracts/MVM/MVM_L2ChainManagerOnL1.sol:MVM_L2ChainManagerOnL1",
        "label": "configs",
        "offset": 0,
        "slot": "3",
        "type": "t_mapping(t_uint256,t_bytes_storage)"
      }
    ],
    "types": {
      "t_address": {
        "encoding": "inplace",
        "label": "address",
        "numberOfBytes": "20"
      },
      "t_bytes_storage": {
        "encoding": "bytes",
        "label": "bytes",
        "numberOfBytes": "32"
      },
      "t_mapping(t_uint256,t_address)": {
        "encoding": "mapping",
        "key": "t_uint256",
        "label": "mapping(uint256 => address)",
        "numberOfBytes": "32",
        "value": "t_address"
      },
      "t_mapping(t_uint256,t_bytes_storage)": {
        "encoding": "mapping",
        "key": "t_uint256",
        "label": "mapping(uint256 => bytes)",
        "numberOfBytes": "32",
        "value": "t_bytes_storage"
      },
      "t_uint256": {
        "encoding": "inplace",
        "label": "uint256",
        "numberOfBytes": "32"
      }
    }
  }
}