{
  "address": "0x9Ed4739afd706122591E75F215208ecF522C0Fd3",
  "abi": [
    {
      "inputs": [
        {
          "internalType": "address",
          "name": "_addressManager",
          "type": "address"
        },
        {
          "internalType": "address",
          "name": "_metis",
          "type": "address"
        }
      ],
      "stateMutability": "nonpayable",
      "type": "constructor"
    },
    {
      "anonymous": false,
      "inputs": [
        {
          "indexed": false,
          "internalType": "address",
          "name": "sender",
          "type": "address"
        },
        {
          "indexed": false,
          "internalType": "uint256",
          "name": "amount",
          "type": "uint256"
        }
      ],
      "name": "Claim",
      "type": "event"
    },
    {
      "anonymous": false,
      "inputs": [
        {
          "indexed": false,
          "internalType": "uint256",
          "name": "cIndex",
          "type": "uint256"
        },
        {
          "indexed": false,
          "internalType": "address",
          "name": "sender",
          "type": "address"
        },
        {
          "indexed": false,
          "internalType": "enum MVM_Verifier.SETTLEMENT",
          "name": "result",
          "type": "uint8"
        }
      ],
      "name": "Finalize",
      "type": "event"
    },
    {
      "anonymous": false,
      "inputs": [
        {
          "indexed": false,
          "internalType": "uint256",
          "name": "cIndex",
          "type": "uint256"
        },
        {
          "indexed": false,
          "internalType": "uint256",
          "name": "chainID",
          "type": "uint256"
        },
        {
          "components": [
            {
              "internalType": "uint256",
              "name": "batchIndex",
              "type": "uint256"
            },
            {
              "internalType": "bytes32",
              "name": "batchRoot",
              "type": "bytes32"
            },
            {
              "internalType": "uint256",
              "name": "batchSize",
              "type": "uint256"
            },
            {
              "internalType": "uint256",
              "name": "prevTotalElements",
              "type": "uint256"
            },
            {
              "internalType": "bytes",
              "name": "extraData",
              "type": "bytes"
            }
          ],
          "indexed": false,
          "internalType": "struct Lib_OVMCodec.ChainBatchHeader",
          "name": "header",
          "type": "tuple"
        },
        {
          "indexed": false,
          "internalType": "uint256",
          "name": "timestamp",
          "type": "uint256"
        }
      ],
      "name": "NewChallenge",
      "type": "event"
    },
    {
      "anonymous": false,
      "inputs": [
        {
          "indexed": false,
          "internalType": "address",
          "name": "sender",
          "type": "address"
        },
        {
          "indexed": false,
          "internalType": "uint256",
          "name": "stakeLost",
          "type": "uint256"
        }
      ],
      "name": "Penalize",
      "type": "event"
    },
    {
      "anonymous": false,
      "inputs": [
        {
          "indexed": false,
          "internalType": "address",
          "name": "target",
          "type": "address"
        },
        {
          "indexed": false,
          "internalType": "uint256",
          "name": "amount",
          "type": "uint256"
        }
      ],
      "name": "Reward",
      "type": "event"
    },
    {
      "anonymous": false,
      "inputs": [
        {
          "indexed": false,
          "internalType": "uint256",
          "name": "chainID",
          "type": "uint256"
        },
        {
          "indexed": false,
          "internalType": "address",
          "name": "seq",
          "type": "address"
        }
      ],
      "name": "SlashSequencer",
      "type": "event"
    },
    {
      "anonymous": false,
      "inputs": [
        {
          "indexed": false,
          "internalType": "address",
          "name": "verifier",
          "type": "address"
        },
        {
          "indexed": false,
          "internalType": "uint256",
          "name": "amount",
          "type": "uint256"
        }
      ],
      "name": "Stake",
      "type": "event"
    },
    {
      "anonymous": false,
      "inputs": [
        {
          "indexed": false,
          "internalType": "uint256",
          "name": "cIndex",
          "type": "uint256"
        },
        {
          "indexed": false,
          "internalType": "address",
          "name": "verifier",
          "type": "address"
        }
      ],
      "name": "Verify1",
      "type": "event"
    },
    {
      "anonymous": false,
      "inputs": [
        {
          "indexed": false,
          "internalType": "uint256",
          "name": "cIndex",
          "type": "uint256"
        },
        {
          "indexed": false,
          "internalType": "address",
          "name": "verifier",
          "type": "address"
        }
      ],
      "name": "Verify2",
      "type": "event"
    },
    {
      "anonymous": false,
      "inputs": [
        {
          "indexed": false,
          "internalType": "address",
          "name": "sender",
          "type": "address"
        },
        {
          "indexed": false,
          "internalType": "uint256",
          "name": "amount",
          "type": "uint256"
        }
      ],
      "name": "Withdraw",
      "type": "event"
    },
    {
      "inputs": [],
      "name": "CONFIG_OWNER_KEY",
      "outputs": [
        {
          "internalType": "string",
          "name": "",
          "type": "string"
        }
      ],
      "stateMutability": "view",
      "type": "function"
    },
    {
      "inputs": [
        {
          "internalType": "address",
          "name": "",
          "type": "address"
        }
      ],
      "name": "absence_strikes",
      "outputs": [
        {
          "internalType": "uint8",
          "name": "",
          "type": "uint8"
        }
      ],
      "stateMutability": "view",
      "type": "function"
    },
    {
      "inputs": [],
      "name": "activeChallenges",
      "outputs": [
        {
          "internalType": "uint256",
          "name": "",
          "type": "uint256"
        }
      ],
      "stateMutability": "view",
      "type": "function"
    },
    {
      "inputs": [
        {
          "internalType": "uint256",
          "name": "",
          "type": "uint256"
        }
      ],
      "name": "chain_under_challenge",
      "outputs": [
        {
          "internalType": "uint256",
          "name": "",
          "type": "uint256"
        }
      ],
      "stateMutability": "view",
      "type": "function"
    },
    {
      "inputs": [
        {
          "internalType": "uint256",
          "name": "",
          "type": "uint256"
        }
      ],
      "name": "challenges",
      "outputs": [
        {
          "internalType": "address",
          "name": "challenger",
          "type": "address"
        },
        {
          "internalType": "uint256",
          "name": "chainID",
          "type": "uint256"
        },
        {
          "internalType": "uint256",
          "name": "index",
          "type": "uint256"
        },
        {
          "components": [
            {
              "internalType": "uint256",
              "name": "batchIndex",
              "type": "uint256"
            },
            {
              "internalType": "bytes32",
              "name": "batchRoot",
              "type": "bytes32"
            },
            {
              "internalType": "uint256",
              "name": "batchSize",
              "type": "uint256"
            },
            {
              "internalType": "uint256",
              "name": "prevTotalElements",
              "type": "uint256"
            },
            {
              "internalType": "bytes",
              "name": "extraData",
              "type": "bytes"
            }
          ],
          "internalType": "struct Lib_OVMCodec.ChainBatchHeader",
          "name": "header",
          "type": "tuple"
        },
        {
          "internalType": "uint256",
          "name": "timestamp",
          "type": "uint256"
        },
        {
          "internalType": "uint256",
          "name": "numQualifiedVerifiers",
          "type": "uint256"
        },
        {
          "internalType": "uint256",
          "name": "numVerifiers",
          "type": "uint256"
        },
        {
          "internalType": "bool",
          "name": "done",
          "type": "bool"
        }
      ],
      "stateMutability": "view",
      "type": "function"
    },
    {
      "inputs": [],
      "name": "claim",
      "outputs": [],
      "stateMutability": "nonpayable",
      "type": "function"
    },
    {
      "inputs": [
        {
          "internalType": "address",
          "name": "",
          "type": "address"
        }
      ],
      "name": "consensus_strikes",
      "outputs": [
        {
          "internalType": "uint8",
          "name": "",
          "type": "uint8"
        }
      ],
      "stateMutability": "view",
      "type": "function"
    },
    {
      "inputs": [
        {
          "internalType": "uint256",
          "name": "amount",
          "type": "uint256"
        }
      ],
      "name": "depositSeqStake",
      "outputs": [],
      "stateMutability": "nonpayable",
      "type": "function"
    },
    {
      "inputs": [],
      "name": "disableWhiteList",
      "outputs": [],
      "stateMutability": "nonpayable",
      "type": "function"
    },
    {
      "inputs": [
        {
          "internalType": "bytes",
          "name": "data",
          "type": "bytes"
        },
        {
          "internalType": "bytes",
          "name": "key",
          "type": "bytes"
        }
      ],
      "name": "encrypt",
      "outputs": [
        {
          "internalType": "bytes",
          "name": "",
          "type": "bytes"
        }
      ],
      "stateMutability": "pure",
      "type": "function"
    },
    {
      "inputs": [
        {
          "internalType": "address",
          "name": "target",
          "type": "address"
        }
      ],
      "name": "isSufficientlyStaked",
      "outputs": [
        {
          "internalType": "bool",
          "name": "",
          "type": "bool"
        }
      ],
      "stateMutability": "view",
      "type": "function"
    },
    {
      "inputs": [
        {
          "internalType": "address",
          "name": "verifier",
          "type": "address"
        }
      ],
      "name": "isWhiteListed",
      "outputs": [
        {
          "internalType": "bool",
          "name": "",
          "type": "bool"
        }
      ],
      "stateMutability": "view",
      "type": "function"
    },
    {
      "inputs": [],
      "name": "libAddressManager",
      "outputs": [
        {
          "internalType": "contract Lib_AddressManager",
          "name": "",
          "type": "address"
        }
      ],
      "stateMutability": "view",
      "type": "function"
    },
    {
      "inputs": [],
      "name": "metis",
      "outputs": [
        {
          "internalType": "address",
          "name": "",
          "type": "address"
        }
      ],
      "stateMutability": "view",
      "type": "function"
    },
    {
      "inputs": [],
      "name": "minStake",
      "outputs": [
        {
          "internalType": "uint256",
          "name": "",
          "type": "uint256"
        }
      ],
      "stateMutability": "view",
      "type": "function"
    },
    {
      "inputs": [
        {
          "internalType": "uint256",
          "name": "chainID",
          "type": "uint256"
        },
        {
          "components": [
            {
              "internalType": "uint256",
              "name": "batchIndex",
              "type": "uint256"
            },
            {
              "internalType": "bytes32",
              "name": "batchRoot",
              "type": "bytes32"
            },
            {
              "internalType": "uint256",
              "name": "batchSize",
              "type": "uint256"
            },
            {
              "internalType": "uint256",
              "name": "prevTotalElements",
              "type": "uint256"
            },
            {
              "internalType": "bytes",
              "name": "extraData",
              "type": "bytes"
            }
          ],
          "internalType": "struct Lib_OVMCodec.ChainBatchHeader",
          "name": "header",
          "type": "tuple"
        },
        {
          "internalType": "bytes",
          "name": "proposedHash",
          "type": "bytes"
        },
        {
          "internalType": "bytes",
          "name": "keyhash",
          "type": "bytes"
        }
      ],
      "name": "newChallenge",
      "outputs": [],
      "stateMutability": "nonpayable",
      "type": "function"
    },
    {
      "inputs": [],
      "name": "numQualifiedVerifiers",
      "outputs": [
        {
          "internalType": "uint256",
          "name": "",
          "type": "uint256"
        }
      ],
      "stateMutability": "view",
      "type": "function"
    },
    {
      "inputs": [
        {
          "internalType": "uint256",
          "name": "num",
          "type": "uint256"
        }
      ],
      "name": "resetNumVerifiers",
      "outputs": [],
      "stateMutability": "nonpayable",
      "type": "function"
    },
    {
      "inputs": [
        {
          "internalType": "string",
          "name": "_name",
          "type": "string"
        }
      ],
      "name": "resolve",
      "outputs": [
        {
          "internalType": "address",
          "name": "",
          "type": "address"
        }
      ],
      "stateMutability": "view",
      "type": "function"
    },
    {
      "inputs": [
        {
          "internalType": "address",
          "name": "",
          "type": "address"
        }
      ],
      "name": "rewards",
      "outputs": [
        {
          "internalType": "uint256",
          "name": "",
          "type": "uint256"
        }
      ],
      "stateMutability": "view",
      "type": "function"
    },
    {
      "inputs": [],
      "name": "seqStake",
      "outputs": [
        {
          "internalType": "uint256",
          "name": "",
          "type": "uint256"
        }
      ],
      "stateMutability": "view",
      "type": "function"
    },
    {
      "inputs": [
        {
          "internalType": "uint256",
          "name": "_minStake",
          "type": "uint256"
        }
      ],
      "name": "setMinStake",
      "outputs": [],
      "stateMutability": "nonpayable",
      "type": "function"
    },
    {
      "inputs": [
        {
          "internalType": "uint256",
          "name": "absence_threshold",
          "type": "uint256"
        },
        {
          "internalType": "uint256",
          "name": "fail_threshold",
          "type": "uint256"
        }
      ],
      "name": "setThreshold",
      "outputs": [],
      "stateMutability": "nonpayable",
      "type": "function"
    },
    {
      "inputs": [
        {
          "internalType": "uint256",
          "name": "window",
          "type": "uint256"
        }
      ],
      "name": "setVerifyWindow",
      "outputs": [],
      "stateMutability": "nonpayable",
      "type": "function"
    },
    {
      "inputs": [
        {
          "internalType": "address",
          "name": "verifier",
          "type": "address"
        },
        {
          "internalType": "bool",
          "name": "allowed",
          "type": "bool"
        }
      ],
      "name": "setWhiteList",
      "outputs": [],
      "stateMutability": "nonpayable",
      "type": "function"
    },
    {
      "inputs": [
        {
          "internalType": "uint256",
          "name": "stake",
          "type": "uint256"
        }
      ],
      "name": "verifierStake",
      "outputs": [],
      "stateMutability": "nonpayable",
      "type": "function"
    },
    {
      "inputs": [
        {
          "internalType": "address",
          "name": "",
          "type": "address"
        }
      ],
      "name": "verifier_stakes",
      "outputs": [
        {
          "internalType": "uint256",
          "name": "",
          "type": "uint256"
        }
      ],
      "stateMutability": "view",
      "type": "function"
    },
    {
      "inputs": [
        {
          "internalType": "uint256",
          "name": "",
          "type": "uint256"
        }
      ],
      "name": "verifiers",
      "outputs": [
        {
          "internalType": "address",
          "name": "",
          "type": "address"
        }
      ],
      "stateMutability": "view",
      "type": "function"
    },
    {
      "inputs": [
        {
          "internalType": "uint256",
          "name": "cIndex",
          "type": "uint256"
        },
        {
          "internalType": "bytes",
          "name": "hash",
          "type": "bytes"
        },
        {
          "internalType": "bytes",
          "name": "keyhash",
          "type": "bytes"
        }
      ],
      "name": "verify1",
      "outputs": [],
      "stateMutability": "nonpayable",
      "type": "function"
    },
    {
      "inputs": [
        {
          "internalType": "uint256",
          "name": "cIndex",
          "type": "uint256"
        },
        {
          "internalType": "bytes",
          "name": "key",
          "type": "bytes"
        }
      ],
      "name": "verify2",
      "outputs": [],
      "stateMutability": "nonpayable",
      "type": "function"
    },
    {
      "inputs": [],
      "name": "verifyWindow",
      "outputs": [
        {
          "internalType": "uint256",
          "name": "",
          "type": "uint256"
        }
      ],
      "stateMutability": "view",
      "type": "function"
    },
    {
      "inputs": [
        {
          "internalType": "address",
          "name": "",
          "type": "address"
        }
      ],
      "name": "whitelist",
      "outputs": [
        {
          "internalType": "bool",
          "name": "",
          "type": "bool"
        }
      ],
      "stateMutability": "view",
      "type": "function"
    },
    {
      "inputs": [
        {
          "internalType": "uint256",
          "name": "amount",
          "type": "uint256"
        }
      ],
      "name": "withdraw",
      "outputs": [],
      "stateMutability": "nonpayable",
      "type": "function"
    },
    {
      "inputs": [
        {
          "internalType": "address",
          "name": "to",
          "type": "address"
        }
      ],
      "name": "withdrawSeqStake",
      "outputs": [],
      "stateMutability": "nonpayable",
      "type": "function"
    }
  ],
  "transactionHash": "0x5c8264e74f4194c952170afc1b166b352622ef3164608cdbd3e0cce35b751532",
  "args": [
    "0x918778e825747a892b17C66fe7D24C618262867d",
    "0x9E32b13ce7f2E80A01932B42553652E053D6ed8e"
  ],
  "solcInputHash": "e2bc069c0a5b7cb4f572deafc03fc730",
  "bytecode": "0x608060405262015180600d55600260135560046014553480156200002257600080fd5b5060405162004a1238038062004a128339810160408190526200004591620000ae565b600080546001600160a01b039384166001600160a01b031991821617909155680ad78ebc5ac6200000601055600f8054929093169116179055600a805460ff19166001179055620000e6565b80516001600160a01b0381168114620000a957600080fd5b919050565b60008060408385031215620000c257600080fd5b620000cd8362000091565b9150620000dd6020840162000091565b90509250929050565b61491c80620000f66000396000f3fe608060405234801561001057600080fd5b50600436106102265760003560e01c80638c80fd901161012a578063b646c025116100bd578063e59745541161008c578063ef53b04111610071578063ef53b0411461053e578063fca0fd6c14610551578063ffa444ec1461055a57600080fd5b8063e5974554146104fb578063eab0fca31461050e57600080fd5b8063b646c025146104c4578063b9c36209146104cd578063c7601f55146104e0578063dcd83616146104f357600080fd5b8063966df42b116100f9578063966df42b146104585780639b19251a1461047b578063ac1eff681461049e578063b4b6de38146104b157600080fd5b80638c80fd90146103f85780638d14e1271461040b5780638f1d37761461041e578063939f59fe1461044557600080fd5b8063461a4478116101bd5780635bf0f25d1161018c5780636593363f116101715780636593363f14610386578063669fdeb5146103995780636f9170f6146103d557600080fd5b80635bf0f25d146103535780635cc38c021461036657600080fd5b8063461a44781461031c5780634d4127af1461032f5780634e71d92d1461033857806353dec0e81461034057600080fd5b80632e1a7d4d116101f95780632e1a7d4d146102b6578063375b3c0a146102cb578063383e5e69146102d457806340a89eae146102e757600080fd5b8063015cfec71461022b5780630700037d1461025457806315b90cb214610282578063299ca4781461028b575b600080fd5b61023e610239366004613d8b565b61057a565b60405161024b9190613e62565b60405180910390f35b610274610262366004613e94565b60056020526000908152604090205481565b60405190815260200161024b565b61027460115481565b60005461029e906001600160a01b031681565b6040516001600160a01b03909116815260200161024b565b6102c96102c4366004613eb1565b610699565b005b61027460105481565b6102c96102e2366004613e94565b610896565b61030a6102f5366004613e94565b60066020526000908152604090205460ff1681565b60405160ff909116815260200161024b565b61029e61032a366004613fb6565b610adf565b61027460125481565b6102c9610b7f565b6102c961034e366004613eb1565b610d19565b6102c9610361366004613eb1565b610f21565b610274610374366004613eb1565b60086020526000908152604090205481565b6102c9610394366004614007565b611288565b61023e6040518060400160405280600d81526020017f4d455449535f4d414e414745520000000000000000000000000000000000000081525081565b6103e86103e3366004613e94565b611896565b604051901515815260200161024b565b6102c9610406366004613eb1565b6118c5565b6102c9610419366004614061565b611a05565b61043161042c366004613eb1565b611afe565b60405161024b98979695949392919061409a565b6102c9610453366004614130565b611c33565b61030a610466366004613e94565b60076020526000908152604090205460ff1681565b6103e8610489366004613e94565b60096020526000908152604090205460ff1681565b61029e6104ac366004613eb1565b611e68565b6102c96104bf3660046141aa565b611e92565b610274600e5481565b6102c96104db366004614250565b6124ac565b6102c96104ee366004613eb1565b61257b565b6102c9612644565b600f5461029e906001600160a01b031681565b6103e861051c366004613e94565b6010546001600160a01b03909116600090815260016020526040902054101590565b6102c961054c366004613eb1565b612714565b610274600d5481565b610274610568366004613e94565b60016020526000908152604090205481565b6060600085858080601f016020809104026020016040519081016040528093929190818152602001838380828437600092018290525093945083925050505b825181101561068d57818514156105cf57600091505b61062c8382815181106105e4576105e4614272565b01602001517fff000000000000000000000000000000000000000000000000000000000000001687878581811061061d5761061d614272565b919091013560f81c90506127dd565b83828151811061063e5761063e614272565b60200101907effffffffffffffffffffffffffffffffffffffffffffffffffffffffffffff1916908160001a90535081610677816142d0565b9250508080610685906142d0565b9150506105b9565b50909695505050505050565b600e54156106ee5760405162461bcd60e51b815260206004820181905260248201527f77697468647261772069732063757272656e746c792070726f6869626974656460448201526064015b60405180910390fd5b336000908152600160205260409020548181101561074e5760405162461bcd60e51b815260206004820152601e60248201527f696e73756666696369656e74207374616b6520746f207769746864726177000060448201526064016106e5565b60105461075b8383614309565b10801561076a57506010548110155b15610785576012805490600061077f83614320565b91905055505b33600090815260016020526040812080548492906107a4908490614309565b9091555050600f546040517fa9059cbb000000000000000000000000000000000000000000000000000000008152336004820152602481018490526001600160a01b039091169063a9059cbb90604401602060405180830381600087803b15801561080e57600080fd5b505af1158015610822573d6000803e3d6000fd5b505050506040513d601f19601f820116820180604052508101906108469190614355565b6108925760405162461bcd60e51b815260206004820152601560248201527f746f6b656e207472616e73666572206661696c6564000000000000000000000060448201526064016106e5565b5050565b6108d46040518060400160405280600d81526020017f4d455449535f4d414e4147455200000000000000000000000000000000000000815250610adf565b6001600160a01b0316336001600160a01b03161461095a5760405162461bcd60e51b815260206004820152603f60248201527f4d564d5f56657269666965723a2046756e6374696f6e2063616e206f6e6c792060448201527f62652063616c6c656420627920746865204d455449535f4d414e414745522e0060648201526084016106e5565b6000601154116109ac5760405162461bcd60e51b815260206004820152600860248201527f6e6f207374616b6500000000000000000000000000000000000000000000000060448201526064016106e5565b6011546040805133815260208101929092527f884edad9ce6fa2440d8a54cc123490eb96d2768479d49ff9c7366125a9424364910160405180910390a160118054600091829055600f546040517fa9059cbb0000000000000000000000000000000000000000000000000000000081526001600160a01b03858116600483015260248201949094529192169063a9059cbb90604401602060405180830381600087803b158015610a5b57600080fd5b505af1158015610a6f573d6000803e3d6000fd5b505050506040513d601f19601f82011682018060405250810190610a939190614355565b6108925760405162461bcd60e51b815260206004820152601560248201527f7472616e73666572206d65746973206661696c6564000000000000000000000060448201526064016106e5565b600080546040517fbf40fac10000000000000000000000000000000000000000000000000000000081526001600160a01b039091169063bf40fac190610b29908590600401613e62565b60206040518083038186803b158015610b4157600080fd5b505afa158015610b55573d6000803e3d6000fd5b505050506040513d601f19601f82011682018060405250810190610b799190614372565b92915050565b33600090815260056020526040902054610bdb5760405162461bcd60e51b815260206004820152601260248201527f6e6f2072657761726420746f20636c61696d000000000000000000000000000060448201526064016106e5565b336000818152600560205260408082208054929055600f5490517fa9059cbb00000000000000000000000000000000000000000000000000000000815260048101939093526024830182905290916001600160a01b039091169063a9059cbb90604401602060405180830381600087803b158015610c5857600080fd5b505af1158015610c6c573d6000803e3d6000fd5b505050506040513d601f19601f82011682018060405250810190610c909190614355565b610cdc5760405162461bcd60e51b815260206004820152601560248201527f746f6b656e207472616e73666572206661696c6564000000000000000000000060448201526064016106e5565b60408051338152602081018390527f47cee97cb7acd717b3c0aa1435d004cd5b3c8c57d70dbceb4e4458bbd60e39d491015b60405180910390a150565b610d576040518060400160405280600d81526020017f4d455449535f4d414e4147455200000000000000000000000000000000000000815250610adf565b6001600160a01b0316336001600160a01b031614610ddd5760405162461bcd60e51b815260206004820152603f60248201527f4d564d5f56657269666965723a2046756e6374696f6e2063616e206f6e6c792060448201527f62652063616c6c656420627920746865204d455449535f4d414e414745522e0060648201526084016106e5565b600f546040517f23b872dd000000000000000000000000000000000000000000000000000000008152336004820152306024820152680ad78ebc5ac620000060448201526001600160a01b03909116906323b872dd90606401602060405180830381600087803b158015610e5057600080fd5b505af1158015610e64573d6000803e3d6000fd5b505050506040513d601f19601f82011682018060405250810190610e889190614355565b610ed45760405162461bcd60e51b815260206004820152601560248201527f7472616e73666572206d65746973206661696c6564000000000000000000000060448201526064016106e5565b8060116000828254610ee6919061438f565b909155505060408051338152602081018390527febedb8b3c678666e7f36970bc8f57abf6d8fa2e828c0da91ea5b75bf68ed101a9101610d0e565b610f2a33611896565b610f9c5760405162461bcd60e51b815260206004820152602360248201527f6f6e6c792077686974656c6973746564207665726966696572732063616e206360448201527f616c6c000000000000000000000000000000000000000000000000000000000060648201526084016106e5565b600e5415610fec5760405162461bcd60e51b815260206004820152601d60248201527f7374616b652069732063757272656e746c792070726f6869626974656400000060448201526064016106e5565b6000811161103c5760405162461bcd60e51b815260206004820152601660248201527f7a65726f207374616b65206e6f7420616c6c6f7765640000000000000000000060448201526064016106e5565b600f546040517f23b872dd000000000000000000000000000000000000000000000000000000008152336004820152306024820152604481018390526001600160a01b03909116906323b872dd90606401602060405180830381600087803b1580156110a757600080fd5b505af11580156110bb573d6000803e3d6000fd5b505050506040513d601f19601f820116820180604052508101906110df9190614355565b61112b5760405162461bcd60e51b815260206004820152601560248201527f7472616e73666572206d65746973206661696c6564000000000000000000000060448201526064016106e5565b33600090815260016020526040812080549183919061114a838561438f565b90915550506010543360009081526001602052604090205410156111d65760405162461bcd60e51b815260206004820152602b60248201527f696e73756666696369656e74207374616b6520746f207175616c69667920617360448201527f206120766572696669657200000000000000000000000000000000000000000060648201526084016106e5565b8061124b57601280549060006111eb836142d0565b9091555050600b80546001810182556000919091527f0175b7a638427703f0dbe7bb9bbf987a2551717b34e79f33b5b1008d1fa01db90180547fffffffffffffffffffffffff000000000000000000000000000000000000000016331790555b60408051338152602081018490527febedb8b3c678666e7f36970bc8f57abf6d8fa2e828c0da91ea5b75bf68ed101a910160405180910390a15050565b6010543360009081526001602052604090205410156112e95760405162461bcd60e51b815260206004820152601260248201527f696e73756666696369656e74207374616b65000000000000000000000000000060448201526064016106e5565b6112f233611896565b6113645760405162461bcd60e51b815260206004820152602360248201527f6f6e6c792077686974656c6973746564207665726966696572732063616e206360448201527f616c6c000000000000000000000000000000000000000000000000000000000060648201526084016106e5565b601254600c848154811061137a5761137a614272565b90600052602060002090600d0201600a015414806113c85750600d54600c84815481106113a9576113a9614272565b90600052602060002090600d020160080154426113c69190614309565b115b6114145760405162461bcd60e51b815260206004820152601160248201527f70686173652032206e6f7420726561647900000000000000000000000000000060448201526064016106e5565b600083815260046020908152604080832033845290915281208054611438906143a7565b9050116114ad5760405162461bcd60e51b815260206004820152602160248201527f796f75206469646e277420706172746963697061746520696e2070686173652060448201527f310000000000000000000000000000000000000000000000000000000000000060648201526084016106e5565b6000838152600260209081526040808320338452909152812080546114d1906143a7565b905011156114e7576114e283612819565b505050565b60008381526003602090815260408083203384529091529020611509906143fb565b6002838360405161151b92919061445a565b602060405180830381855afa158015611538573d6000803e3d6000fd5b5050506040513d601f19601f8201168201806040525081019061155b919061446a565b146115a85760405162461bcd60e51b815260206004820152601b60248201527f6b657920616e64206b65796861736820646f6e2774206d61746368000000000060448201526064016106e5565b600c83815481106115bb576115bb614272565b60009182526020909120600d90910201546001600160a01b03163314156116ac5761167b600c84815481106115f2576115f2614272565b90600052602060002090600d02016003016001015460405160200161161991815260200190565b604080517fffffffffffffffffffffffffffffffffffffffffffffffffffffffffffffffe08184030181526020601f86018190048102840181019092528483529190859085908190840183828082843760009201919091525061367f92505050565b61168490614483565b600c848154811061169757611697614272565b600091825260209091206004600d9092020101555b600083815260026020908152604080832033845290915290206116d0908383613b3e565b506000838152600460209081526040808320338452909152902080546117b491906116fa906143a7565b80601f0160208091040260200160405190810160405280929190818152602001828054611726906143a7565b80156117735780601f1061174857610100808354040283529160200191611773565b820191906000526020600020905b81548152906001019060200180831161175657829003601f168201915b505050505083838080601f01602080910402602001604051908101604052809392919081815260200183838082843760009201919091525061367f92505050565b6000848152600460209081526040808320338452825290912082516117df9391929190910190613bc2565b50600c83815481106117f3576117f3614272565b60009182526020808320600b600d9093020191909101805460018101825590835291200180547fffffffffffffffffffffffff000000000000000000000000000000000000000016339081179091556040517fcd699b485caf6a8424399921287eff9b6648355e67560923d33b3f9d8551726391611885918691909182526001600160a01b0316602082015260400190565b60405180910390a16114e283612819565b600a5460009060ff161580610b795750506001600160a01b031660009081526009602052604090205460ff1690565b6119036040518060400160405280600d81526020017f4d455449535f4d414e4147455200000000000000000000000000000000000000815250610adf565b6001600160a01b0316336001600160a01b0316146119895760405162461bcd60e51b815260206004820152603f60248201527f4d564d5f56657269666965723a2046756e6374696f6e2063616e206f6e6c792060448201527f62652063616c6c656420627920746865204d455449535f4d414e414745522e0060648201526084016106e5565b60108190556000805b600b548110156119fe5760105460016000600b84815481106119b6576119b6614272565b60009182526020808320909101546001600160a01b03168352820192909252604001902054106119ee57816119ea816142d0565b9250505b6119f7816142d0565b9050611992565b5060125550565b611a436040518060400160405280600d81526020017f4d455449535f4d414e4147455200000000000000000000000000000000000000815250610adf565b6001600160a01b0316336001600160a01b031614611ac95760405162461bcd60e51b815260206004820152603f60248201527f4d564d5f56657269666965723a2046756e6374696f6e2063616e206f6e6c792060448201527f62652063616c6c656420627920746865204d455449535f4d414e414745522e0060648201526084016106e5565b6001600160a01b039091166000908152600960205260409020805491151560ff19928316179055600a80549091166001179055565b600c8181548110611b0e57600080fd5b90600052602060002090600d02016000915090508060000160009054906101000a90046001600160a01b031690806001015490806002015490806003016040518060a001604052908160008201548152602001600182015481526020016002820154815260200160038201548152602001600482018054611b8e906143a7565b80601f0160208091040260200160405190810160405280929190818152602001828054611bba906143a7565b8015611c075780601f10611bdc57610100808354040283529160200191611c07565b820191906000526020600020905b815481529060010190602001808311611bea57829003601f168201915b5050509190925250505060088201546009830154600a840154600c909401549293919290919060ff1688565b611c3c33611896565b611cae5760405162461bcd60e51b815260206004820152602360248201527f6f6e6c792077686974656c6973746564207665726966696572732063616e206360448201527f616c6c000000000000000000000000000000000000000000000000000000000060648201526084016106e5565b601054336000908152600160205260409020541015611d0f5760405162461bcd60e51b815260206004820152601260248201527f696e73756666696369656e74207374616b65000000000000000000000000000060448201526064016106e5565b600085815260046020908152604080832033845290915290208054611d33906143a7565b159050611da85760405162461bcd60e51b815260206004820152602860248201527f7665726966793120616c726561647920636f6d706c6574656420666f7220746860448201527f652073656e64657200000000000000000000000000000000000000000000000060648201526084016106e5565b60008581526004602090815260408083203384529091529020611dcc908585613b3e565b5060008581526003602090815260408083203384529091529020611df1908383613b3e565b50600c8581548110611e0557611e05614272565b600091825260208220600a600d9092020101805491611e23836142d0565b9091555050604080518681523360208201527f6f8abfaae8c5cb428b362c84259e542ab1f6424d0717b3495b02c4126e92943291015b60405180910390a15050505050565b600b8181548110611e7857600080fd5b6000918252602090912001546001600160a01b0316905081565b611e9b33611896565b611f0d5760405162461bcd60e51b815260206004820152602360248201527f6f6e6c792077686974656c6973746564207665726966696572732063616e206360448201527f616c6c000000000000000000000000000000000000000000000000000000000060648201526084016106e5565b601054336000908152600160205260409020541015611f6e5760405162461bcd60e51b815260206004820152601260248201527f696e73756666696369656e74207374616b65000000000000000000000000000060448201526064016106e5565b600086815260086020526040812054611f8990600190614309565b9050801580611fd35750600d54611fa19060026144c5565b600c8281548110611fb457611fb4614272565b90600052602060002090600d02016008015442611fd19190614309565b115b61201f5760405162461bcd60e51b815260206004820152601d60248201527f746865726520697320616e206f6e676f696e67206368616c6c656e676500000060448201526064016106e5565b801561202e5761202e81612819565b600061206e6040518060400160405280601481526020017f5374617465436f6d6d69746d656e74436861696e000000000000000000000000815250610adf565b6040517f9418bddd0000000000000000000000000000000000000000000000000000000081529091506001600160a01b03821690639418bddd906120b6908a906004016145ed565b60206040518083038186803b1580156120ce57600080fd5b505afa1580156120e2573d6000803e3d6000fd5b505050506040513d601f19601f820116820180604052508101906121069190614355565b6121785760405162461bcd60e51b815260206004820152602e60248201527f746865206261746368206973206f757473696465206f6620746865206672617560448201527f642070726f6f662077696e646f7700000000000000000000000000000000000060648201526084016106e5565b612180613c36565b6020810189905233815242608082015261219988614600565b6060828101918252600c805460018101825560009190915283517fdf6966c971051c3d54ec59162606531493a51404a002842f56009d7e5cf4a8c7600d90920291820180547fffffffffffffffffffffffff0000000000000000000000000000000000000000166001600160a01b039092169190911781556020808601517fdf6966c971051c3d54ec59162606531493a51404a002842f56009d7e5cf4a8c88401556040808701517fdf6966c971051c3d54ec59162606531493a51404a002842f56009d7e5cf4a8c9850155945180517fdf6966c971051c3d54ec59162606531493a51404a002842f56009d7e5cf4a8ca8501908155818301517fdf6966c971051c3d54ec59162606531493a51404a002842f56009d7e5cf4a8cb860155958101517fdf6966c971051c3d54ec59162606531493a51404a002842f56009d7e5cf4a8cc850155938401517fdf6966c971051c3d54ec59162606531493a51404a002842f56009d7e5cf4a8cd840155608084015180518796939594612343937fdf6966c971051c3d54ec59162606531493a51404a002842f56009d7e5cf4a8ce909101920190613bc2565b5050506080820151600882015560a0820151600982015560c0820151600a82015560e0820151805161237f91600b840191602090910190613cc0565b506101009190910151600c918201805460ff1916911515919091179055546000906123ac90600190614309565b600081815260046020908152604080832033845290915290209091506123d3908989613b3e565b50600081815260036020908152604080832033845290915290206123f8908787613b3e565b50600c818154811061240c5761240c614272565b600091825260208220600a600d909202010180549161242a836142d0565b9091555050600e805490600061243f836142d0565b90915550612450905081600161438f565b60008b8152600860205260409081902091909155517f441214906ecb1ed44d085cb85ab8071c4734e7b4975b38397b9a5df89dec7268906124989083908d908d904290614682565b60405180910390a150505050505050505050565b6124ea6040518060400160405280600d81526020017f4d455449535f4d414e4147455200000000000000000000000000000000000000815250610adf565b6001600160a01b0316336001600160a01b0316146125705760405162461bcd60e51b815260206004820152603f60248201527f4d564d5f56657269666965723a2046756e6374696f6e2063616e206f6e6c792060448201527f62652063616c6c656420627920746865204d455449535f4d414e414745522e0060648201526084016106e5565b601491909155601355565b6125b96040518060400160405280600d81526020017f4d455449535f4d414e4147455200000000000000000000000000000000000000815250610adf565b6001600160a01b0316336001600160a01b03161461263f5760405162461bcd60e51b815260206004820152603f60248201527f4d564d5f56657269666965723a2046756e6374696f6e2063616e206f6e6c792060448201527f62652063616c6c656420627920746865204d455449535f4d414e414745522e0060648201526084016106e5565b601255565b6126826040518060400160405280600d81526020017f4d455449535f4d414e4147455200000000000000000000000000000000000000815250610adf565b6001600160a01b0316336001600160a01b0316146127085760405162461bcd60e51b815260206004820152603f60248201527f4d564d5f56657269666965723a2046756e6374696f6e2063616e206f6e6c792060448201527f62652063616c6c656420627920746865204d455449535f4d414e414745522e0060648201526084016106e5565b600a805460ff19169055565b6127526040518060400160405280600d81526020017f4d455449535f4d414e4147455200000000000000000000000000000000000000815250610adf565b6001600160a01b0316336001600160a01b0316146127d85760405162461bcd60e51b815260206004820152603f60248201527f4d564d5f56657269666965723a2046756e6374696f6e2063616e206f6e6c792060448201527f62652063616c6c656420627920746865204d455449535f4d414e414745522e0060648201526084016106e5565b600d55565b600060f883901c6127f160ff8416826146b2565b905060ff8161ffff16111561280f5761280c610100826146d8565b90505b60f81b9392505050565b6000600c828154811061282e5761282e614272565b60009182526020909120600d90910201600c81015490915060ff16156128965760405162461bcd60e51b815260206004820152601360248201527f6368616c6c656e676520697320636c6f7365640000000000000000000000000060448201526064016106e5565b600a810154600b820154148015906128c85750600d546128b79060026144c5565b60088201546128c69042614309565b105b156128d1575050565b60006129116040518060400160405280601481526020017f5374617465436f6d6d69746d656e74436861696e000000000000000000000000815250610adf565b600084815260046020908152604080832086546001600160a01b03168452909152812091925090612941906143fb565b905060008084600b018054905067ffffffffffffffff81111561296657612966613eca565b60405190808252806020026020018201604052801561298f578160200160208202803683370190505b50905060008086600b018054905067ffffffffffffffff8111156129b5576129b5613eca565b6040519080825280602002602001820160405280156129de578160200160208202803683370190505b5090506000805b600b54811015612e6e57612a3c600b8281548110612a0557612a05614272565b6000918252602090912001546001600160a01b03166010546001600160a01b03909116600090815260016020526040902054101590565b1580612a755750612a73600b8281548110612a5957612a59614272565b6000918252602090912001546001600160a01b0316611896565b155b15612a7f57612e5c565b60008a8152600460205260408120600b80548a93919085908110612aa557612aa5614272565b60009182526020808320909101546001600160a01b031683528201929092526040019020612ad2906143fb565b1415612bf557600060066000600b8481548110612af157612af1614272565b60009182526020808320909101546001600160a01b0316835282019290925260400190205460ff161115612b8857600160066000600b8481548110612b3857612b38614272565b60009182526020808320909101546001600160a01b0316835282019290925260400181208054909190612b6f90849060ff166146fb565b92506101000a81548160ff021916908360ff1602179055505b600b8181548110612b9b57612b9b614272565b9060005260206000200160009054906101000a90046001600160a01b0316858581518110612bcb57612bcb614272565b6001600160a01b039092166020928302919091019091015283612bed816142d0565b945050612e5c565b60008a8152600260205260408120600b805491929184908110612c1a57612c1a614272565b60009182526020808320909101546001600160a01b0316835282019290925260400190208054612c49906143a7565b15159050612d4357600260066000600b8481548110612c6a57612c6a614272565b60009182526020808320909101546001600160a01b0316835282019290925260400181208054909190612ca190849060ff1661471e565b92506101000a81548160ff021916908360ff16021790555060145460066000600b8481548110612cd357612cd3614272565b60009182526020808320909101546001600160a01b0316835282019290925260400190205460ff161115612d3e57612d31600b8281548110612d1757612d17614272565b6000918252602090912001546001600160a01b0316613747565b612d3b908761438f565b95505b612e5c565b600060066000600b8481548110612d5c57612d5c614272565b60009182526020808320909101546001600160a01b0316835282019290925260400190205460ff161115612df357600160066000600b8481548110612da357612da3614272565b60009182526020808320909101546001600160a01b0316835282019290925260400181208054909190612dda90849060ff166146fb565b92506101000a81548160ff021916908360ff1602179055505b600b8181548110612e0657612e06614272565b9060005260206000200160009054906101000a90046001600160a01b0316838381518110612e3657612e36614272565b6001600160a01b039092166020928302919091019091015281612e58816142d0565b9250505b80612e66816142d0565b9150506129e5565b50866001600160a01b031663cfdf677e6040518163ffffffff1660e01b815260040160206040518083038186803b158015612ea857600080fd5b505afa158015612ebc573d6000803e3d6000fd5b505050506040513d601f19601f82011682018060405250810190612ee09190614372565b600189015460038a01546040517f67d18b9b000000000000000000000000000000000000000000000000000000008152600481019290925260248201526001600160a01b0391909116906367d18b9b9060440160206040518083038186803b158015612f4b57600080fd5b505afa158015612f5f573d6000803e3d6000fd5b505050506040513d601f19601f82011682018060405250810190612f83919061446a565b613054896003016040518060a001604052908160008201548152602001600182015481526020016002820154815260200160038201548152602001600482018054612fcd906143a7565b80601f0160208091040260200160405190810160405280929190818152602001828054612ff9906143a7565b80156130465780601f1061301b57610100808354040283529160200191613046565b820191906000526020600020905b81548152906001019060200180831161302957829003601f168201915b5050505050815250506137c1565b146130d857875461306d906001600160a01b0316613747565b613077908661438f565b9450613097858360018b600b01805490506130929190614309565b613807565b7fd1f2f16cb8824bf0d832b207b27728846938ede14202c2335406d9c3509995f7893360036040516130cb93929190614743565b60405180910390a161363c565b6064601254604b6130e991906144c5565b6130f3919061479e565b600b8901541015613132577fd1f2f16cb8824bf0d832b207b27728846938ede14202c2335406d9c3509995f7893360006040516130cb93929190614743565b600488015486146134fa578083116132565760005b838110156132495760026007600087848151811061316757613167614272565b60200260200101516001600160a01b03166001600160a01b0316815260200190815260200160002060008282829054906101000a900460ff166131aa919061471e565b92506101000a81548160ff021916908360ff160217905550601354600760008784815181106131db576131db614272565b6020908102919091018101516001600160a01b031682528101919091526040016000205460ff1611156132375761322a85828151811061321d5761321d614272565b6020026020010151613747565b613234908761438f565b95505b80613241816142d0565b915050613147565b5061309785838451613807565b6040517f9418bddd0000000000000000000000000000000000000000000000000000000081526001600160a01b03881690639418bddd9061329e9060038c019060040161488b565b60206040518083038186803b1580156132b657600080fd5b505afa1580156132ca573d6000803e3d6000fd5b505050506040513d601f19601f820116820180604052508101906132ee9190614355565b156134c65760018801546040517f2ab65ec70000000000000000000000000000000000000000000000000000000081526001600160a01b03891691632ab65ec791613341919060038d019060040161489e565b600060405180830381600087803b15801561335b57600080fd5b505af115801561336f573d6000803e3d6000fd5b50505050600060115411156134925760115461338b908661438f565b945060005b81811015613485576002600760008584815181106133b0576133b0614272565b60200260200101516001600160a01b03166001600160a01b0316815260200190815260200160002060008282829054906101000a900460ff166133f3919061471e565b92506101000a81548160ff021916908360ff1602179055506013546007600085848151811061342457613424614272565b6020908102919091018101516001600160a01b031682528101919091526040016000205460ff1611156134735761346683828151811061321d5761321d614272565b613470908761438f565b95505b8061347d816142d0565b915050613390565b5061349285858651613807565b7fd1f2f16cb8824bf0d832b207b27728846938ede14202c2335406d9c3509995f7893360026040516130cb93929190614743565b7fd1f2f16cb8824bf0d832b207b27728846938ede14202c2335406d9c3509995f7893360046040516130cb93929190614743565b60005b838110156135f25760026007600087848151811061351d5761351d614272565b60200260200101516001600160a01b03166001600160a01b0316815260200190815260200160002060008282829054906101000a900460ff16613560919061471e565b92506101000a81548160ff021916908360ff1602179055506013546007600087848151811061359157613591614272565b6020908102919091018101516001600160a01b031682528101919091526040016000205460ff1611156135e0576135d385828151811061321d5761321d614272565b6135dd908761438f565b95505b806135ea816142d0565b9150506134fd565b506135ff85838451613807565b7fd1f2f16cb8824bf0d832b207b27728846938ede14202c2335406d9c3509995f78933600160405161363393929190614743565b60405180910390a15b600c8801805460ff19166001179055600e805490600061365b83614320565b90915550505060019096015460009081526008602052604081205550505050505050565b6060826000805b825181101561373d57845182141561369d57600091505b6136dc8382815181106136b2576136b2614272565b602001015160f81c60f81b8684815181106136cf576136cf614272565b016020015160f81c613b09565b8382815181106136ee576136ee614272565b60200101907effffffffffffffffffffffffffffffffffffffffffffffffffffffffffffff1916908160001a90535081613727816142d0565b9250508080613735906142d0565b915050613686565b5090949350505050565b6001600160a01b038116600090815260016020526040812080549082905560128054908361377483614320565b9091555050604080516001600160a01b0385168152602081018390527f39505629e9ffd84b4cea98325402ef1c5a184b431c9a7314a352e064f6658bed910160405180910390a192915050565b600081602001518260400151836060015184608001516040516020016137ea94939291906148b7565b604051602081830303815290604052805190602001209050919050565b6000613813828561479e565b9050806138205750505050565b6000805b845181101561394a5761386c85828151811061384257613842614272565b60200260200101516010546001600160a01b03909116600090815260016020526040902054101590565b1561393857826005600087848151811061388857613888614272565b60200260200101516001600160a01b03166001600160a01b0316815260200190815260200160002060008282546138bf919061438f565b909155506138cf9050838361438f565b91507f619caafabdd75649b302ba8419e48cccf64f37f1983ac4727cfb38b57703ffc985828151811061390457613904614272565b60200260200101518460405161392f9291906001600160a01b03929092168252602082015260400190565b60405180910390a15b80613942816142d0565b915050613824565b5084811015613b02576139698460008151811061384257613842614272565b15613a3c576139788582614309565b600560008660008151811061398f5761398f614272565b60200260200101516001600160a01b03166001600160a01b0316815260200190815260200160002060008282546139c6919061438f565b925050819055507f619caafabdd75649b302ba8419e48cccf64f37f1983ac4727cfb38b57703ffc984600081518110613a0157613a01614272565b60200260200101518683613a159190614309565b604080516001600160a01b03909316835260208301919091520160405180910390a1613b02565b613a468582614309565b6005600086600181518110613a5d57613a5d614272565b60200260200101516001600160a01b03166001600160a01b031681526020019081526020016000206000828254613a94919061438f565b925050819055507f619caafabdd75649b302ba8419e48cccf64f37f1983ac4727cfb38b57703ffc984600181518110613acf57613acf614272565b60200260200101518683613ae39190614309565b604080516001600160a01b039093168352602083019190915201611e59565b5050505050565b600060f883901c60ff8316811115613b2f57613b2860ff8416826146d8565b905061280f565b61280c60ff84166101006146d8565b828054613b4a906143a7565b90600052602060002090601f016020900481019282613b6c5760008555613bb2565b82601f10613b855782800160ff19823516178555613bb2565b82800160010185558215613bb2579182015b82811115613bb2578235825591602001919060010190613b97565b50613bbe929150613d2d565b5090565b828054613bce906143a7565b90600052602060002090601f016020900481019282613bf05760008555613bb2565b82601f10613c0957805160ff1916838001178555613bb2565b82800160010185558215613bb2579182015b82811115613bb2578251825591602001919060010190613c1b565b60405180610120016040528060006001600160a01b031681526020016000815260200160008152602001613c956040518060a0016040528060008152602001600080191681526020016000815260200160008152602001606081525090565b8152602001600081526020016000815260200160008152602001606081526020016000151581525090565b828054828255906000526020600020908101928215613bb2579160200282015b82811115613bb257825182547fffffffffffffffffffffffff0000000000000000000000000000000000000000166001600160a01b03909116178255602090920191600190910190613ce0565b5b80821115613bbe5760008155600101613d2e565b60008083601f840112613d5457600080fd5b50813567ffffffffffffffff811115613d6c57600080fd5b602083019150836020828501011115613d8457600080fd5b9250929050565b60008060008060408587031215613da157600080fd5b843567ffffffffffffffff80821115613db957600080fd5b613dc588838901613d42565b90965094506020870135915080821115613dde57600080fd5b50613deb87828801613d42565b95989497509550505050565b6000815180845260005b81811015613e1d57602081850181015186830182015201613e01565b81811115613e2f576000602083870101525b50601f017fffffffffffffffffffffffffffffffffffffffffffffffffffffffffffffffe0169290920160200192915050565b602081526000613e756020830184613df7565b9392505050565b6001600160a01b0381168114613e9157600080fd5b50565b600060208284031215613ea657600080fd5b8135613e7581613e7c565b600060208284031215613ec357600080fd5b5035919050565b7f4e487b7100000000000000000000000000000000000000000000000000000000600052604160045260246000fd5b60405160a0810167ffffffffffffffff81118282101715613f1c57613f1c613eca565b60405290565b600067ffffffffffffffff80841115613f3d57613f3d613eca565b604051601f85017fffffffffffffffffffffffffffffffffffffffffffffffffffffffffffffffe0908116603f01168101908282118183101715613f8357613f83613eca565b81604052809350858152868686011115613f9c57600080fd5b858560208301376000602087830101525050509392505050565b600060208284031215613fc857600080fd5b813567ffffffffffffffff811115613fdf57600080fd5b8201601f81018413613ff057600080fd5b613fff84823560208401613f22565b949350505050565b60008060006040848603121561401c57600080fd5b83359250602084013567ffffffffffffffff81111561403a57600080fd5b61404686828701613d42565b9497909650939450505050565b8015158114613e9157600080fd5b6000806040838503121561407457600080fd5b823561407f81613e7c565b9150602083013561408f81614053565b809150509250929050565b60006101006001600160a01b038b16835289602084015288604084015280606084015287518184015250602087015161012083015260408701516101408301526060870151610160830152608087015160a06101808401526141006101a0840182613df7565b9150508560808301528460a08301528360c083015261412360e083018415159052565b9998505050505050505050565b60008060008060006060868803121561414857600080fd5b85359450602086013567ffffffffffffffff8082111561416757600080fd5b61417389838a01613d42565b9096509450604088013591508082111561418c57600080fd5b5061419988828901613d42565b969995985093965092949392505050565b600080600080600080608087890312156141c357600080fd5b86359550602087013567ffffffffffffffff808211156141e257600080fd5b9088019060a0828b0312156141f657600080fd5b9095506040880135908082111561420c57600080fd5b6142188a838b01613d42565b9096509450606089013591508082111561423157600080fd5b5061423e89828a01613d42565b979a9699509497509295939492505050565b6000806040838503121561426357600080fd5b50508035926020909101359150565b7f4e487b7100000000000000000000000000000000000000000000000000000000600052603260045260246000fd5b7f4e487b7100000000000000000000000000000000000000000000000000000000600052601160045260246000fd5b60007fffffffffffffffffffffffffffffffffffffffffffffffffffffffffffffffff821415614302576143026142a1565b5060010190565b60008282101561431b5761431b6142a1565b500390565b60008161432f5761432f6142a1565b507fffffffffffffffffffffffffffffffffffffffffffffffffffffffffffffffff0190565b60006020828403121561436757600080fd5b8151613e7581614053565b60006020828403121561438457600080fd5b8151613e7581613e7c565b600082198211156143a2576143a26142a1565b500190565b600181811c908216806143bb57607f821691505b602082108114156143f5577f4e487b7100000000000000000000000000000000000000000000000000000000600052602260045260246000fd5b50919050565b600061440782546143a7565b82601f82111561441d5783600052602060002090505b54915060208110156143f5577fffffffffffffffffffffffffffffffffffffffffffffffffffffffffffffffff60209190910360031b1b16919050565b8183823760009101908152919050565b60006020828403121561447c57600080fd5b5051919050565b805160208083015191908110156143f5577fffffffffffffffffffffffffffffffffffffffffffffffffffffffffffffffff60209190910360031b1b16919050565b6000817fffffffffffffffffffffffffffffffffffffffffffffffffffffffffffffffff04831182151516156144fd576144fd6142a1565b500290565b8183528181602085013750600060208284010152600060207fffffffffffffffffffffffffffffffffffffffffffffffffffffffffffffffe0601f840116840101905092915050565b80358252602081013560208301526040810135604083015260608101356060830152600060808201357fffffffffffffffffffffffffffffffffffffffffffffffffffffffffffffffe18336030181126145a457600080fd5b8201803567ffffffffffffffff8111156145bd57600080fd5b8036038413156145cc57600080fd5b60a060808601526145e460a086018260208501614502565b95945050505050565b602081526000613e75602083018461454b565b600060a0823603121561461257600080fd5b61461a613ef9565b82358152602083013560208201526040830135604082015260608301356060820152608083013567ffffffffffffffff81111561465657600080fd5b830136601f82011261466757600080fd5b61467636823560208401613f22565b60808301525092915050565b8481528360208201526080604082015260006146a1608083018561454b565b905082606083015295945050505050565b600061ffff8083168185168083038211156146cf576146cf6142a1565b01949350505050565b600061ffff838116908316818110156146f3576146f36142a1565b039392505050565b600060ff821660ff841680821015614715576147156142a1565b90039392505050565b600060ff821660ff84168060ff0382111561473b5761473b6142a1565b019392505050565b8381526001600160a01b03831660208201526060810160058310614790577f4e487b7100000000000000000000000000000000000000000000000000000000600052602160045260246000fd5b826040830152949350505050565b6000826147d4577f4e487b7100000000000000000000000000000000000000000000000000000000600052601260045260246000fd5b500490565b80548252600060018083015460208181870152600285015460408701526003850154606087015260048501915060a060808701526000825461481a816143a7565b8060a08a015260c08683166000811461483a576001811461484e5761487c565b60ff198416828c015260e08b01945061487c565b866000528560002060005b848110156148745781548d8201850152908901908701614859565b8c0183019550505b50929998505050505050505050565b602081526000613e7560208301846147d9565b828152604060208201526000613fff60408301846147d9565b8481528360208201528260408201526080606082015260006148dc6080830184613df7565b969550505050505056fea2646970667358221220c0333da976c2b0a032609075c88cb745a4794cd8c93d86640151e8875ef963a664736f6c63430008090033",
  "devdoc": {
    "kind": "dev",
    "methods": {
      "resolve(string)": {
        "params": {
          "_name": "Name to resolve an address for."
        },
        "returns": {
          "_0": "Address associated with the given name."
        }
      }
    },
    "version": 1
  },
  "userdoc": {
    "kind": "user",
    "methods": {
      "resolve(string)": {
        "notice": "Resolves the address associated with a given name."
      }
    },
    "version": 1
  },
  "storageLayout": {
    "storage": [
      {
        "astId": 13952,
        "contract": "contracts/MVM/MVM_Verifier.sol:MVM_Verifier",
        "label": "libAddressManager",
        "offset": 0,
        "slot": "0",
        "type": "t_contract(Lib_AddressManager)13944"
      },
      {
        "astId": 11488,
        "contract": "contracts/MVM/MVM_Verifier.sol:MVM_Verifier",
        "label": "verifier_stakes",
        "offset": 0,
        "slot": "1",
        "type": "t_mapping(t_address,t_uint256)"
      },
      {
        "astId": 11494,
        "contract": "contracts/MVM/MVM_Verifier.sol:MVM_Verifier",
        "label": "challenge_keys",
        "offset": 0,
        "slot": "2",
        "type": "t_mapping(t_uint256,t_mapping(t_address,t_bytes_storage))"
      },
      {
        "astId": 11500,
        "contract": "contracts/MVM/MVM_Verifier.sol:MVM_Verifier",
        "label": "challenge_key_hashes",
        "offset": 0,
        "slot": "3",
        "type": "t_mapping(t_uint256,t_mapping(t_address,t_bytes_storage))"
      },
      {
        "astId": 11506,
        "contract": "contracts/MVM/MVM_Verifier.sol:MVM_Verifier",
        "label": "challenge_hashes",
        "offset": 0,
        "slot": "4",
        "type": "t_mapping(t_uint256,t_mapping(t_address,t_bytes_storage))"
      },
      {
        "astId": 11510,
        "contract": "contracts/MVM/MVM_Verifier.sol:MVM_Verifier",
        "label": "rewards",
        "offset": 0,
        "slot": "5",
        "type": "t_mapping(t_address,t_uint256)"
      },
      {
        "astId": 11514,
        "contract": "contracts/MVM/MVM_Verifier.sol:MVM_Verifier",
        "label": "absence_strikes",
        "offset": 0,
        "slot": "6",
        "type": "t_mapping(t_address,t_uint8)"
      },
      {
        "astId": 11518,
        "contract": "contracts/MVM/MVM_Verifier.sol:MVM_Verifier",
        "label": "consensus_strikes",
        "offset": 0,
        "slot": "7",
        "type": "t_mapping(t_address,t_uint8)"
      },
      {
        "astId": 11522,
        "contract": "contracts/MVM/MVM_Verifier.sol:MVM_Verifier",
        "label": "chain_under_challenge",
        "offset": 0,
        "slot": "8",
        "type": "t_mapping(t_uint256,t_uint256)"
      },
      {
        "astId": 11526,
        "contract": "contracts/MVM/MVM_Verifier.sol:MVM_Verifier",
        "label": "whitelist",
        "offset": 0,
        "slot": "9",
        "type": "t_mapping(t_address,t_bool)"
      },
      {
        "astId": 11528,
        "contract": "contracts/MVM/MVM_Verifier.sol:MVM_Verifier",
        "label": "useWhiteList",
        "offset": 0,
        "slot": "10",
        "type": "t_bool"
      },
      {
        "astId": 11531,
        "contract": "contracts/MVM/MVM_Verifier.sol:MVM_Verifier",
        "label": "verifiers",
        "offset": 0,
        "slot": "11",
        "type": "t_array(t_address)dyn_storage"
      },
      {
        "astId": 11535,
        "contract": "contracts/MVM/MVM_Verifier.sol:MVM_Verifier",
        "label": "challenges",
        "offset": 0,
        "slot": "12",
        "type": "t_array(t_struct(Challenge)11484_storage)dyn_storage"
      },
      {
        "astId": 11540,
        "contract": "contracts/MVM/MVM_Verifier.sol:MVM_Verifier",
        "label": "verifyWindow",
        "offset": 0,
        "slot": "13",
        "type": "t_uint256"
      },
      {
        "astId": 11542,
        "contract": "contracts/MVM/MVM_Verifier.sol:MVM_Verifier",
        "label": "activeChallenges",
        "offset": 0,
        "slot": "14",
        "type": "t_uint256"
      },
      {
        "astId": 11544,
        "contract": "contracts/MVM/MVM_Verifier.sol:MVM_Verifier",
        "label": "metis",
        "offset": 0,
        "slot": "15",
        "type": "t_address"
      },
      {
        "astId": 11546,
        "contract": "contracts/MVM/MVM_Verifier.sol:MVM_Verifier",
        "label": "minStake",
        "offset": 0,
        "slot": "16",
        "type": "t_uint256"
      },
      {
        "astId": 11548,
        "contract": "contracts/MVM/MVM_Verifier.sol:MVM_Verifier",
        "label": "seqStake",
        "offset": 0,
        "slot": "17",
        "type": "t_uint256"
      },
      {
        "astId": 11550,
        "contract": "contracts/MVM/MVM_Verifier.sol:MVM_Verifier",
        "label": "numQualifiedVerifiers",
        "offset": 0,
        "slot": "18",
        "type": "t_uint256"
      },
      {
        "astId": 11553,
        "contract": "contracts/MVM/MVM_Verifier.sol:MVM_Verifier",
        "label": "FAIL_THRESHOLD",
        "offset": 0,
        "slot": "19",
        "type": "t_uint256"
      },
      {
        "astId": 11556,
        "contract": "contracts/MVM/MVM_Verifier.sol:MVM_Verifier",
        "label": "ABSENCE_THRESHOLD",
        "offset": 0,
        "slot": "20",
        "type": "t_uint256"
      }
    ],
    "types": {
      "t_address": {
        "encoding": "inplace",
        "label": "address",
        "numberOfBytes": "20"
      },
      "t_array(t_address)dyn_storage": {
        "base": "t_address",
        "encoding": "dynamic_array",
        "label": "address[]",
        "numberOfBytes": "32"
      },
      "t_array(t_struct(Challenge)11484_storage)dyn_storage": {
        "base": "t_struct(Challenge)11484_storage",
        "encoding": "dynamic_array",
        "label": "struct MVM_Verifier.Challenge[]",
        "numberOfBytes": "32"
      },
      "t_bool": {
        "encoding": "inplace",
        "label": "bool",
        "numberOfBytes": "1"
      },
      "t_bytes32": {
        "encoding": "inplace",
        "label": "bytes32",
        "numberOfBytes": "32"
      },
      "t_bytes_storage": {
        "encoding": "bytes",
        "label": "bytes",
        "numberOfBytes": "32"
      },
      "t_contract(Lib_AddressManager)13944": {
        "encoding": "inplace",
        "label": "contract Lib_AddressManager",
        "numberOfBytes": "20"
      },
      "t_mapping(t_address,t_bool)": {
        "encoding": "mapping",
        "key": "t_address",
        "label": "mapping(address => bool)",
        "numberOfBytes": "32",
        "value": "t_bool"
      },
      "t_mapping(t_address,t_bytes_storage)": {
        "encoding": "mapping",
        "key": "t_address",
        "label": "mapping(address => bytes)",
        "numberOfBytes": "32",
        "value": "t_bytes_storage"
      },
      "t_mapping(t_address,t_uint256)": {
        "encoding": "mapping",
        "key": "t_address",
        "label": "mapping(address => uint256)",
        "numberOfBytes": "32",
        "value": "t_uint256"
      },
      "t_mapping(t_address,t_uint8)": {
        "encoding": "mapping",
        "key": "t_address",
        "label": "mapping(address => uint8)",
        "numberOfBytes": "32",
        "value": "t_uint8"
      },
      "t_mapping(t_uint256,t_mapping(t_address,t_bytes_storage))": {
        "encoding": "mapping",
        "key": "t_uint256",
        "label": "mapping(uint256 => mapping(address => bytes))",
        "numberOfBytes": "32",
        "value": "t_mapping(t_address,t_bytes_storage)"
      },
      "t_mapping(t_uint256,t_uint256)": {
        "encoding": "mapping",
        "key": "t_uint256",
        "label": "mapping(uint256 => uint256)",
        "numberOfBytes": "32",
        "value": "t_uint256"
      },
      "t_struct(ChainBatchHeader)13645_storage": {
        "encoding": "inplace",
        "label": "struct Lib_OVMCodec.ChainBatchHeader",
        "members": [
          {
            "astId": 13636,
            "contract": "contracts/MVM/MVM_Verifier.sol:MVM_Verifier",
            "label": "batchIndex",
            "offset": 0,
            "slot": "0",
            "type": "t_uint256"
          },
          {
            "astId": 13638,
            "contract": "contracts/MVM/MVM_Verifier.sol:MVM_Verifier",
            "label": "batchRoot",
            "offset": 0,
            "slot": "1",
            "type": "t_bytes32"
          },
          {
            "astId": 13640,
            "contract": "contracts/MVM/MVM_Verifier.sol:MVM_Verifier",
            "label": "batchSize",
            "offset": 0,
            "slot": "2",
            "type": "t_uint256"
          },
          {
            "astId": 13642,
            "contract": "contracts/MVM/MVM_Verifier.sol:MVM_Verifier",
            "label": "prevTotalElements",
            "offset": 0,
            "slot": "3",
            "type": "t_uint256"
          },
          {
            "astId": 13644,
            "contract": "contracts/MVM/MVM_Verifier.sol:MVM_Verifier",
            "label": "extraData",
            "offset": 0,
            "slot": "4",
            "type": "t_bytes_storage"
          }
        ],
        "numberOfBytes": "160"
      },
      "t_struct(Challenge)11484_storage": {
        "encoding": "inplace",
        "label": "struct MVM_Verifier.Challenge",
        "members": [
          {
            "astId": 11465,
            "contract": "contracts/MVM/MVM_Verifier.sol:MVM_Verifier",
            "label": "challenger",
            "offset": 0,
            "slot": "0",
            "type": "t_address"
          },
          {
            "astId": 11467,
            "contract": "contracts/MVM/MVM_Verifier.sol:MVM_Verifier",
            "label": "chainID",
            "offset": 0,
            "slot": "1",
            "type": "t_uint256"
          },
          {
            "astId": 11469,
            "contract": "contracts/MVM/MVM_Verifier.sol:MVM_Verifier",
            "label": "index",
            "offset": 0,
            "slot": "2",
            "type": "t_uint256"
          },
          {
            "astId": 11472,
            "contract": "contracts/MVM/MVM_Verifier.sol:MVM_Verifier",
            "label": "header",
            "offset": 0,
            "slot": "3",
            "type": "t_struct(ChainBatchHeader)13645_storage"
          },
          {
            "astId": 11474,
            "contract": "contracts/MVM/MVM_Verifier.sol:MVM_Verifier",
            "label": "timestamp",
            "offset": 0,
            "slot": "8",
            "type": "t_uint256"
          },
          {
            "astId": 11476,
            "contract": "contracts/MVM/MVM_Verifier.sol:MVM_Verifier",
            "label": "numQualifiedVerifiers",
            "offset": 0,
            "slot": "9",
            "type": "t_uint256"
          },
          {
            "astId": 11478,
            "contract": "contracts/MVM/MVM_Verifier.sol:MVM_Verifier",
            "label": "numVerifiers",
            "offset": 0,
            "slot": "10",
            "type": "t_uint256"
          },
          {
            "astId": 11481,
            "contract": "contracts/MVM/MVM_Verifier.sol:MVM_Verifier",
            "label": "verifiers",
            "offset": 0,
            "slot": "11",
            "type": "t_array(t_address)dyn_storage"
          },
          {
            "astId": 11483,
            "contract": "contracts/MVM/MVM_Verifier.sol:MVM_Verifier",
            "label": "done",
            "offset": 0,
            "slot": "12",
            "type": "t_bool"
          }
        ],
        "numberOfBytes": "416"
      },
      "t_uint256": {
        "encoding": "inplace",
        "label": "uint256",
        "numberOfBytes": "32"
      },
      "t_uint8": {
        "encoding": "inplace",
        "label": "uint8",
        "numberOfBytes": "1"
      }
    }
  }
}