{
  "address": "0x8bF439ef7167023F009E24b21719Ca5f768Ecb36",
  "abi": [
    {
      "inputs": [],
      "stateMutability": "nonpayable",
      "type": "constructor"
    },
    {
      "anonymous": false,
      "inputs": [
        {
          "indexed": true,
          "internalType": "bytes32",
          "name": "msgHash",
          "type": "bytes32"
        }
      ],
      "name": "FailedRelayedMessage",
      "type": "event"
    },
    {
      "anonymous": false,
      "inputs": [
        {
          "indexed": true,
          "internalType": "bytes32",
          "name": "_xDomainCalldataHash",
          "type": "bytes32"
        }
      ],
      "name": "MessageAllowed",
      "type": "event"
    },
    {
      "anonymous": false,
      "inputs": [
        {
          "indexed": true,
          "internalType": "bytes32",
          "name": "_xDomainCalldataHash",
          "type": "bytes32"
        }
      ],
      "name": "MessageBlocked",
      "type": "event"
    },
    {
      "anonymous": false,
      "inputs": [
        {
          "indexed": true,
          "internalType": "address",
          "name": "previousOwner",
          "type": "address"
        },
        {
          "indexed": true,
          "internalType": "address",
          "name": "newOwner",
          "type": "address"
        }
      ],
      "name": "OwnershipTransferred",
      "type": "event"
    },
    {
      "anonymous": false,
      "inputs": [
        {
          "indexed": false,
          "internalType": "address",
          "name": "account",
          "type": "address"
        }
      ],
      "name": "Paused",
      "type": "event"
    },
    {
      "anonymous": false,
      "inputs": [
        {
          "indexed": true,
          "internalType": "bytes32",
          "name": "msgHash",
          "type": "bytes32"
        }
      ],
      "name": "RelayedMessage",
      "type": "event"
    },
    {
      "anonymous": false,
      "inputs": [
        {
          "indexed": true,
          "internalType": "address",
          "name": "target",
          "type": "address"
        },
        {
          "indexed": false,
          "internalType": "address",
          "name": "sender",
          "type": "address"
        },
        {
          "indexed": false,
          "internalType": "bytes",
          "name": "message",
          "type": "bytes"
        },
        {
          "indexed": false,
          "internalType": "uint256",
          "name": "messageNonce",
          "type": "uint256"
        },
        {
          "indexed": false,
          "internalType": "uint256",
          "name": "gasLimit",
          "type": "uint256"
        },
        {
          "indexed": false,
          "internalType": "uint256",
          "name": "chainId",
          "type": "uint256"
        }
      ],
      "name": "SentMessage",
      "type": "event"
    },
    {
      "anonymous": false,
      "inputs": [
        {
          "indexed": false,
          "internalType": "address",
          "name": "account",
          "type": "address"
        }
      ],
      "name": "Unpaused",
      "type": "event"
    },
    {
      "inputs": [
        {
          "internalType": "bytes32",
          "name": "_xDomainCalldataHash",
          "type": "bytes32"
        }
      ],
      "name": "allowMessage",
      "outputs": [],
      "stateMutability": "nonpayable",
      "type": "function"
    },
    {
      "inputs": [
        {
          "internalType": "bytes32",
          "name": "_xDomainCalldataHash",
          "type": "bytes32"
        }
      ],
      "name": "blockMessage",
      "outputs": [],
      "stateMutability": "nonpayable",
      "type": "function"
    },
    {
      "inputs": [
        {
          "internalType": "bytes32",
          "name": "",
          "type": "bytes32"
        }
      ],
      "name": "blockedMessages",
      "outputs": [
        {
          "internalType": "bool",
          "name": "",
          "type": "bool"
        }
      ],
      "stateMutability": "view",
      "type": "function"
    },
    {
      "inputs": [
        {
          "internalType": "address",
          "name": "_libAddressManager",
          "type": "address"
        }
      ],
      "name": "initialize",
      "outputs": [],
      "stateMutability": "nonpayable",
      "type": "function"
    },
    {
      "inputs": [],
      "name": "libAddressManager",
      "outputs": [
        {
          "internalType": "contract Lib_AddressManager",
          "name": "",
          "type": "address"
        }
      ],
      "stateMutability": "view",
      "type": "function"
    },
    {
      "inputs": [],
      "name": "owner",
      "outputs": [
        {
          "internalType": "address",
          "name": "",
          "type": "address"
        }
      ],
      "stateMutability": "view",
      "type": "function"
    },
    {
      "inputs": [],
      "name": "pause",
      "outputs": [],
      "stateMutability": "nonpayable",
      "type": "function"
    },
    {
      "inputs": [],
      "name": "paused",
      "outputs": [
        {
          "internalType": "bool",
          "name": "",
          "type": "bool"
        }
      ],
      "stateMutability": "view",
      "type": "function"
    },
    {
      "inputs": [
        {
          "internalType": "address",
          "name": "_target",
          "type": "address"
        },
        {
          "internalType": "address",
          "name": "_sender",
          "type": "address"
        },
        {
          "internalType": "bytes",
          "name": "_message",
          "type": "bytes"
        },
        {
          "internalType": "uint256",
          "name": "_messageNonce",
          "type": "uint256"
        },
        {
          "components": [
            {
              "internalType": "bytes32",
              "name": "stateRoot",
              "type": "bytes32"
            },
            {
              "components": [
                {
                  "internalType": "uint256",
                  "name": "batchIndex",
                  "type": "uint256"
                },
                {
                  "internalType": "bytes32",
                  "name": "batchRoot",
                  "type": "bytes32"
                },
                {
                  "internalType": "uint256",
                  "name": "batchSize",
                  "type": "uint256"
                },
                {
                  "internalType": "uint256",
                  "name": "prevTotalElements",
                  "type": "uint256"
                },
                {
                  "internalType": "bytes",
                  "name": "extraData",
                  "type": "bytes"
                }
              ],
              "internalType": "struct Lib_OVMCodec.ChainBatchHeader",
              "name": "stateRootBatchHeader",
              "type": "tuple"
            },
            {
              "components": [
                {
                  "internalType": "uint256",
                  "name": "index",
                  "type": "uint256"
                },
                {
                  "internalType": "bytes32[]",
                  "name": "siblings",
                  "type": "bytes32[]"
                }
              ],
              "internalType": "struct Lib_OVMCodec.ChainInclusionProof",
              "name": "stateRootProof",
              "type": "tuple"
            },
            {
              "internalType": "bytes",
              "name": "stateTrieWitness",
              "type": "bytes"
            },
            {
              "internalType": "bytes",
              "name": "storageTrieWitness",
              "type": "bytes"
            }
          ],
          "internalType": "struct IL1CrossDomainMessenger.L2MessageInclusionProof",
          "name": "_proof",
          "type": "tuple"
        }
      ],
      "name": "relayMessage",
      "outputs": [],
      "stateMutability": "nonpayable",
      "type": "function"
    },
    {
      "inputs": [
        {
          "internalType": "uint256",
          "name": "_chainId",
          "type": "uint256"
        },
        {
          "internalType": "address",
          "name": "_target",
          "type": "address"
        },
        {
          "internalType": "address",
          "name": "_sender",
          "type": "address"
        },
        {
          "internalType": "bytes",
          "name": "_message",
          "type": "bytes"
        },
        {
          "internalType": "uint256",
          "name": "_messageNonce",
          "type": "uint256"
        },
        {
          "components": [
            {
              "internalType": "bytes32",
              "name": "stateRoot",
              "type": "bytes32"
            },
            {
              "components": [
                {
                  "internalType": "uint256",
                  "name": "batchIndex",
                  "type": "uint256"
                },
                {
                  "internalType": "bytes32",
                  "name": "batchRoot",
                  "type": "bytes32"
                },
                {
                  "internalType": "uint256",
                  "name": "batchSize",
                  "type": "uint256"
                },
                {
                  "internalType": "uint256",
                  "name": "prevTotalElements",
                  "type": "uint256"
                },
                {
                  "internalType": "bytes",
                  "name": "extraData",
                  "type": "bytes"
                }
              ],
              "internalType": "struct Lib_OVMCodec.ChainBatchHeader",
              "name": "stateRootBatchHeader",
              "type": "tuple"
            },
            {
              "components": [
                {
                  "internalType": "uint256",
                  "name": "index",
                  "type": "uint256"
                },
                {
                  "internalType": "bytes32[]",
                  "name": "siblings",
                  "type": "bytes32[]"
                }
              ],
              "internalType": "struct Lib_OVMCodec.ChainInclusionProof",
              "name": "stateRootProof",
              "type": "tuple"
            },
            {
              "internalType": "bytes",
              "name": "stateTrieWitness",
              "type": "bytes"
            },
            {
              "internalType": "bytes",
              "name": "storageTrieWitness",
              "type": "bytes"
            }
          ],
          "internalType": "struct IL1CrossDomainMessenger.L2MessageInclusionProof",
          "name": "_proof",
          "type": "tuple"
        }
      ],
      "name": "relayMessageViaChainId",
      "outputs": [],
      "stateMutability": "nonpayable",
      "type": "function"
    },
    {
      "inputs": [
        {
          "internalType": "bytes32",
          "name": "",
          "type": "bytes32"
        }
      ],
      "name": "relayedMessages",
      "outputs": [
        {
          "internalType": "bool",
          "name": "",
          "type": "bool"
        }
      ],
      "stateMutability": "view",
      "type": "function"
    },
    {
      "inputs": [],
      "name": "renounceOwnership",
      "outputs": [],
      "stateMutability": "nonpayable",
      "type": "function"
    },
    {
      "inputs": [
        {
          "internalType": "address",
          "name": "_target",
          "type": "address"
        },
        {
          "internalType": "address",
          "name": "_sender",
          "type": "address"
        },
        {
          "internalType": "bytes",
          "name": "_message",
          "type": "bytes"
        },
        {
          "internalType": "uint256",
          "name": "_queueIndex",
          "type": "uint256"
        },
        {
          "internalType": "uint32",
          "name": "_oldGasLimit",
          "type": "uint32"
        },
        {
          "internalType": "uint32",
          "name": "_newGasLimit",
          "type": "uint32"
        }
      ],
      "name": "replayMessage",
      "outputs": [],
      "stateMutability": "payable",
      "type": "function"
    },
    {
      "inputs": [
        {
          "internalType": "uint256",
          "name": "_chainId",
          "type": "uint256"
        },
        {
          "internalType": "address",
          "name": "_target",
          "type": "address"
        },
        {
          "internalType": "address",
          "name": "_sender",
          "type": "address"
        },
        {
          "internalType": "bytes",
          "name": "_message",
          "type": "bytes"
        },
        {
          "internalType": "uint256",
          "name": "_queueIndex",
          "type": "uint256"
        },
        {
          "internalType": "uint32",
          "name": "_oldGasLimit",
          "type": "uint32"
        },
        {
          "internalType": "uint32",
          "name": "_newGasLimit",
          "type": "uint32"
        }
      ],
      "name": "replayMessageViaChainId",
      "outputs": [],
      "stateMutability": "payable",
      "type": "function"
    },
    {
      "inputs": [
        {
          "internalType": "string",
          "name": "_name",
          "type": "string"
        }
      ],
      "name": "resolve",
      "outputs": [
        {
          "internalType": "address",
          "name": "",
          "type": "address"
        }
      ],
      "stateMutability": "view",
      "type": "function"
    },
    {
      "inputs": [
        {
          "internalType": "address",
          "name": "_target",
          "type": "address"
        },
        {
          "internalType": "bytes",
          "name": "_message",
          "type": "bytes"
        },
        {
          "internalType": "uint32",
          "name": "_gasLimit",
          "type": "uint32"
        }
      ],
      "name": "sendMessage",
      "outputs": [],
      "stateMutability": "payable",
      "type": "function"
    },
    {
      "inputs": [
        {
          "internalType": "uint256",
          "name": "_chainId",
          "type": "uint256"
        },
        {
          "internalType": "address",
          "name": "_target",
          "type": "address"
        },
        {
          "internalType": "bytes",
          "name": "_message",
          "type": "bytes"
        },
        {
          "internalType": "uint32",
          "name": "_gasLimit",
          "type": "uint32"
        }
      ],
      "name": "sendMessageViaChainId",
      "outputs": [],
      "stateMutability": "payable",
      "type": "function"
    },
    {
      "inputs": [
        {
          "internalType": "bytes32",
          "name": "",
          "type": "bytes32"
        }
      ],
      "name": "successfulMessages",
      "outputs": [
        {
          "internalType": "bool",
          "name": "",
          "type": "bool"
        }
      ],
      "stateMutability": "view",
      "type": "function"
    },
    {
      "inputs": [
        {
          "internalType": "address",
          "name": "newOwner",
          "type": "address"
        }
      ],
      "name": "transferOwnership",
      "outputs": [],
      "stateMutability": "nonpayable",
      "type": "function"
    },
    {
      "inputs": [],
      "name": "xDomainMessageSender",
      "outputs": [
        {
          "internalType": "address",
          "name": "",
          "type": "address"
        }
      ],
      "stateMutability": "view",
      "type": "function"
    }
  ],
  "transactionHash": "0x0925d5ea6866bfce387d16001240df58cc91c6e04ba3e87d959ae9238a2da255",
  "args": [],
  "solcInputHash": "aad23d34300e438238a0739b0c367631",
  "bytecode": "0x608060405260cc80546001600160a01b03191661dead17905534801561002457600080fd5b50600080546001600160a01b0319169055614426806100446000396000f3fe60806040526004361061015f5760003560e01c806381ada46c116100c0578063c4d66de811610074578063d7fd19dd11610059578063d7fd19dd146103ab578063eac93b56146103cb578063f2fde38b146103eb57600080fd5b8063c4d66de81461035b578063c6b94ab01461037b57600080fd5b80638da5cb5b116100a55780638da5cb5b146102ed57806391744b9f14610318578063b1b1b2091461032b57600080fd5b806381ada46c146102b85780638456cb59146102d857600080fd5b8063461a4478116101175780636e296e45116100fc5780636e296e451461027b5780636f1c8d4714610290578063715018a6146102a357600080fd5b8063461a4478146102435780635c975abb1461026357600080fd5b8063299ca47811610148578063299ca478146101cb5780633dbb202b1461021d57806344dd5ed61461023057600080fd5b80630ecf2eea1461016457806321d800ec14610186575b600080fd5b34801561017057600080fd5b5061018461017f366004613719565b61040b565b005b34801561019257600080fd5b506101b66101a1366004613719565b60ca6020526000908152604090205460ff1681565b60405190151581526020015b60405180910390f35b3480156101d757600080fd5b506000546101f89073ffffffffffffffffffffffffffffffffffffffff1681565b60405173ffffffffffffffffffffffffffffffffffffffff90911681526020016101c2565b61018461022b366004613891565b6104ba565b61018461023e3660046138f1565b6106d3565b34801561024f57600080fd5b506101f861025e36600461395b565b61090d565b34801561026f57600080fd5b5060655460ff166101b6565b34801561028757600080fd5b506101f86109ba565b61018461029e3660046139a4565b610a44565b3480156102af57600080fd5b50610184610a5d565b3480156102c457600080fd5b506101846102d3366004613719565b610ad0565b3480156102e457600080fd5b50610184610b77565b3480156102f957600080fd5b5060335473ffffffffffffffffffffffffffffffffffffffff166101f8565b610184610326366004613a30565b610be6565b34801561033757600080fd5b506101b6610346366004613719565b60cb6020526000908152604090205460ff1681565b34801561036757600080fd5b50610184610376366004613ac7565b610dd6565b34801561038757600080fd5b506101b6610396366004613719565b60c96020526000908152604090205460ff1681565b3480156103b757600080fd5b506101846103c6366004613cc7565b611023565b3480156103d757600080fd5b506101846103e6366004613d5a565b6110ea565b3480156103f757600080fd5b50610184610406366004613ac7565b6115bb565b60335473ffffffffffffffffffffffffffffffffffffffff1633146104775760405162461bcd60e51b815260206004820181905260248201527f4f776e61626c653a2063616c6c6572206973206e6f7420746865206f776e657260448201526064015b60405180910390fd5b600081815260c96020526040808220805460ff191660011790555182917ff52508d5339edf0d7e5060a416df98db067af561bdc60872d29c0439eaa13a0291a250565b60006104fa6040518060400160405280601281526020017f4d564d5f446973636f756e744f7261636c65000000000000000000000000000081525061090d565b6040517f9955a4b3000000000000000000000000000000000000000000000000000000008152336004820152610440602482015290915073ffffffffffffffffffffffffffffffffffffffff821690639955a4b39034906044016000604051808303818588803b15801561056d57600080fd5b505af1158015610581573d6000803e3d6000fd5b505050505060006105c66040518060400160405280601981526020017f43616e6f6e6963616c5472616e73616374696f6e436861696e0000000000000081525061090d565b905060008173ffffffffffffffffffffffffffffffffffffffff1663b8f770056040518163ffffffff1660e01b815260040160206040518083038186803b15801561061057600080fd5b505afa158015610624573d6000803e3d6000fd5b505050506040513d601f19601f820116820180604052508101906106489190613e0a565b9050600061065f8733888564ffffffffff166116b7565b905061067283828763ffffffff16611732565b8673ffffffffffffffffffffffffffffffffffffffff167f678d1db16886696652bddc90d68217be474de2ce959bf7383cb63eaa8c6f1afa338885896104406040516106c2959493929190613e81565b60405180910390a250505050505050565b60006107136040518060400160405280601281526020017f4d564d5f446973636f756e744f7261636c65000000000000000000000000000081525061090d565b6040517f9955a4b30000000000000000000000000000000000000000000000000000000081523360048201526024810187905290915073ffffffffffffffffffffffffffffffffffffffff821690639955a4b39034906044016000604051808303818588803b15801561078557600080fd5b505af1158015610799573d6000803e3d6000fd5b505050505060006107de6040518060400160405280601981526020017f43616e6f6e6963616c5472616e73616374696f6e436861696e0000000000000081525061090d565b6040517f2538f3a80000000000000000000000000000000000000000000000000000000081526004810188905290915060009073ffffffffffffffffffffffffffffffffffffffff831690632538f3a89060240160206040518083038186803b15801561084a57600080fd5b505afa15801561085e573d6000803e3d6000fd5b505050506040513d601f19601f820116820180604052508101906108829190613e0a565b905060006108998733888564ffffffffff166116b7565b90506108ad8884838863ffffffff166117d3565b8673ffffffffffffffffffffffffffffffffffffffff167f678d1db16886696652bddc90d68217be474de2ce959bf7383cb63eaa8c6f1afa338885898d6040516108fb959493929190613e81565b60405180910390a25050505050505050565b600080546040517fbf40fac100000000000000000000000000000000000000000000000000000000815273ffffffffffffffffffffffffffffffffffffffff9091169063bf40fac190610964908590600401613eda565b60206040518083038186803b15801561097c57600080fd5b505afa158015610990573d6000803e3d6000fd5b505050506040513d601f19601f820116820180604052508101906109b49190613eed565b92915050565b60cc5460009073ffffffffffffffffffffffffffffffffffffffff1661dead1415610a275760405162461bcd60e51b815260206004820152601f60248201527f78446f6d61696e4d65737361676553656e646572206973206e6f742073657400604482015260640161046e565b5060cc5473ffffffffffffffffffffffffffffffffffffffff1690565b610a55610440878787878787610be6565b505050505050565b60335473ffffffffffffffffffffffffffffffffffffffff163314610ac45760405162461bcd60e51b815260206004820181905260248201527f4f776e61626c653a2063616c6c6572206973206e6f7420746865206f776e6572604482015260640161046e565b610ace6000611877565b565b60335473ffffffffffffffffffffffffffffffffffffffff163314610b375760405162461bcd60e51b815260206004820181905260248201527f4f776e61626c653a2063616c6c6572206973206e6f7420746865206f776e6572604482015260640161046e565b600081815260c96020526040808220805460ff191690555182917f52c8a2680a9f4cc0ad0bf88f32096eadbebf0646ea611d93a0ce6a29a024040591a250565b60335473ffffffffffffffffffffffffffffffffffffffff163314610bde5760405162461bcd60e51b815260206004820181905260248201527f4f776e61626c653a2063616c6c6572206973206e6f7420746865206f776e6572604482015260640161046e565b610ace6118ee565b6000610c266040518060400160405280601981526020017f43616e6f6e6963616c5472616e73616374696f6e436861696e0000000000000081525061090d565b6040517fa16d359a000000000000000000000000000000000000000000000000000000008152600481018a90526024810186905290915060009073ffffffffffffffffffffffffffffffffffffffff83169063a16d359a9060440160606040518083038186803b158015610c9957600080fd5b505afa158015610cad573d6000803e3d6000fd5b505050506040513d601f19601f82011682018060405250810190610cd19190613f0a565b90506000610ce1898989896116b7565b9050600073111100000000000000000000000000000000111130017342000000000000000000000000000000000000078784604051602001610d269493929190613f6f565b60405160208183030381529060405280519060200120905082600001518114610db75760405162461bcd60e51b815260206004820152602760248201527f50726f7669646564206d65737361676520686173206e6f74206265656e20656e60448201527f7175657565642e00000000000000000000000000000000000000000000000000606482015260840161046e565b610dc98b85848863ffffffff166117d3565b5050505050505050505050565b6000547501000000000000000000000000000000000000000000900460ff1680610e1b575060005474010000000000000000000000000000000000000000900460ff16155b610e8d5760405162461bcd60e51b815260206004820152602e60248201527f496e697469616c697a61626c653a20636f6e747261637420697320616c72656160448201527f647920696e697469616c697a6564000000000000000000000000000000000000606482015260840161046e565b6000547501000000000000000000000000000000000000000000900460ff16158015610ef457600080547fffffffffffffffffffff0000ffffffffffffffffffffffffffffffffffffffff1675010100000000000000000000000000000000000000001790555b60005473ffffffffffffffffffffffffffffffffffffffff1615610f805760405162461bcd60e51b815260206004820152602a60248201527f4c3143726f7373446f6d61696e4d657373656e67657220616c7265616479206960448201527f6e7469616c697a65642e00000000000000000000000000000000000000000000606482015260840161046e565b6000805473ffffffffffffffffffffffffffffffffffffffff84167fffffffffffffffffffffffff00000000000000000000000000000000000000009182161790915560cc805490911661dead179055610fd86119a0565b610fe0611aef565b610fe8611c16565b610ff0611d6f565b801561101f57600080547fffffffffffffffffffff00ffffffffffffffffffffffffffffffffffffffffff1690555b5050565b600260975414156110765760405162461bcd60e51b815260206004820152601f60248201527f5265656e7472616e637947756172643a207265656e7472616e742063616c6c00604482015260640161046e565b600260975560655460ff16156110ce5760405162461bcd60e51b815260206004820152601060248201527f5061757361626c653a2070617573656400000000000000000000000000000000604482015260640161046e565b6110de61044086868686866110ea565b50506001609755505050565b6002609754141561113d5760405162461bcd60e51b815260206004820152601f60248201527f5265656e7472616e637947756172643a207265656e7472616e742063616c6c00604482015260640161046e565b600260975560655460ff16156111955760405162461bcd60e51b815260206004820152601060248201527f5061757361626c653a2070617573656400000000000000000000000000000000604482015260640161046e565b60006111a3868686866116b7565b90506111b0878284611ec3565b15156001146112275760405162461bcd60e51b815260206004820152602760248201527f50726f7669646564206d65737361676520636f756c64206e6f7420626520766560448201527f7269666965642e00000000000000000000000000000000000000000000000000606482015260840161046e565b8051602080830191909120600081815260cb90925260409091205460ff16156112b85760405162461bcd60e51b815260206004820152602b60248201527f50726f7669646564206d6573736167652068617320616c72656164792062656560448201527f6e2072656365697665642e000000000000000000000000000000000000000000606482015260840161046e565b600081815260c9602052604090205460ff161561133d5760405162461bcd60e51b815260206004820152602260248201527f50726f7669646564206d65737361676520686173206265656e20626c6f636b6560448201527f642e000000000000000000000000000000000000000000000000000000000000606482015260840161046e565b61137b6040518060400160405280601981526020017f43616e6f6e6963616c5472616e73616374696f6e436861696e0000000000000081525061090d565b73ffffffffffffffffffffffffffffffffffffffff168773ffffffffffffffffffffffffffffffffffffffff16141561141c5760405162461bcd60e51b815260206004820152603360248201527f43616e6e6f742073656e64204c322d3e4c31206d6573736167657320746f204c60448201527f312073797374656d20636f6e7472616374732e00000000000000000000000000606482015260840161046e565b60cc80547fffffffffffffffffffffffff00000000000000000000000000000000000000001673ffffffffffffffffffffffffffffffffffffffff88811691909117909155604051600091891690611475908890613fb4565b6000604051808303816000865af19150503d80600081146114b2576040519150601f19603f3d011682016040523d82523d6000602084013e6114b7565b606091505b505060cc80547fffffffffffffffffffffffff00000000000000000000000000000000000000001661dead17905590508015156001141561153757600082815260cb6020526040808220805460ff191660011790555183917f4641df4a962071e12719d8c8c8e5ac7fc4d97b927346a3d7a335b1f7517e133c91a2611563565b60405182907f99d0e048484baa1b1540b1367cb128acd7ab2946d1ed91ec10e3c85e4bf51b8f90600090a25b600083334360405160200161157a93929190613fd0565b60408051601f198184030181529181528151602092830120600090815260ca9092529020805460ff1916600190811790915560975550505050505050505050565b60335473ffffffffffffffffffffffffffffffffffffffff1633146116225760405162461bcd60e51b815260206004820181905260248201527f4f776e61626c653a2063616c6c6572206973206e6f7420746865206f776e6572604482015260640161046e565b73ffffffffffffffffffffffffffffffffffffffff81166116ab5760405162461bcd60e51b815260206004820152602660248201527f4f776e61626c653a206e6577206f776e657220697320746865207a65726f206160448201527f6464726573730000000000000000000000000000000000000000000000000000606482015260840161046e565b6116b481611877565b50565b6060848484846040516024016116d09493929190614022565b60408051601f198184030181529190526020810180517bffffffffffffffffffffffffffffffffffffffffffffffffffffffff167fcbd4ece9000000000000000000000000000000000000000000000000000000001790529050949350505050565b6040517f6fee07e000000000000000000000000000000000000000000000000000000000815273ffffffffffffffffffffffffffffffffffffffff841690636fee07e09061179c90734200000000000000000000000000000000000007908590879060040161406c565b600060405180830381600087803b1580156117b657600080fd5b505af11580156117ca573d6000803e3d6000fd5b50505050505050565b6040517f511da53100000000000000000000000000000000000000000000000000000000815273ffffffffffffffffffffffffffffffffffffffff84169063511da5319061183f90879073420000000000000000000000000000000000000790869088906004016140a1565b600060405180830381600087803b15801561185957600080fd5b505af115801561186d573d6000803e3d6000fd5b5050505050505050565b6033805473ffffffffffffffffffffffffffffffffffffffff8381167fffffffffffffffffffffffff0000000000000000000000000000000000000000831681179093556040519116919082907f8be0079c531659141344cd1fd0a4f28419497f9722a3daafe3b4186f6b6457e090600090a35050565b60655460ff16156119415760405162461bcd60e51b815260206004820152601060248201527f5061757361626c653a2070617573656400000000000000000000000000000000604482015260640161046e565b6065805460ff191660011790557f62e78cea01bee320cd4e420270b5ea74000d11b0c9f74754ebdbfc544b05a2586119763390565b60405173ffffffffffffffffffffffffffffffffffffffff909116815260200160405180910390a1565b6000547501000000000000000000000000000000000000000000900460ff16806119e5575060005474010000000000000000000000000000000000000000900460ff16155b611a575760405162461bcd60e51b815260206004820152602e60248201527f496e697469616c697a61626c653a20636f6e747261637420697320616c72656160448201527f647920696e697469616c697a6564000000000000000000000000000000000000606482015260840161046e565b6000547501000000000000000000000000000000000000000000900460ff16158015611abe57600080547fffffffffffffffffffff0000ffffffffffffffffffffffffffffffffffffffff1675010100000000000000000000000000000000000000001790555b80156116b457600080547fffffffffffffffffffff00ffffffffffffffffffffffffffffffffffffffffff16905550565b6000547501000000000000000000000000000000000000000000900460ff1680611b34575060005474010000000000000000000000000000000000000000900460ff16155b611ba65760405162461bcd60e51b815260206004820152602e60248201527f496e697469616c697a61626c653a20636f6e747261637420697320616c72656160448201527f647920696e697469616c697a6564000000000000000000000000000000000000606482015260840161046e565b6000547501000000000000000000000000000000000000000000900460ff16158015611c0d57600080547fffffffffffffffffffff0000ffffffffffffffffffffffffffffffffffffffff1675010100000000000000000000000000000000000000001790555b611abe33611877565b6000547501000000000000000000000000000000000000000000900460ff1680611c5b575060005474010000000000000000000000000000000000000000900460ff16155b611ccd5760405162461bcd60e51b815260206004820152602e60248201527f496e697469616c697a61626c653a20636f6e747261637420697320616c72656160448201527f647920696e697469616c697a6564000000000000000000000000000000000000606482015260840161046e565b6000547501000000000000000000000000000000000000000000900460ff16158015611d3457600080547fffffffffffffffffffff0000ffffffffffffffffffffffffffffffffffffffff1675010100000000000000000000000000000000000000001790555b6065805460ff1916905580156116b457600080547fffffffffffffffffffff00ffffffffffffffffffffffffffffffffffffffffff16905550565b6000547501000000000000000000000000000000000000000000900460ff1680611db4575060005474010000000000000000000000000000000000000000900460ff16155b611e265760405162461bcd60e51b815260206004820152602e60248201527f496e697469616c697a61626c653a20636f6e747261637420697320616c72656160448201527f647920696e697469616c697a6564000000000000000000000000000000000000606482015260840161046e565b6000547501000000000000000000000000000000000000000000900460ff16158015611e8d57600080547fffffffffffffffffffff0000ffffffffffffffffffffffffffffffffffffffff1675010100000000000000000000000000000000000000001790555b600160975580156116b457600080547fffffffffffffffffffff00ffffffffffffffffffffffffffffffffffffffffff16905550565b6000611ecf8483611eeb565b8015611ee15750611ee1848484612095565b90505b9392505050565b600080611f2c6040518060400160405280601481526020017f5374617465436f6d6d69746d656e74436861696e00000000000000000000000081525061090d565b60208401516040517f6d3454bf00000000000000000000000000000000000000000000000000000000815291925073ffffffffffffffffffffffffffffffffffffffff831691636d3454bf91611f8791889190600401614119565b60206040518083038186803b158015611f9f57600080fd5b505afa158015611fb3573d6000803e3d6000fd5b505050506040513d601f19601f82011682018060405250810190611fd79190614132565b15801561208d57508251602084015160408086015190517f80931e3700000000000000000000000000000000000000000000000000000000815273ffffffffffffffffffffffffffffffffffffffff8516936380931e379361203d938a93600401614154565b60206040518083038186803b15801561205557600080fd5b505afa158015612069573d6000803e3d6000fd5b505050506040513d601f19601f8201168201806040525081019061208d9190614132565b949350505050565b600080837342000000000000000000000000000000000000076040516020016120bf9291906141d3565b60408051601f1981840301815282825280516020918201209083015260009082015260600160408051601f198184030181529082905280516020918201207f4200000000000000000000000000000000000000000000000000000000000000918301919091529150600090819061214f9060340160408051601f198184030181529190526060870151875161227a565b90925090506001821515146121f25760405162461bcd60e51b815260206004820152604d60248201527f4d6573736167652070617373696e67207072656465706c6f7920686173206e6f60448201527f74206265656e20696e697469616c697a6564206f7220696e76616c696420707260648201527f6f6f662070726f76696465642e00000000000000000000000000000000000000608482015260a40161046e565b60006121fd826122a3565b905061226e8460405160200161221591815260200190565b60408051601f19818403018152908290527f010000000000000000000000000000000000000000000000000000000000000060208301529060210160405160208183030381529060405288608001518460400151612367565b98975050505050505050565b6000606060006122898661238b565b90506122968186866123bd565b9250925050935093915050565b6040805160808101825260008082526020820181905291810182905260608101829052906122d083612498565b90506040518060800160405280612300836000815181106122f3576122f361421d565b60200260200101516124cb565b815260200161231b836001815181106122f3576122f361421d565b8152602001612343836002815181106123365761233661421d565b60200260200101516124d2565b815260200161235e836003815181106123365761233661421d565b90529392505050565b6000806123738661238b565b9050612381818686866125d4565b9695505050505050565b606081805190602001206040516020016123a791815260200190565b6040516020818303038152906040529050919050565b6000606060006123cc85612611565b905060008060006123de848a8961270c565b815192955090935091501580806123f25750815b61243e5760405162461bcd60e51b815260206004820152601a60248201527f50726f76696465642070726f6f6620697320696e76616c69642e000000000000604482015260640161046e565b60008161245a5760405180602001604052806000815250612486565b6124868661246960018861427b565b815181106124795761247961421d565b6020026020010151612ba7565b919b919a509098505050505050505050565b6040805180820182526000808252602091820152815180830190925282518252808301908201526060906109b490612bd1565b60006109b4825b60006021826000015111156125295760405162461bcd60e51b815260206004820152601a60248201527f496e76616c696420524c5020627974657333322076616c75652e000000000000604482015260640161046e565b600080600061253785612dd0565b91945092509050600081600181111561255257612552614292565b1461259f5760405162461bcd60e51b815260206004820152601a60248201527f496e76616c696420524c5020627974657333322076616c75652e000000000000604482015260640161046e565b60008386602001516125b191906142c1565b805190915060208410156123815760208490036101000a90049695505050505050565b60008060006125e48786866123bd565b9150915081801561260657508051602080830191909120875191880191909120145b979650505050505050565b6060600061261e83612498565b90506000815167ffffffffffffffff81111561263c5761263c613754565b60405190808252806020026020018201604052801561268157816020015b604080518082019091526060808252602082015281526020019060019003908161265a5790505b50905060005b82518110156127045760006126b48483815181106126a7576126a761421d565b6020026020010151613121565b905060405180604001604052808281526020016126d083612498565b8152508383815181106126e5576126e561421d565b60200260200101819052505080806126fc906142d9565b915050612687565b509392505050565b6000606081808061271c876131b1565b90506000869050600080612743604051806040016040528060608152602001606081525090565b60005b8c51811015612b63578c81815181106127615761276161421d565b60200260200101519150828461277791906142c1565b93506127846001886142c1565b9650836127e8578151805160209091012085146127e35760405162461bcd60e51b815260206004820152601160248201527f496e76616c696420726f6f742068617368000000000000000000000000000000604482015260640161046e565b6128a5565b81515160201161284a578151805160209091012085146127e35760405162461bcd60e51b815260206004820152601b60248201527f496e76616c6964206c6172676520696e7465726e616c20686173680000000000604482015260640161046e565b846128588360000151613334565b146128a55760405162461bcd60e51b815260206004820152601a60248201527f496e76616c696420696e7465726e616c206e6f64652068617368000000000000604482015260640161046e565b6128b1601060016142c1565b826020015151141561292a5785518414156128cb57612b63565b60008685815181106128df576128df61421d565b602001015160f81c60f81b60f81c9050600083602001518260ff168151811061290a5761290a61421d565b6020026020010151905061291d8161335c565b9650600194505050612b51565b60028260200151511415612b0957600061294383613392565b905060008160008151811061295a5761295a61421d565b016020015160f81c90506000612971600283614341565b61297c906002614363565b9050600061298d848360ff166133b6565b9050600061299b8b8a6133b6565b905060006129a983836133ec565b905060ff8516600214806129c0575060ff85166003145b15612a16578083511480156129d55750808251145b156129e7576129e4818b6142c1565b99505b507f80000000000000000000000000000000000000000000000000000000000000009950612b63945050505050565b60ff85161580612a29575060ff85166001145b15612a9b5782518114612a6557507f80000000000000000000000000000000000000000000000000000000000000009950612b63945050505050565b612a8c8860200151600181518110612a7f57612a7f61421d565b602002602001015161335c565b9a509750612b51945050505050565b60405162461bcd60e51b815260206004820152602660248201527f52656365697665642061206e6f6465207769746820616e20756e6b6e6f776e2060448201527f7072656669780000000000000000000000000000000000000000000000000000606482015260840161046e565b60405162461bcd60e51b815260206004820152601d60248201527f526563656976656420616e20756e706172736561626c65206e6f64652e000000604482015260640161046e565b80612b5b816142d9565b915050612746565b507f8000000000000000000000000000000000000000000000000000000000000000841486612b9287866133b6565b909e909d50909b509950505050505050505050565b602081015180516060916109b491612bc19060019061427b565b815181106126a7576126a761421d565b6060600080612bdf84612dd0565b91935090915060019050816001811115612bfb57612bfb614292565b14612c485760405162461bcd60e51b815260206004820152601760248201527f496e76616c696420524c50206c6973742076616c75652e000000000000000000604482015260640161046e565b6040805160208082526104208201909252600091816020015b6040805180820190915260008082526020820152815260200190600190039081612c615790505090506000835b8651811015612dc55760208210612d0d5760405162461bcd60e51b815260206004820152602a60248201527f50726f766964656420524c50206c6973742065786365656473206d6178206c6960448201527f7374206c656e6774682e00000000000000000000000000000000000000000000606482015260840161046e565b600080612d4a6040518060400160405280858c60000151612d2e919061427b565b8152602001858c60200151612d4391906142c1565b9052612dd0565b509150915060405180604001604052808383612d6691906142c1565b8152602001848b60200151612d7b91906142c1565b815250858581518110612d9057612d9061421d565b6020908102919091010152612da66001856142c1565b9350612db281836142c1565b612dbc90846142c1565b92505050612c8e565b508152949350505050565b600080600080846000015111612e285760405162461bcd60e51b815260206004820152601860248201527f524c50206974656d2063616e6e6f74206265206e756c6c2e0000000000000000604482015260640161046e565b6020840151805160001a607f8111612e4d57600060016000945094509450505061311a565b60b78111612ec9576000612e6260808361427b565b905080876000015111612eb75760405162461bcd60e51b815260206004820152601960248201527f496e76616c696420524c502073686f727420737472696e672e00000000000000604482015260640161046e565b6001955093506000925061311a915050565b60bf8111612fb8576000612ede60b78361427b565b905080876000015111612f335760405162461bcd60e51b815260206004820152601f60248201527f496e76616c696420524c50206c6f6e6720737472696e67206c656e6774682e00604482015260640161046e565b600183015160208290036101000a9004612f4d81836142c1565b885111612f9c5760405162461bcd60e51b815260206004820152601860248201527f496e76616c696420524c50206c6f6e6720737472696e672e0000000000000000604482015260640161046e565b612fa78260016142c1565b965094506000935061311a92505050565b60f78111613033576000612fcd60c08361427b565b9050808760000151116130225760405162461bcd60e51b815260206004820152601760248201527f496e76616c696420524c502073686f7274206c6973742e000000000000000000604482015260640161046e565b60019550935084925061311a915050565b600061304060f78361427b565b9050808760000151116130955760405162461bcd60e51b815260206004820152601d60248201527f496e76616c696420524c50206c6f6e67206c697374206c656e6774682e000000604482015260640161046e565b600183015160208290036101000a90046130af81836142c1565b8851116130fe5760405162461bcd60e51b815260206004820152601660248201527f496e76616c696420524c50206c6f6e67206c6973742e00000000000000000000604482015260640161046e565b6131098260016142c1565b965094506001935061311a92505050565b9193909250565b6060600080600061313185612dd0565b91945092509050600081600181111561314c5761314c614292565b146131995760405162461bcd60e51b815260206004820152601860248201527f496e76616c696420524c502062797465732076616c75652e0000000000000000604482015260640161046e565b6131a885602001518484613498565b95945050505050565b60606000825160026131c39190614386565b67ffffffffffffffff8111156131db576131db613754565b6040519080825280601f01601f191660200182016040528015613205576020820181803683370190505b50905060005b835181101561332d5760048482815181106132285761322861421d565b01602001517fff0000000000000000000000000000000000000000000000000000000000000016901c8261325d836002614386565b8151811061326d5761326d61421d565b60200101907effffffffffffffffffffffffffffffffffffffffffffffffffffffffffffff1916908160001a90535060108482815181106132b0576132b061421d565b01602001516132c2919060f81c614341565b60f81b826132d1836002614386565b6132dc9060016142c1565b815181106132ec576132ec61421d565b60200101907effffffffffffffffffffffffffffffffffffffffffffffffffffffffffffff1916908160001a90535080613325816142d9565b91505061320b565b5092915050565b600060208251101561334857506020015190565b818060200190518101906109b491906143c3565b6000606060208360000151101561337d5761337683613577565b9050613389565b61338683613121565b90505b611ee481613334565b60606109b46133b183602001516000815181106126a7576126a761421d565b6131b1565b6060825182106133d557506040805160208101909152600081526109b4565b611ee483838486516133e7919061427b565b613582565b6000805b8084511180156134005750808351115b801561348157508281815181106134195761341961421d565b602001015160f81c60f81b7effffffffffffffffffffffffffffffffffffffffffffffffffffffffffffff19168482815181106134585761345861421d565b01602001517fff0000000000000000000000000000000000000000000000000000000000000016145b15611ee45780613490816142d9565b9150506133f0565b606060008267ffffffffffffffff8111156134b5576134b5613754565b6040519080825280601f01601f1916602001820160405280156134df576020820181803683370190505b5090508051600014156134f3579050611ee4565b60006134ff85876142c1565b90506020820160005b6135136020876143dc565b81101561354a57825182526135296020846142c1565b92506135366020836142c1565b915080613542816142d9565b915050613508565b5060006001602087066020036101000a039050808251168119845116178252839450505050509392505050565b60606109b482613703565b60608161359081601f6142c1565b10156135de5760405162461bcd60e51b815260206004820152600e60248201527f736c6963655f6f766572666c6f77000000000000000000000000000000000000604482015260640161046e565b826135e983826142c1565b10156136375760405162461bcd60e51b815260206004820152600e60248201527f736c6963655f6f766572666c6f77000000000000000000000000000000000000604482015260640161046e565b61364182846142c1565b845110156136915760405162461bcd60e51b815260206004820152601160248201527f736c6963655f6f75744f66426f756e6473000000000000000000000000000000604482015260640161046e565b6060821580156136b057604051915060008252602082016040526136fa565b6040519150601f8416801560200281840101858101878315602002848b0101015b818310156136e95780518352602092830192016136d1565b5050858452601f01601f1916604052505b50949350505050565b60606109b4826020015160008460000151613498565b60006020828403121561372b57600080fd5b5035919050565b73ffffffffffffffffffffffffffffffffffffffff811681146116b457600080fd5b7f4e487b7100000000000000000000000000000000000000000000000000000000600052604160045260246000fd5b60405160a0810167ffffffffffffffff811182821017156137a6576137a6613754565b60405290565b6040805190810167ffffffffffffffff811182821017156137a6576137a6613754565b604051601f8201601f1916810167ffffffffffffffff811182821017156137f8576137f8613754565b604052919050565b600067ffffffffffffffff83111561381a5761381a613754565b61382d6020601f19601f860116016137cf565b905082815283838301111561384157600080fd5b828260208301376000602084830101529392505050565b600082601f83011261386957600080fd5b611ee483833560208501613800565b803563ffffffff8116811461388c57600080fd5b919050565b6000806000606084860312156138a657600080fd5b83356138b181613732565b9250602084013567ffffffffffffffff8111156138cd57600080fd5b6138d986828701613858565b9250506138e860408501613878565b90509250925092565b6000806000806080858703121561390757600080fd5b84359350602085013561391981613732565b9250604085013567ffffffffffffffff81111561393557600080fd5b61394187828801613858565b92505061395060608601613878565b905092959194509250565b60006020828403121561396d57600080fd5b813567ffffffffffffffff81111561398457600080fd5b8201601f8101841361399557600080fd5b61208d84823560208401613800565b60008060008060008060c087890312156139bd57600080fd5b86356139c881613732565b955060208701356139d881613732565b9450604087013567ffffffffffffffff8111156139f457600080fd5b613a0089828a01613858565b94505060608701359250613a1660808801613878565b9150613a2460a08801613878565b90509295509295509295565b600080600080600080600060e0888a031215613a4b57600080fd5b873596506020880135613a5d81613732565b95506040880135613a6d81613732565b9450606088013567ffffffffffffffff811115613a8957600080fd5b613a958a828b01613858565b94505060808801359250613aab60a08901613878565b9150613ab960c08901613878565b905092959891949750929550565b600060208284031215613ad957600080fd5b8135611ee481613732565b600060a08284031215613af657600080fd5b613afe613783565b905081358152602082013560208201526040820135604082015260608201356060820152608082013567ffffffffffffffff811115613b3c57600080fd5b613b4884828501613858565b60808301525092915050565b600060408284031215613b6657600080fd5b613b6e6137ac565b90508135815260208083013567ffffffffffffffff80821115613b9057600080fd5b818501915085601f830112613ba457600080fd5b813581811115613bb657613bb6613754565b8060051b9150613bc78483016137cf565b8181529183018401918481019088841115613be157600080fd5b938501935b83851015613bff57843582529385019390850190613be6565b808688015250505050505092915050565b600060a08284031215613c2257600080fd5b613c2a613783565b905081358152602082013567ffffffffffffffff80821115613c4b57600080fd5b613c5785838601613ae4565b60208401526040840135915080821115613c7057600080fd5b613c7c85838601613b54565b60408401526060840135915080821115613c9557600080fd5b613ca185838601613858565b60608401526080840135915080821115613cba57600080fd5b50613b4884828501613858565b600080600080600060a08688031215613cdf57600080fd5b8535613cea81613732565b94506020860135613cfa81613732565b9350604086013567ffffffffffffffff80821115613d1757600080fd5b613d2389838a01613858565b9450606088013593506080880135915080821115613d4057600080fd5b50613d4d88828901613c10565b9150509295509295909350565b60008060008060008060c08789031215613d7357600080fd5b863595506020870135613d8581613732565b94506040870135613d9581613732565b9350606087013567ffffffffffffffff80821115613db257600080fd5b613dbe8a838b01613858565b94506080890135935060a0890135915080821115613ddb57600080fd5b50613de889828a01613c10565b9150509295509295509295565b805164ffffffffff8116811461388c57600080fd5b600060208284031215613e1c57600080fd5b611ee482613df5565b60005b83811015613e40578181015183820152602001613e28565b83811115613e4f576000848401525b50505050565b60008151808452613e6d816020860160208601613e25565b601f01601f19169290920160200192915050565b73ffffffffffffffffffffffffffffffffffffffff8616815260a060208201526000613eb060a0830187613e55565b64ffffffffff9590951660408301525063ffffffff92909216606083015260809091015292915050565b602081526000611ee46020830184613e55565b600060208284031215613eff57600080fd5b8151611ee481613732565b600060608284031215613f1c57600080fd5b6040516060810181811067ffffffffffffffff82111715613f3f57613f3f613754565b60405282518152613f5260208401613df5565b6020820152613f6360408401613df5565b60408201529392505050565b600073ffffffffffffffffffffffffffffffffffffffff808716835280861660208401525063ffffffff84166040830152608060608301526123816080830184613e55565b60008251613fc6818460208701613e25565b9190910192915050565b60008451613fe2818460208901613e25565b60609490941b7fffffffffffffffffffffffffffffffffffffffff0000000000000000000000001691909301908152601481019190915260340192915050565b600073ffffffffffffffffffffffffffffffffffffffff80871683528086166020840152506080604083015261405b6080830185613e55565b905082606083015295945050505050565b73ffffffffffffffffffffffffffffffffffffffff841681528260208201526060604082015260006131a86060830184613e55565b84815273ffffffffffffffffffffffffffffffffffffffff841660208201528260408201526080606082015260006123816080830184613e55565b805182526020810151602083015260408101516040830152606081015160608301526000608082015160a0608085015261208d60a0850182613e55565b828152604060208201526000611ee160408301846140dc565b60006020828403121561414457600080fd5b81518015158114611ee457600080fd5b8481526000602085818401526080604084015261417460808401866140dc565b83810360608501526040810185518252828601516040848401528181518084526060850191508583019450600093505b808410156141c457845182529385019360019390930192908501906141a4565b509a9950505050505050505050565b600083516141e5818460208801613e25565b60609390931b7fffffffffffffffffffffffffffffffffffffffff000000000000000000000000169190920190815260140192915050565b7f4e487b7100000000000000000000000000000000000000000000000000000000600052603260045260246000fd5b7f4e487b7100000000000000000000000000000000000000000000000000000000600052601160045260246000fd5b60008282101561428d5761428d61424c565b500390565b7f4e487b7100000000000000000000000000000000000000000000000000000000600052602160045260246000fd5b600082198211156142d4576142d461424c565b500190565b60007fffffffffffffffffffffffffffffffffffffffffffffffffffffffffffffffff82141561430b5761430b61424c565b5060010190565b7f4e487b7100000000000000000000000000000000000000000000000000000000600052601260045260246000fd5b600060ff83168061435457614354614312565b8060ff84160691505092915050565b600060ff821660ff84168082101561437d5761437d61424c565b90039392505050565b6000817fffffffffffffffffffffffffffffffffffffffffffffffffffffffffffffffff04831182151516156143be576143be61424c565b500290565b6000602082840312156143d557600080fd5b5051919050565b6000826143eb576143eb614312565b50049056fea2646970667358221220440f40386e559e8897f398cde7026851b19a1c8bd896bdbc0c8bdcc8bab2105264736f6c63430008090033",
  "devdoc": {
    "details": "The L1 Cross Domain Messenger contract sends messages from L1 to L2, and relays messages from L2 onto L1. In the event that a message sent from L1 to L2 is rejected for exceeding the L2 epoch gas limit, it can be resubmitted via this contract's replay function. Runtime target: EVM",
    "kind": "dev",
    "methods": {
      "allowMessage(bytes32)": {
        "params": {
          "_xDomainCalldataHash": "Hash of the message to block."
        }
      },
      "blockMessage(bytes32)": {
        "params": {
          "_xDomainCalldataHash": "Hash of the message to block."
        }
      },
      "initialize(address)": {
        "params": {
          "_libAddressManager": "Address of the Address Manager."
        }
      },
      "owner()": {
        "details": "Returns the address of the current owner."
      },
      "paused()": {
        "details": "Returns true if the contract is paused, and false otherwise."
      },
      "relayMessage(address,address,bytes,uint256,(bytes32,(uint256,bytes32,uint256,uint256,bytes),(uint256,bytes32[]),bytes,bytes))": {
        "params": {
          "_message": "Message to send to the target.",
          "_messageNonce": "Nonce for the provided message.",
          "_proof": "Inclusion proof for the given message.",
          "_sender": "Message sender address.",
          "_target": "Target contract address."
        }
      },
      "relayMessageViaChainId(uint256,address,address,bytes,uint256,(bytes32,(uint256,bytes32,uint256,uint256,bytes),(uint256,bytes32[]),bytes,bytes))": {
        "params": {
          "_chainId": "L2 chain id.",
          "_message": "Message to send to the target.",
          "_messageNonce": "Nonce for the provided message.",
          "_proof": "Inclusion proof for the given message.",
          "_sender": "Message sender address.",
          "_target": "Target contract address."
        }
      },
      "renounceOwnership()": {
        "details": "Leaves the contract without owner. It will not be possible to call `onlyOwner` functions anymore. Can only be called by the current owner. NOTE: Renouncing ownership will leave the contract without an owner, thereby removing any functionality that is only available to the owner."
      },
      "replayMessage(address,address,bytes,uint256,uint32,uint32)": {
        "params": {
          "_message": "Message to send to the target.",
          "_newGasLimit": "New gas limit to be used for this message.",
          "_oldGasLimit": "Original gas limit used to send the message.",
          "_queueIndex": "CTC Queue index for the message to replay.",
          "_sender": "Original sender address.",
          "_target": "Target contract address."
        }
      },
      "resolve(string)": {
        "params": {
          "_name": "Name to resolve an address for."
        },
        "returns": {
          "_0": "Address associated with the given name."
        }
      },
      "sendMessage(address,bytes,uint32)": {
        "params": {
          "_gasLimit": "Gas limit for the provided message.",
          "_message": "Message to send to the target.",
          "_target": "Target contract address."
        }
      },
      "sendMessageViaChainId(uint256,address,bytes,uint32)": {
        "params": {
          "_chainId": "L2 chain id.",
          "_gasLimit": "Gas limit for the provided message.",
          "_message": "Message to send to the target.",
          "_target": "Target contract address."
        }
      },
      "transferOwnership(address)": {
        "details": "Transfers ownership of the contract to a new account (`newOwner`). Can only be called by the current owner."
      }
    },
    "title": "L1CrossDomainMessenger",
    "version": 1
  },
  "userdoc": {
    "kind": "user",
    "methods": {
      "allowMessage(bytes32)": {
        "notice": "Allow a message."
      },
      "blockMessage(bytes32)": {
        "notice": "Block a message."
      },
      "constructor": {
        "notice": "This contract is intended to be behind a delegate proxy. We pass the zero address to the address resolver just to satisfy the constructor. We still need to set this value in initialize()."
      },
      "pause()": {
        "notice": "Pause relaying."
      },
      "relayMessage(address,address,bytes,uint256,(bytes32,(uint256,bytes32,uint256,uint256,bytes),(uint256,bytes32[]),bytes,bytes))": {
        "notice": "Relays a cross domain message to a contract."
      },
      "relayMessageViaChainId(uint256,address,address,bytes,uint256,(bytes32,(uint256,bytes32,uint256,uint256,bytes),(uint256,bytes32[]),bytes,bytes))": {
        "notice": "Relays a cross domain message to a contract with L2 chain id."
      },
      "replayMessage(address,address,bytes,uint256,uint32,uint32)": {
        "notice": "Replays a cross domain message to the target messenger."
      },
      "replayMessageViaChainId(uint256,address,address,bytes,uint256,uint32,uint32)": {
        "notice": "Replays a cross domain message to the target messenger. "
      },
      "resolve(string)": {
        "notice": "Resolves the address associated with a given name."
      },
      "sendMessage(address,bytes,uint32)": {
        "notice": "Sends a cross domain message to the target messenger."
      },
      "sendMessageViaChainId(uint256,address,bytes,uint32)": {
        "notice": "Sends a cross domain message to the target messenger."
      }
    },
    "version": 1
  },
  "storageLayout": {
    "storage": [
      {
        "astId": 13951,
        "contract": "contracts/L1/messaging/L1CrossDomainMessenger.sol:L1CrossDomainMessenger",
        "label": "libAddressManager",
        "offset": 0,
        "slot": "0",
        "type": "t_contract(Lib_AddressManager)13943"
      },
      {
        "astId": 130,
        "contract": "contracts/L1/messaging/L1CrossDomainMessenger.sol:L1CrossDomainMessenger",
        "label": "_initialized",
        "offset": 20,
        "slot": "0",
        "type": "t_bool"
      },
      {
        "astId": 133,
        "contract": "contracts/L1/messaging/L1CrossDomainMessenger.sol:L1CrossDomainMessenger",
        "label": "_initializing",
        "offset": 21,
        "slot": "0",
        "type": "t_bool"
      },
      {
        "astId": 384,
        "contract": "contracts/L1/messaging/L1CrossDomainMessenger.sol:L1CrossDomainMessenger",
        "label": "__gap",
        "offset": 0,
        "slot": "1",
        "type": "t_array(t_uint256)50_storage"
      },
      {
        "astId": 10,
        "contract": "contracts/L1/messaging/L1CrossDomainMessenger.sol:L1CrossDomainMessenger",
        "label": "_owner",
        "offset": 0,
        "slot": "51",
        "type": "t_address"
      },
      {
        "astId": 123,
        "contract": "contracts/L1/messaging/L1CrossDomainMessenger.sol:L1CrossDomainMessenger",
        "label": "__gap",
        "offset": 0,
        "slot": "52",
        "type": "t_array(t_uint256)49_storage"
      },
      {
        "astId": 191,
        "contract": "contracts/L1/messaging/L1CrossDomainMessenger.sol:L1CrossDomainMessenger",
        "label": "_paused",
        "offset": 0,
        "slot": "101",
        "type": "t_bool"
      },
      {
        "astId": 282,
        "contract": "contracts/L1/messaging/L1CrossDomainMessenger.sol:L1CrossDomainMessenger",
        "label": "__gap",
        "offset": 0,
        "slot": "102",
        "type": "t_array(t_uint256)49_storage"
      },
      {
        "astId": 297,
        "contract": "contracts/L1/messaging/L1CrossDomainMessenger.sol:L1CrossDomainMessenger",
        "label": "_status",
        "offset": 0,
        "slot": "151",
        "type": "t_uint256"
      },
      {
        "astId": 340,
        "contract": "contracts/L1/messaging/L1CrossDomainMessenger.sol:L1CrossDomainMessenger",
        "label": "__gap",
        "offset": 0,
        "slot": "152",
        "type": "t_array(t_uint256)49_storage"
      },
      {
        "astId": 2287,
        "contract": "contracts/L1/messaging/L1CrossDomainMessenger.sol:L1CrossDomainMessenger",
        "label": "blockedMessages",
        "offset": 0,
        "slot": "201",
        "type": "t_mapping(t_bytes32,t_bool)"
      },
      {
        "astId": 2291,
        "contract": "contracts/L1/messaging/L1CrossDomainMessenger.sol:L1CrossDomainMessenger",
        "label": "relayedMessages",
        "offset": 0,
        "slot": "202",
        "type": "t_mapping(t_bytes32,t_bool)"
      },
      {
        "astId": 2295,
        "contract": "contracts/L1/messaging/L1CrossDomainMessenger.sol:L1CrossDomainMessenger",
        "label": "successfulMessages",
        "offset": 0,
        "slot": "203",
        "type": "t_mapping(t_bytes32,t_bool)"
      },
      {
        "astId": 2299,
        "contract": "contracts/L1/messaging/L1CrossDomainMessenger.sol:L1CrossDomainMessenger",
        "label": "xDomainMsgSender",
        "offset": 0,
        "slot": "204",
        "type": "t_address"
      }
    ],
    "types": {
      "t_address": {
        "encoding": "inplace",
        "label": "address",
        "numberOfBytes": "20"
      },
      "t_array(t_uint256)49_storage": {
        "base": "t_uint256",
        "encoding": "inplace",
        "label": "uint256[49]",
        "numberOfBytes": "1568"
      },
      "t_array(t_uint256)50_storage": {
        "base": "t_uint256",
        "encoding": "inplace",
        "label": "uint256[50]",
        "numberOfBytes": "1600"
      },
      "t_bool": {
        "encoding": "inplace",
        "label": "bool",
        "numberOfBytes": "1"
      },
      "t_bytes32": {
        "encoding": "inplace",
        "label": "bytes32",
        "numberOfBytes": "32"
      },
      "t_contract(Lib_AddressManager)13943": {
        "encoding": "inplace",
        "label": "contract Lib_AddressManager",
        "numberOfBytes": "20"
      },
      "t_mapping(t_bytes32,t_bool)": {
        "encoding": "mapping",
        "key": "t_bytes32",
        "label": "mapping(bytes32 => bool)",
        "numberOfBytes": "32",
        "value": "t_bool"
      },
      "t_uint256": {
        "encoding": "inplace",
        "label": "uint256",
        "numberOfBytes": "32"
      }
    }
  }
}