{
  "address": "0xf209815E595Cdf3ed0aAF9665b1772e608AB9380",
  "abi": [
    {
      "inputs": [
        {
          "internalType": "address",
          "name": "_libAddressManager",
          "type": "address"
        },
        {
          "internalType": "uint256",
          "name": "_fraudProofWindow",
          "type": "uint256"
        },
        {
          "internalType": "uint256",
          "name": "_sequencerPublishWindow",
          "type": "uint256"
        }
      ],
      "stateMutability": "nonpayable",
      "type": "constructor"
    },
    {
      "anonymous": false,
      "inputs": [
        {
          "indexed": false,
          "internalType": "uint256",
          "name": "_chainId",
          "type": "uint256"
        },
        {
          "indexed": true,
          "internalType": "uint256",
          "name": "_batchIndex",
          "type": "uint256"
        },
        {
          "indexed": false,
          "internalType": "bytes32",
          "name": "_batchRoot",
          "type": "bytes32"
        },
        {
          "indexed": false,
          "internalType": "uint256",
          "name": "_batchSize",
          "type": "uint256"
        },
        {
          "indexed": false,
          "internalType": "uint256",
          "name": "_prevTotalElements",
          "type": "uint256"
        },
        {
          "indexed": false,
          "internalType": "bytes",
          "name": "_extraData",
          "type": "bytes"
        }
      ],
      "name": "StateBatchAppended",
      "type": "event"
    },
    {
      "anonymous": false,
      "inputs": [
        {
          "indexed": false,
          "internalType": "uint256",
          "name": "_chainId",
          "type": "uint256"
        },
        {
          "indexed": true,
          "internalType": "uint256",
          "name": "_batchIndex",
          "type": "uint256"
        },
        {
          "indexed": false,
          "internalType": "bytes32",
          "name": "_batchRoot",
          "type": "bytes32"
        }
      ],
      "name": "StateBatchDeleted",
      "type": "event"
    },
    {
      "inputs": [],
      "name": "DEFAULT_CHAINID",
      "outputs": [
        {
          "internalType": "uint256",
          "name": "",
          "type": "uint256"
        }
      ],
      "stateMutability": "view",
      "type": "function"
    },
    {
      "inputs": [],
      "name": "FRAUD_PROOF_WINDOW",
      "outputs": [
        {
          "internalType": "uint256",
          "name": "",
          "type": "uint256"
        }
      ],
      "stateMutability": "view",
      "type": "function"
    },
    {
      "inputs": [],
      "name": "SEQUENCER_PUBLISH_WINDOW",
      "outputs": [
        {
          "internalType": "uint256",
          "name": "",
          "type": "uint256"
        }
      ],
      "stateMutability": "view",
      "type": "function"
    },
    {
      "inputs": [
        {
          "internalType": "bytes32[]",
          "name": "_batch",
          "type": "bytes32[]"
        },
        {
          "internalType": "uint256",
          "name": "_shouldStartAtElement",
          "type": "uint256"
        }
      ],
      "name": "appendStateBatch",
      "outputs": [],
      "stateMutability": "nonpayable",
      "type": "function"
    },
    {
      "inputs": [
        {
          "internalType": "uint256",
          "name": "_chainId",
          "type": "uint256"
        },
        {
          "internalType": "bytes32[]",
          "name": "_batch",
          "type": "bytes32[]"
        },
        {
          "internalType": "uint256",
          "name": "_shouldStartAtElement",
          "type": "uint256"
        },
        {
          "internalType": "string",
          "name": "proposer",
          "type": "string"
        }
      ],
      "name": "appendStateBatchByChainId",
      "outputs": [],
      "stateMutability": "nonpayable",
      "type": "function"
    },
    {
      "inputs": [],
      "name": "batches",
      "outputs": [
        {
          "internalType": "contract IChainStorageContainer",
          "name": "",
          "type": "address"
        }
      ],
      "stateMutability": "view",
      "type": "function"
    },
    {
      "inputs": [
        {
          "components": [
            {
              "internalType": "uint256",
              "name": "batchIndex",
              "type": "uint256"
            },
            {
              "internalType": "bytes32",
              "name": "batchRoot",
              "type": "bytes32"
            },
            {
              "internalType": "uint256",
              "name": "batchSize",
              "type": "uint256"
            },
            {
              "internalType": "uint256",
              "name": "prevTotalElements",
              "type": "uint256"
            },
            {
              "internalType": "bytes",
              "name": "extraData",
              "type": "bytes"
            }
          ],
          "internalType": "struct Lib_OVMCodec.ChainBatchHeader",
          "name": "_batchHeader",
          "type": "tuple"
        }
      ],
      "name": "deleteStateBatch",
      "outputs": [],
      "stateMutability": "nonpayable",
      "type": "function"
    },
    {
      "inputs": [
        {
          "internalType": "uint256",
          "name": "_chainId",
          "type": "uint256"
        },
        {
          "components": [
            {
              "internalType": "uint256",
              "name": "batchIndex",
              "type": "uint256"
            },
            {
              "internalType": "bytes32",
              "name": "batchRoot",
              "type": "bytes32"
            },
            {
              "internalType": "uint256",
              "name": "batchSize",
              "type": "uint256"
            },
            {
              "internalType": "uint256",
              "name": "prevTotalElements",
              "type": "uint256"
            },
            {
              "internalType": "bytes",
              "name": "extraData",
              "type": "bytes"
            }
          ],
          "internalType": "struct Lib_OVMCodec.ChainBatchHeader",
          "name": "_batchHeader",
          "type": "tuple"
        }
      ],
      "name": "deleteStateBatchByChainId",
      "outputs": [],
      "stateMutability": "nonpayable",
      "type": "function"
    },
    {
      "inputs": [],
      "name": "getLastSequencerTimestamp",
      "outputs": [
        {
          "internalType": "uint256",
          "name": "_lastSequencerTimestamp",
          "type": "uint256"
        }
      ],
      "stateMutability": "view",
      "type": "function"
    },
    {
      "inputs": [
        {
          "internalType": "uint256",
          "name": "_chainId",
          "type": "uint256"
        }
      ],
      "name": "getLastSequencerTimestampByChainId",
      "outputs": [
        {
          "internalType": "uint256",
          "name": "_lastSequencerTimestamp",
          "type": "uint256"
        }
      ],
      "stateMutability": "view",
      "type": "function"
    },
    {
      "inputs": [],
      "name": "getTotalBatches",
      "outputs": [
        {
          "internalType": "uint256",
          "name": "_totalBatches",
          "type": "uint256"
        }
      ],
      "stateMutability": "view",
      "type": "function"
    },
    {
      "inputs": [
        {
          "internalType": "uint256",
          "name": "_chainId",
          "type": "uint256"
        }
      ],
      "name": "getTotalBatchesByChainId",
      "outputs": [
        {
          "internalType": "uint256",
          "name": "_totalBatches",
          "type": "uint256"
        }
      ],
      "stateMutability": "view",
      "type": "function"
    },
    {
      "inputs": [],
      "name": "getTotalElements",
      "outputs": [
        {
          "internalType": "uint256",
          "name": "_totalElements",
          "type": "uint256"
        }
      ],
      "stateMutability": "view",
      "type": "function"
    },
    {
      "inputs": [
        {
          "internalType": "uint256",
          "name": "_chainId",
          "type": "uint256"
        }
      ],
      "name": "getTotalElementsByChainId",
      "outputs": [
        {
          "internalType": "uint256",
          "name": "_totalElements",
          "type": "uint256"
        }
      ],
      "stateMutability": "view",
      "type": "function"
    },
    {
      "inputs": [
        {
          "components": [
            {
              "internalType": "uint256",
              "name": "batchIndex",
              "type": "uint256"
            },
            {
              "internalType": "bytes32",
              "name": "batchRoot",
              "type": "bytes32"
            },
            {
              "internalType": "uint256",
              "name": "batchSize",
              "type": "uint256"
            },
            {
              "internalType": "uint256",
              "name": "prevTotalElements",
              "type": "uint256"
            },
            {
              "internalType": "bytes",
              "name": "extraData",
              "type": "bytes"
            }
          ],
          "internalType": "struct Lib_OVMCodec.ChainBatchHeader",
          "name": "_batchHeader",
          "type": "tuple"
        }
      ],
      "name": "insideFraudProofWindow",
      "outputs": [
        {
          "internalType": "bool",
          "name": "_inside",
          "type": "bool"
        }
      ],
      "stateMutability": "view",
      "type": "function"
    },
    {
      "inputs": [
        {
          "internalType": "uint256",
          "name": "_chainId",
          "type": "uint256"
        },
        {
          "components": [
            {
              "internalType": "uint256",
              "name": "batchIndex",
              "type": "uint256"
            },
            {
              "internalType": "bytes32",
              "name": "batchRoot",
              "type": "bytes32"
            },
            {
              "internalType": "uint256",
              "name": "batchSize",
              "type": "uint256"
            },
            {
              "internalType": "uint256",
              "name": "prevTotalElements",
              "type": "uint256"
            },
            {
              "internalType": "bytes",
              "name": "extraData",
              "type": "bytes"
            }
          ],
          "internalType": "struct Lib_OVMCodec.ChainBatchHeader",
          "name": "_batchHeader",
          "type": "tuple"
        }
      ],
      "name": "insideFraudProofWindowByChainId",
      "outputs": [
        {
          "internalType": "bool",
          "name": "_inside",
          "type": "bool"
        }
      ],
      "stateMutability": "view",
      "type": "function"
    },
    {
      "inputs": [],
      "name": "libAddressManager",
      "outputs": [
        {
          "internalType": "contract Lib_AddressManager",
          "name": "",
          "type": "address"
        }
      ],
      "stateMutability": "view",
      "type": "function"
    },
    {
      "inputs": [
        {
          "internalType": "string",
          "name": "_name",
          "type": "string"
        }
      ],
      "name": "resolve",
      "outputs": [
        {
          "internalType": "address",
          "name": "",
          "type": "address"
        }
      ],
      "stateMutability": "view",
      "type": "function"
    },
    {
      "inputs": [
        {
          "internalType": "uint256",
          "name": "window",
          "type": "uint256"
        }
      ],
      "name": "setFraudProofWindow",
      "outputs": [],
      "stateMutability": "nonpayable",
      "type": "function"
    },
    {
      "inputs": [
        {
          "internalType": "bytes32",
          "name": "_element",
          "type": "bytes32"
        },
        {
          "components": [
            {
              "internalType": "uint256",
              "name": "batchIndex",
              "type": "uint256"
            },
            {
              "internalType": "bytes32",
              "name": "batchRoot",
              "type": "bytes32"
            },
            {
              "internalType": "uint256",
              "name": "batchSize",
              "type": "uint256"
            },
            {
              "internalType": "uint256",
              "name": "prevTotalElements",
              "type": "uint256"
            },
            {
              "internalType": "bytes",
              "name": "extraData",
              "type": "bytes"
            }
          ],
          "internalType": "struct Lib_OVMCodec.ChainBatchHeader",
          "name": "_batchHeader",
          "type": "tuple"
        },
        {
          "components": [
            {
              "internalType": "uint256",
              "name": "index",
              "type": "uint256"
            },
            {
              "internalType": "bytes32[]",
              "name": "siblings",
              "type": "bytes32[]"
            }
          ],
          "internalType": "struct Lib_OVMCodec.ChainInclusionProof",
          "name": "_proof",
          "type": "tuple"
        }
      ],
      "name": "verifyStateCommitment",
      "outputs": [
        {
          "internalType": "bool",
          "name": "",
          "type": "bool"
        }
      ],
      "stateMutability": "view",
      "type": "function"
    },
    {
      "inputs": [
        {
          "internalType": "uint256",
          "name": "_chainId",
          "type": "uint256"
        },
        {
          "internalType": "bytes32",
          "name": "_element",
          "type": "bytes32"
        },
        {
          "components": [
            {
              "internalType": "uint256",
              "name": "batchIndex",
              "type": "uint256"
            },
            {
              "internalType": "bytes32",
              "name": "batchRoot",
              "type": "bytes32"
            },
            {
              "internalType": "uint256",
              "name": "batchSize",
              "type": "uint256"
            },
            {
              "internalType": "uint256",
              "name": "prevTotalElements",
              "type": "uint256"
            },
            {
              "internalType": "bytes",
              "name": "extraData",
              "type": "bytes"
            }
          ],
          "internalType": "struct Lib_OVMCodec.ChainBatchHeader",
          "name": "_batchHeader",
          "type": "tuple"
        },
        {
          "components": [
            {
              "internalType": "uint256",
              "name": "index",
              "type": "uint256"
            },
            {
              "internalType": "bytes32[]",
              "name": "siblings",
              "type": "bytes32[]"
            }
          ],
          "internalType": "struct Lib_OVMCodec.ChainInclusionProof",
          "name": "_proof",
          "type": "tuple"
        }
      ],
      "name": "verifyStateCommitmentByChainId",
      "outputs": [
        {
          "internalType": "bool",
          "name": "",
          "type": "bool"
        }
      ],
      "stateMutability": "view",
      "type": "function"
    }
  ],
  "transactionHash": "0xb28a41f7573db1d5ff0eb3316dfeb3afe2dbee5b5534c11371be02bc80ad005c",
  "args": [
    "0x918778e825747a892b17C66fe7D24C618262867d",
    10,
    12592000
  ],
  "solcInputHash": "aad23d34300e438238a0739b0c367631",
  "bytecode": "0x60806040526104406003553480156200001757600080fd5b5060405162002897380380620028978339810160408190526200003a9162000067565b600080546001600160a01b0319166001600160a01b039490941693909317909255600155600255620000ac565b6000806000606084860312156200007d57600080fd5b83516001600160a01b03811681146200009557600080fd5b602085015160409095015190969495509392505050565b6127db80620000bc6000396000f3fe608060405234801561001057600080fd5b50600436106101775760003560e01c806381eb62ef116100d8578063ab59f7b81161008c578063cfdf677e11610066578063cfdf677e146102f5578063d710083f146102fd578063e561dddc1461031057600080fd5b8063ab59f7b8146102c6578063b8e189ac146102d9578063c17b291b146102ec57600080fd5b80638c7de742116100bd5780638c7de7421461028d5780638ca5cbb9146102a05780639418bddd146102b357600080fd5b806381eb62ef146102715780638a52e6221461027a57600080fd5b80635cb583741161012f5780637aa63a86116101145780637aa63a861461024e5780637ad168a01461025657806380931e371461025e57600080fd5b80635cb58374146102285780636d3454bf1461023b57600080fd5b8063461a447811610160578063461a4478146101db5780634d69ee57146101ee5780635bbbb7ed1461021157600080fd5b8063299ca4781461017c5780632ab65ec7146101c6575b600080fd5b60005461019c9073ffffffffffffffffffffffffffffffffffffffff1681565b60405173ffffffffffffffffffffffffffffffffffffffff90911681526020015b60405180910390f35b6101d96101d4366004611ffe565b610318565b005b61019c6101e9366004612045565b6104cf565b6102016101fc36600461217d565b61057c565b60405190151581526020016101bd565b61021a60035481565b6040519081526020016101bd565b61021a6102363660046121ea565b610594565b610201610249366004611ffe565b6105af565b61021a610658565b61021a61066a565b61020161026c366004612203565b610677565b61021a60025481565b61021a6102883660046121ea565b610743565b61021a61029b3660046121ea565b61075e565b6101d96102ae36600461227a565b6107f2565b6102016102c13660046122bf565b61083a565b6101d96102d43660046121ea565b6108e2565b6101d96102e73660046122bf565b61099f565b61021a60015481565b61019c6109ae565b6101d961030b36600461233d565b6109d1565b61021a610e49565b61034861032483610e56565b6040516020016103349190612421565b6040516020818303038152906040526104cf565b73ffffffffffffffffffffffffffffffffffffffff163373ffffffffffffffffffffffffffffffffffffffff16146103ed5760405162461bcd60e51b815260206004820152603b60248201527f537461746520626174636865732063616e206f6e6c792062652064656c65746560448201527f6420627920746865204d564d5f467261756456657269666965722e000000000060648201526084015b60405180910390fd5b6103f78282610fb3565b6104435760405162461bcd60e51b815260206004820152601560248201527f496e76616c6964206261746368206865616465722e000000000000000000000060448201526064016103e4565b61044d82826105af565b6104c1576040805162461bcd60e51b81526020600482015260248101919091527f537461746520626174636865732063616e206f6e6c792062652064656c65746560448201527f642077697468696e207468652066726175642070726f6f662077696e646f772e60648201526084016103e4565b6104cb8282611078565b5050565b600080546040517fbf40fac100000000000000000000000000000000000000000000000000000000815273ffffffffffffffffffffffffffffffffffffffff9091169063bf40fac1906105269085906004016124ac565b60206040518083038186803b15801561053e57600080fd5b505afa158015610552573d6000803e3d6000fd5b505050506040513d601f19601f8201168201806040525081019061057691906124e1565b92915050565b600061058c600354858585610677565b949350505050565b6000806105a0836112ca565b64ffffffffff16949350505050565b60008082608001518060200190518101906105ca91906124fe565b509050806106405760405162461bcd60e51b815260206004820152602560248201527f4261746368206865616465722074696d657374616d702063616e6e6f7420626560448201527f207a65726f00000000000000000000000000000000000000000000000000000060648201526084016103e4565b426001548261064f919061255d565b11949350505050565b6000610665600354610743565b905090565b6000610665600354610594565b60006106838584610fb3565b6106cf5760405162461bcd60e51b815260206004820152601560248201527f496e76616c6964206261746368206865616465722e000000000000000000000060448201526064016103e4565b6106ec83602001518584600001518560200151876040015161137c565b6107385760405162461bcd60e51b815260206004820152601860248201527f496e76616c696420696e636c7573696f6e2070726f6f662e000000000000000060448201526064016103e4565b506001949350505050565b60008061074f836112ca565b5064ffffffffff169392505050565b60006107686109ae565b73ffffffffffffffffffffffffffffffffffffffff1663576f2588836040518263ffffffff1660e01b81526004016107a291815260200190565b60206040518083038186803b1580156107ba57600080fd5b505afa1580156107ce573d6000803e3d6000fd5b505050506040513d601f19601f820116820180604052508101906105769190612575565b60405162461bcd60e51b815260206004820152600960248201527f646f6e277420757365000000000000000000000000000000000000000000000060448201526064016103e4565b600080826080015180602001905181019061085591906124fe565b509050806108cb5760405162461bcd60e51b815260206004820152602560248201527f4261746368206865616465722074696d657374616d702063616e6e6f7420626560448201527f207a65726f00000000000000000000000000000000000000000000000000000060648201526084016103e4565b42600154826108da919061255d565b119392505050565b6109206040518060400160405280600d81526020017f4d455449535f4d414e41474552000000000000000000000000000000000000008152506104cf565b73ffffffffffffffffffffffffffffffffffffffff163373ffffffffffffffffffffffffffffffffffffffff161461099a5760405162461bcd60e51b815260206004820152600b60248201527f6e6f7720616c6c6f77656400000000000000000000000000000000000000000060448201526064016103e4565b600155565b6109ab60035482610318565b50565b6000610665604051806060016040528060218152602001612785602191396104cf565b6109da86610743565b8314610a4e5760405162461bcd60e51b815260206004820152603d60248201527f41637475616c20626174636820737461727420696e64657820646f6573206e6f60448201527f74206d6174636820657870656374656420737461727420696e6465782e00000060648201526084016103e4565b6000610a8f83838080601f0160208091040260200160405190810160405280939291908181526020018383808284376000920191909152506104cf92505050565b9050610acf6040518060400160405280600b81526020017f426f6e644d616e616765720000000000000000000000000000000000000000008152506104cf565b6040517ff3b96f1c0000000000000000000000000000000000000000000000000000000081526004810189905233602482015273ffffffffffffffffffffffffffffffffffffffff8381166044830152919091169063f3b96f1c9060640160206040518083038186803b158015610b4557600080fd5b505afa158015610b59573d6000803e3d6000fd5b505050506040513d601f19601f82011682018060405250810190610b7d919061258e565b610bef5760405162461bcd60e51b815260206004820152602f60248201527f50726f706f73657220646f6573206e6f74206861766520656e6f75676820636f60448201527f6c6c61746572616c20706f73746564000000000000000000000000000000000060648201526084016103e4565b84610c625760405162461bcd60e51b815260206004820152602360248201527f43616e6e6f74207375626d697420616e20656d7074792073746174652062617460448201527f63682e000000000000000000000000000000000000000000000000000000000060648201526084016103e4565b610ca06040518060400160405280601981526020017f43616e6f6e6963616c5472616e73616374696f6e436861696e000000000000008152506104cf565b73ffffffffffffffffffffffffffffffffffffffff16638a52e622886040518263ffffffff1660e01b8152600401610cda91815260200190565b60206040518083038186803b158015610cf257600080fd5b505afa158015610d06573d6000803e3d6000fd5b505050506040513d601f19601f82011682018060405250810190610d2a9190612575565b85610d3489610743565b610d3e919061255d565b1115610dd85760405162461bcd60e51b815260206004820152604960248201527f4e756d626572206f6620737461746520726f6f74732063616e6e6f742065786360448201527f65656420746865206e756d626572206f662063616e6f6e6963616c207472616e60648201527f73616374696f6e732e0000000000000000000000000000000000000000000000608482015260a4016103e4565b610e4087878780806020026020016040519081016040528093929190818152602001838360200280828437600092019190915250506040805142602082015233918101919091526060019150610e2b9050565b604051602081830303815290604052846115ea565b50505050505050565b600061066560035461075e565b606081610e9657505060408051808201909152600181527f3000000000000000000000000000000000000000000000000000000000000000602082015290565b8160005b8115610ec05780610eaa816125b0565b9150610eb99050600a83612618565b9150610e9a565b60008167ffffffffffffffff811115610edb57610edb611e69565b6040519080825280601f01601f191660200182016040528015610f05576020820181803683370190505b509050815b8515610faa57610f1b60018261262c565b90506000610f2a600a88612618565b610f3590600a612643565b610f3f908861262c565b610f4a906030612680565b905060008160f81b905080848481518110610f6757610f676126a5565b60200101907effffffffffffffffffffffffffffffffffffffffffffffffffffffffffffff1916908160001a905350610fa1600a89612618565b97505050610f0a565b50949350505050565b6000610fbd6109ae565b82516040517f67d18b9b00000000000000000000000000000000000000000000000000000000815260048101869052602481019190915273ffffffffffffffffffffffffffffffffffffffff91909116906367d18b9b9060440160206040518083038186803b15801561102f57600080fd5b505afa158015611043573d6000803e3d6000fd5b505050506040513d601f19601f820116820180604052508101906110679190612575565b6110708361185c565b149392505050565b6110806109ae565b73ffffffffffffffffffffffffffffffffffffffff1663576f2588836040518263ffffffff1660e01b81526004016110ba91815260200190565b60206040518083038186803b1580156110d257600080fd5b505afa1580156110e6573d6000803e3d6000fd5b505050506040513d601f19601f8201168201806040525081019061110a9190612575565b8151106111595760405162461bcd60e51b815260206004820152601460248201527f496e76616c696420626174636820696e6465782e00000000000000000000000060448201526064016103e4565b6111638282610fb3565b6111af5760405162461bcd60e51b815260206004820152601560248201527f496e76616c6964206261746368206865616465722e000000000000000000000060448201526064016103e4565b6111b76109ae565b8151606083015173ffffffffffffffffffffffffffffffffffffffff929092169163bc05257691859160281b6040517fffffffff0000000000000000000000000000000000000000000000000000000060e086901b168152600481019390935260248301919091527fffffffffffffffffffffffffffffffffffffffffffffffffffffff0000000000166044820152606401600060405180830381600087803b15801561126357600080fd5b505af1158015611277573d6000803e3d6000fd5b5050505080600001517f6e9c082632d809680ee6227e58afd9a7c24ee8a43d61577b2e98f9e185fc630d8383602001516040516112be929190918252602082015260400190565b60405180910390a25050565b60008060006112d76109ae565b73ffffffffffffffffffffffffffffffffffffffff166324a49415856040518263ffffffff1660e01b815260040161131191815260200190565b60206040518083038186803b15801561132957600080fd5b505afa15801561133d573d6000803e3d6000fd5b505050506040513d601f19601f8201168201806040525081019061136191906126d4565b64ffffffffff602882901c169560509190911c945092505050565b60008082116113f35760405162461bcd60e51b815260206004820152603760248201527f4c69625f4d65726b6c65547265653a20546f74616c206c6561766573206d757360448201527f742062652067726561746572207468616e207a65726f2e00000000000000000060648201526084016103e4565b8184106114675760405162461bcd60e51b8152602060048201526024808201527f4c69625f4d65726b6c65547265653a20496e646578206f7574206f6620626f7560448201527f6e64732e0000000000000000000000000000000000000000000000000000000060648201526084016103e4565b611470826118a2565b83511461150b5760405162461bcd60e51b815260206004820152604d60248201527f4c69625f4d65726b6c65547265653a20546f74616c207369626c696e6773206460448201527f6f6573206e6f7420636f72726563746c7920636f72726573706f6e6420746f2060648201527f746f74616c206c65617665732e00000000000000000000000000000000000000608482015260a4016103e4565b8460005b84518110156115dd57856001166001141561157657848181518110611536576115366126a5565b602002602001015182604051602001611559929190918252602082015260400190565b6040516020818303038152906040528051906020012091506115c4565b81858281518110611589576115896126a5565b60200260200101516040516020016115ab929190918252602082015260400190565b6040516020818303038152906040528051906020012091505b60019590951c94806115d5816125b0565b91505061150f565b5090951495945050505050565b6000806115f6866112ca565b90925090503373ffffffffffffffffffffffffffffffffffffffff841614156116205750426116cf565b426002548264ffffffffff16611636919061255d565b106116cf5760405162461bcd60e51b815260206004820152604360248201527f43616e6e6f74207075626c69736820737461746520726f6f747320776974686960448201527f6e207468652073657175656e636572207075626c69636174696f6e2077696e6460648201527f6f772e0000000000000000000000000000000000000000000000000000000000608482015260a4016103e4565b60006040518060a001604052806116e58961075e565b81526020016116f388611985565b8152602001875181526020018464ffffffffff16815260200186815250905080600001517fbaa1d762384057169afd12b625998a5a7ed502c2e229acdbead30f3f6496399d88836020015184604001518560600151866080015160405161175e959493929190612716565b60405180910390a261176e6109ae565b73ffffffffffffffffffffffffffffffffffffffff1663e6e436c0886117938461185c565b6117bb8b866040015187606001516117ab919061255d565b602889811b91909117901b919050565b6040517fffffffff0000000000000000000000000000000000000000000000000000000060e086901b168152600481019390935260248301919091527fffffffffffffffffffffffffffffffffffffffffffffffffffffff0000000000166044820152606401600060405180830381600087803b15801561183b57600080fd5b505af115801561184f573d6000803e3d6000fd5b5050505050505050505050565b600081602001518260400151836060015184608001516040516020016118859493929190612741565b604051602081830303815290604052805190602001209050919050565b60008082116119195760405162461bcd60e51b815260206004820152603060248201527f4c69625f4d65726b6c65547265653a2043616e6e6f7420636f6d70757465206360448201527f65696c286c6f675f3229206f6620302e0000000000000000000000000000000060648201526084016103e4565b816001141561192a57506000919050565b81600060805b600181106119685780611946600180831b61262c565b901b83161561196057611959818361255d565b92811c9291505b60011c611930565b506001811b841461197e5761058c60018261255d565b9392505050565b6000808251116119fd5760405162461bcd60e51b815260206004820152603460248201527f4c69625f4d65726b6c65547265653a204d7573742070726f766964652061742060448201527f6c65617374206f6e65206c65616620686173682e00000000000000000000000060648201526084016103e4565b815160011415611a295781600081518110611a1a57611a1a6126a5565b60200260200101519050919050565b60408051610200810182527f290decd9548b62a8d60345a988386fc84ba6bc95484008f6362f93160ef3e56381527f633dc4d7da7256660a892f8f1604a44b5432649cc8ec5cb3ced4c4e6ac94dd1d60208201527f890740a8eb06ce9be422cb8da5cdafc2b58c0a5e24036c578de2a433c828ff7d818301527f3b8ec09e026fdc305365dfc94e189a81b38c7597b3d941c279f042e8206e0bd86060808301919091527fecd50eee38e386bd62be9bedb990706951b65fe053bd9d8a521af753d139e2da60808301527fdefff6d330bb5403f63b14f33b578274160de3a50df4efecf0e0db73bcdd3da560a08301527f617bdd11f7c0a11f49db22f629387a12da7596f9d1704d7465177c63d88ec7d760c08301527f292c23a9aa1d8bea7e2435e555a4a60e379a5a35f3f452bae60121073fb6eead60e08301527fe1cea92ed99acdcb045a6726b2f87107e8a61620a232cf4d7d5b5766b3952e106101008301527f7ad66c0a68c72cb89e4fb4303841966e4062a76ab97451e3b9fb526a5ceb7f826101208301527fe026cc5a4aed3c22a58cbd3d2ac754c9352c5436f638042dca99034e836365166101408301527f3d04cffd8b46a874edf5cfae63077de85f849a660426697b06a829c70dd1409c6101608301527fad676aa337a485e4728a0b240d92b3ef7b3c372d06d189322bfd5f61f1e7203e6101808301527fa2fca4a49658f9fab7aa63289c91b7c7b6c832a6d0e69334ff5b0a3483d09dab6101a08301527f4ebfd9cd7bca2505f7bef59cc1c12ecc708fff26ae4af19abe852afe9e20c8626101c08301527f2def10d13dd169f550f578bda343d9717a138562e0093b380a1120789d53cf106101e083015282518381529081018352909160009190602082018180368337505085519192506000918291508180805b6001841115611e3f57611cda600285612618565b9150611ce7600285612770565b600114905060005b82811015611d93578a611d03826002612643565b81518110611d1357611d136126a5565b602002602001015196508a816002611d2b9190612643565b611d3690600161255d565b81518110611d4657611d466126a5565b6020026020010151955086602089015285604089015287805190602001208b8281518110611d7657611d766126a5565b602090810291909101015280611d8b816125b0565b915050611cef565b508015611e0f5789611da660018661262c565b81518110611db657611db66126a5565b60200260200101519550878360108110611dd257611dd26126a5565b602002015160001b945085602088015284604088015286805190602001208a8381518110611e0257611e026126a5565b6020026020010181815250505b80611e1b576000611e1e565b60015b611e2b9060ff168361255d565b935082611e37816125b0565b935050611cc6565b89600081518110611e5257611e526126a5565b602002602001015198505050505050505050919050565b7f4e487b7100000000000000000000000000000000000000000000000000000000600052604160045260246000fd5b604051601f82017fffffffffffffffffffffffffffffffffffffffffffffffffffffffffffffffe016810167ffffffffffffffff81118282101715611edf57611edf611e69565b604052919050565b600067ffffffffffffffff831115611f0157611f01611e69565b611f3260207fffffffffffffffffffffffffffffffffffffffffffffffffffffffffffffffe0601f86011601611e98565b9050828152838383011115611f4657600080fd5b828260208301376000602084830101529392505050565b600060a08284031215611f6f57600080fd5b60405160a0810167ffffffffffffffff8282108183111715611f9357611f93611e69565b81604052829350843583526020850135602084015260408501356040840152606085013560608401526080850135915080821115611fd057600080fd5b508301601f81018513611fe257600080fd5b611ff185823560208401611ee7565b6080830152505092915050565b6000806040838503121561201157600080fd5b82359150602083013567ffffffffffffffff81111561202f57600080fd5b61203b85828601611f5d565b9150509250929050565b60006020828403121561205757600080fd5b813567ffffffffffffffff81111561206e57600080fd5b8201601f8101841361207f57600080fd5b61058c84823560208401611ee7565b600082601f83011261209f57600080fd5b8135602067ffffffffffffffff8211156120bb576120bb611e69565b8160051b6120ca828201611e98565b92835284810182019282810190878511156120e457600080fd5b83870192505b84831015612103578235825291830191908301906120ea565b979650505050505050565b60006040828403121561212057600080fd5b6040516040810167ffffffffffffffff828210818311171561214457612144611e69565b8160405282935084358352602085013591508082111561216357600080fd5b506121708582860161208e565b6020830152505092915050565b60008060006060848603121561219257600080fd5b83359250602084013567ffffffffffffffff808211156121b157600080fd5b6121bd87838801611f5d565b935060408601359150808211156121d357600080fd5b506121e08682870161210e565b9150509250925092565b6000602082840312156121fc57600080fd5b5035919050565b6000806000806080858703121561221957600080fd5b8435935060208501359250604085013567ffffffffffffffff8082111561223f57600080fd5b61224b88838901611f5d565b9350606087013591508082111561226157600080fd5b5061226e8782880161210e565b91505092959194509250565b6000806040838503121561228d57600080fd5b823567ffffffffffffffff8111156122a457600080fd5b6122b08582860161208e565b95602094909401359450505050565b6000602082840312156122d157600080fd5b813567ffffffffffffffff8111156122e857600080fd5b61058c84828501611f5d565b60008083601f84011261230657600080fd5b50813567ffffffffffffffff81111561231e57600080fd5b60208301915083602082850101111561233657600080fd5b9250929050565b6000806000806000806080878903121561235657600080fd5b86359550602087013567ffffffffffffffff8082111561237557600080fd5b818901915089601f83011261238957600080fd5b81358181111561239857600080fd5b8a60208260051b85010111156123ad57600080fd5b602083019750809650506040890135945060608901359150808211156123d257600080fd5b506123df89828a016122f4565b979a9699509497509295939492505050565b60005b8381101561240c5781810151838201526020016123f4565b8381111561241b576000848401525b50505050565b600082516124338184602087016123f1565b7f5f4d564d5f467261756456657269666965720000000000000000000000000000920191825250601201919050565b6000815180845261247a8160208601602086016123f1565b601f017fffffffffffffffffffffffffffffffffffffffffffffffffffffffffffffffe0169290920160200192915050565b60208152600061197e6020830184612462565b73ffffffffffffffffffffffffffffffffffffffff811681146109ab57600080fd5b6000602082840312156124f357600080fd5b815161197e816124bf565b6000806040838503121561251157600080fd5b825191506020830151612523816124bf565b809150509250929050565b7f4e487b7100000000000000000000000000000000000000000000000000000000600052601160045260246000fd5b600082198211156125705761257061252e565b500190565b60006020828403121561258757600080fd5b5051919050565b6000602082840312156125a057600080fd5b8151801515811461197e57600080fd5b60007fffffffffffffffffffffffffffffffffffffffffffffffffffffffffffffffff8214156125e2576125e261252e565b5060010190565b7f4e487b7100000000000000000000000000000000000000000000000000000000600052601260045260246000fd5b600082612627576126276125e9565b500490565b60008282101561263e5761263e61252e565b500390565b6000817fffffffffffffffffffffffffffffffffffffffffffffffffffffffffffffffff048311821515161561267b5761267b61252e565b500290565b600060ff821660ff84168060ff0382111561269d5761269d61252e565b019392505050565b7f4e487b7100000000000000000000000000000000000000000000000000000000600052603260045260246000fd5b6000602082840312156126e657600080fd5b81517fffffffffffffffffffffffffffffffffffffffffffffffffffffff00000000008116811461197e57600080fd5b85815284602082015283604082015282606082015260a06080820152600061210360a0830184612462565b8481528360208201528260408201526080606082015260006127666080830184612462565b9695505050505050565b60008261277f5761277f6125e9565b50069056fe436861696e53746f72616765436f6e7461696e65722d5343432d62617463686573a26469706673582212206c5fccdebea4ea11dcb08bb156e77927775c056339234eda1b1d19ee578aa32364736f6c63430008090033",
  "devdoc": {
    "details": "The State Commitment Chain (SCC) contract contains a list of proposed state roots which Proposers assert to be a result of each transaction in the Canonical Transaction Chain (CTC). Elements here have a 1:1 correspondence with transactions in the CTC, and should be the unique state root calculated off-chain by applying the canonical transactions one by one. Runtime target: EVM",
    "kind": "dev",
    "methods": {
      "appendStateBatch(bytes32[],uint256)": {
        "params": {
          "_batch": "Batch of state roots.",
          "_shouldStartAtElement": "Index of the element at which this batch should start."
        }
      },
      "appendStateBatchByChainId(uint256,bytes32[],uint256,string)": {
        "params": {
          "_batch": "Batch of state roots.",
          "_chainId": "identity for the l2 chain.",
          "_shouldStartAtElement": "Index of the element at which this batch should start."
        }
      },
      "batches()": {
        "returns": {
          "_0": "Reference to the batch storage container."
        }
      },
      "constructor": {
        "params": {
          "_libAddressManager": "Address of the Address Manager."
        }
      },
      "deleteStateBatch((uint256,bytes32,uint256,uint256,bytes))": {
        "params": {
          "_batchHeader": "Header of the batch to start deleting from."
        }
      },
      "deleteStateBatchByChainId(uint256,(uint256,bytes32,uint256,uint256,bytes))": {
        "params": {
          "_batchHeader": "Header of the batch to start deleting from.",
          "_chainId": "identity for the l2 chain."
        }
      },
      "getLastSequencerTimestamp()": {
        "returns": {
          "_lastSequencerTimestamp": "Last sequencer batch timestamp."
        }
      },
      "getLastSequencerTimestampByChainId(uint256)": {
        "params": {
          "_chainId": "identity for the l2 chain."
        },
        "returns": {
          "_lastSequencerTimestamp": "Last sequencer batch timestamp."
        }
      },
      "getTotalBatches()": {
        "returns": {
          "_totalBatches": "Total submitted batches."
        }
      },
      "getTotalBatchesByChainId(uint256)": {
        "params": {
          "_chainId": "identity for the l2 chain."
        },
        "returns": {
          "_totalBatches": "Total submitted batches."
        }
      },
      "getTotalElements()": {
        "returns": {
          "_totalElements": "Total submitted elements."
        }
      },
      "getTotalElementsByChainId(uint256)": {
        "params": {
          "_chainId": "identity for the l2 chain."
        },
        "returns": {
          "_totalElements": "Total submitted elements."
        }
      },
      "insideFraudProofWindow((uint256,bytes32,uint256,uint256,bytes))": {
        "params": {
          "_batchHeader": "Header of the batch to check."
        },
        "returns": {
          "_inside": "Whether or not the batch is inside the fraud proof window."
        }
      },
      "insideFraudProofWindowByChainId(uint256,(uint256,bytes32,uint256,uint256,bytes))": {
        "params": {
          "_batchHeader": "Header of the batch to check.",
          "_chainId": "identity for the l2 chain."
        },
        "returns": {
          "_inside": "Whether or not the batch is inside the fraud proof window."
        }
      },
      "resolve(string)": {
        "params": {
          "_name": "Name to resolve an address for."
        },
        "returns": {
          "_0": "Address associated with the given name."
        }
      },
      "verifyStateCommitment(bytes32,(uint256,bytes32,uint256,uint256,bytes),(uint256,bytes32[]))": {
        "params": {
          "_batchHeader": "Header of the batch in which the element was included.",
          "_element": "Hash of the element to verify a proof for.",
          "_proof": "Merkle inclusion proof for the element."
        }
      },
      "verifyStateCommitmentByChainId(uint256,bytes32,(uint256,bytes32,uint256,uint256,bytes),(uint256,bytes32[]))": {
        "params": {
          "_batchHeader": "Header of the batch in which the element was included.",
          "_chainId": "identity for the l2 chain.",
          "_element": "Hash of the element to verify a proof for.",
          "_proof": "Merkle inclusion proof for the element."
        }
      }
    },
    "title": "StateCommitmentChain",
    "version": 1
  },
  "userdoc": {
    "kind": "user",
    "methods": {
      "appendStateBatch(bytes32[],uint256)": {
        "notice": "Appends a batch of state roots to the chain."
      },
      "appendStateBatchByChainId(uint256,bytes32[],uint256,string)": {
        "notice": "Appends a batch of state roots to the chain."
      },
      "batches()": {
        "notice": "Accesses the batch storage container."
      },
      "deleteStateBatch((uint256,bytes32,uint256,uint256,bytes))": {
        "notice": "Deletes all state roots after (and including) a given batch."
      },
      "deleteStateBatchByChainId(uint256,(uint256,bytes32,uint256,uint256,bytes))": {
        "notice": "Deletes all state roots after (and including) a given batch."
      },
      "getLastSequencerTimestamp()": {
        "notice": "Retrieves the timestamp of the last batch submitted by the sequencer."
      },
      "getLastSequencerTimestampByChainId(uint256)": {
        "notice": "Retrieves the timestamp of the last batch submitted by the sequencer."
      },
      "getTotalBatches()": {
        "notice": "Retrieves the total number of batches submitted."
      },
      "getTotalBatchesByChainId(uint256)": {
        "notice": "Retrieves the total number of batches submitted."
      },
      "getTotalElements()": {
        "notice": "Retrieves the total number of elements submitted."
      },
      "getTotalElementsByChainId(uint256)": {
        "notice": "Retrieves the total number of elements submitted."
      },
      "insideFraudProofWindow((uint256,bytes32,uint256,uint256,bytes))": {
        "notice": "Checks whether a given batch is still inside its fraud proof window."
      },
      "insideFraudProofWindowByChainId(uint256,(uint256,bytes32,uint256,uint256,bytes))": {
        "notice": "Checks whether a given batch is still inside its fraud proof window."
      },
      "resolve(string)": {
        "notice": "Resolves the address associated with a given name."
      },
      "verifyStateCommitment(bytes32,(uint256,bytes32,uint256,uint256,bytes),(uint256,bytes32[]))": {
        "notice": "Verifies a batch inclusion proof."
      },
      "verifyStateCommitmentByChainId(uint256,bytes32,(uint256,bytes32,uint256,uint256,bytes),(uint256,bytes32[]))": {
        "notice": "Verifies a batch inclusion proof."
      }
    },
    "version": 1
  },
  "storageLayout": {
    "storage": [
      {
        "astId": 13951,
        "contract": "contracts/L1/rollup/StateCommitmentChain.sol:StateCommitmentChain",
        "label": "libAddressManager",
        "offset": 0,
        "slot": "0",
        "type": "t_contract(Lib_AddressManager)13943"
      },
      {
        "astId": 7978,
        "contract": "contracts/L1/rollup/StateCommitmentChain.sol:StateCommitmentChain",
        "label": "FRAUD_PROOF_WINDOW",
        "offset": 0,
        "slot": "1",
        "type": "t_uint256"
      },
      {
        "astId": 7980,
        "contract": "contracts/L1/rollup/StateCommitmentChain.sol:StateCommitmentChain",
        "label": "SEQUENCER_PUBLISH_WINDOW",
        "offset": 0,
        "slot": "2",
        "type": "t_uint256"
      },
      {
        "astId": 7983,
        "contract": "contracts/L1/rollup/StateCommitmentChain.sol:StateCommitmentChain",
        "label": "DEFAULT_CHAINID",
        "offset": 0,
        "slot": "3",
        "type": "t_uint256"
      }
    ],
    "types": {
      "t_contract(Lib_AddressManager)13943": {
        "encoding": "inplace",
        "label": "contract Lib_AddressManager",
        "numberOfBytes": "20"
      },
      "t_uint256": {
        "encoding": "inplace",
        "label": "uint256",
        "numberOfBytes": "32"
      }
    }
  }
}