{
  "address": "0xBde12E56D6d029Bed3e61d6E3b0CCb3311c0bCFb",
  "abi": [
    {
      "inputs": [
        {
          "internalType": "address",
          "name": "_addressManager",
          "type": "address"
        },
        {
          "internalType": "address",
          "name": "_metis",
          "type": "address"
        }
      ],
      "stateMutability": "nonpayable",
      "type": "constructor"
    },
    {
      "anonymous": false,
      "inputs": [
        {
          "indexed": false,
          "internalType": "uint256",
          "name": "cIndex",
          "type": "uint256"
        },
        {
          "indexed": false,
          "internalType": "uint256",
          "name": "chainID",
          "type": "uint256"
        },
        {
          "components": [
            {
              "internalType": "uint256",
              "name": "batchIndex",
              "type": "uint256"
            },
            {
              "internalType": "bytes32",
              "name": "batchRoot",
              "type": "bytes32"
            },
            {
              "internalType": "uint256",
              "name": "batchSize",
              "type": "uint256"
            },
            {
              "internalType": "uint256",
              "name": "prevTotalElements",
              "type": "uint256"
            },
            {
              "internalType": "bytes",
              "name": "extraData",
              "type": "bytes"
            }
          ],
          "indexed": false,
          "internalType": "struct Lib_OVMCodec.ChainBatchHeader",
          "name": "header",
          "type": "tuple"
        },
        {
          "indexed": false,
          "internalType": "uint256",
          "name": "timestamp",
          "type": "uint256"
        }
      ],
      "name": "NewChallenge",
      "type": "event"
    },
    {
      "inputs": [],
      "name": "CONFIG_OWNER_KEY",
      "outputs": [
        {
          "internalType": "string",
          "name": "",
          "type": "string"
        }
      ],
      "stateMutability": "view",
      "type": "function"
    },
    {
      "inputs": [],
      "name": "activeChallenges",
      "outputs": [
        {
          "internalType": "uint256",
          "name": "",
          "type": "uint256"
        }
      ],
      "stateMutability": "view",
      "type": "function"
    },
    {
      "inputs": [
        {
          "internalType": "uint256",
          "name": "",
          "type": "uint256"
        }
      ],
      "name": "chain_under_challenge",
      "outputs": [
        {
          "internalType": "bool",
          "name": "",
          "type": "bool"
        }
      ],
      "stateMutability": "view",
      "type": "function"
    },
    {
      "inputs": [
        {
          "internalType": "uint256",
          "name": "",
          "type": "uint256"
        }
      ],
      "name": "challenges",
      "outputs": [
        {
          "internalType": "address",
          "name": "challenger",
          "type": "address"
        },
        {
          "internalType": "uint256",
          "name": "chainID",
          "type": "uint256"
        },
        {
          "internalType": "uint256",
          "name": "index",
          "type": "uint256"
        },
        {
          "components": [
            {
              "internalType": "uint256",
              "name": "batchIndex",
              "type": "uint256"
            },
            {
              "internalType": "bytes32",
              "name": "batchRoot",
              "type": "bytes32"
            },
            {
              "internalType": "uint256",
              "name": "batchSize",
              "type": "uint256"
            },
            {
              "internalType": "uint256",
              "name": "prevTotalElements",
              "type": "uint256"
            },
            {
              "internalType": "bytes",
              "name": "extraData",
              "type": "bytes"
            }
          ],
          "internalType": "struct Lib_OVMCodec.ChainBatchHeader",
          "name": "header",
          "type": "tuple"
        },
        {
          "internalType": "uint256",
          "name": "timestamp",
          "type": "uint256"
        },
        {
          "internalType": "uint256",
          "name": "numQualifiedVerifiers",
          "type": "uint256"
        },
        {
          "internalType": "uint256",
          "name": "numVerify1",
          "type": "uint256"
        },
        {
          "internalType": "uint256",
          "name": "numVerify2",
          "type": "uint256"
        }
      ],
      "stateMutability": "view",
      "type": "function"
    },
    {
      "inputs": [],
      "name": "claim",
      "outputs": [],
      "stateMutability": "nonpayable",
      "type": "function"
    },
    {
      "inputs": [
        {
          "internalType": "uint256",
          "name": "",
          "type": "uint256"
        },
        {
          "internalType": "address",
          "name": "",
          "type": "address"
        }
      ],
      "name": "consensus",
      "outputs": [
        {
          "internalType": "bool",
          "name": "",
          "type": "bool"
        }
      ],
      "stateMutability": "view",
      "type": "function"
    },
    {
      "inputs": [],
      "name": "disableWhiteList",
      "outputs": [],
      "stateMutability": "nonpayable",
      "type": "function"
    },
    {
      "inputs": [
        {
          "internalType": "bytes",
          "name": "data",
          "type": "bytes"
        },
        {
          "internalType": "bytes",
          "name": "key",
          "type": "bytes"
        }
      ],
      "name": "encrypt",
      "outputs": [
        {
          "internalType": "bytes",
          "name": "",
          "type": "bytes"
        }
      ],
      "stateMutability": "pure",
      "type": "function"
    },
    {
      "inputs": [
        {
          "internalType": "address",
          "name": "target",
          "type": "address"
        }
      ],
      "name": "isSufficientlyStaked",
      "outputs": [
        {
          "internalType": "bool",
          "name": "",
          "type": "bool"
        }
      ],
      "stateMutability": "view",
      "type": "function"
    },
    {
      "inputs": [],
      "name": "libAddressManager",
      "outputs": [
        {
          "internalType": "contract Lib_AddressManager",
          "name": "",
          "type": "address"
        }
      ],
      "stateMutability": "view",
      "type": "function"
    },
    {
      "inputs": [],
      "name": "metis",
      "outputs": [
        {
          "internalType": "address",
          "name": "",
          "type": "address"
        }
      ],
      "stateMutability": "view",
      "type": "function"
    },
    {
      "inputs": [],
      "name": "minStake",
      "outputs": [
        {
          "internalType": "uint256",
          "name": "",
          "type": "uint256"
        }
      ],
      "stateMutability": "view",
      "type": "function"
    },
    {
      "inputs": [
        {
          "internalType": "uint256",
          "name": "chainID",
          "type": "uint256"
        },
        {
          "components": [
            {
              "internalType": "uint256",
              "name": "batchIndex",
              "type": "uint256"
            },
            {
              "internalType": "bytes32",
              "name": "batchRoot",
              "type": "bytes32"
            },
            {
              "internalType": "uint256",
              "name": "batchSize",
              "type": "uint256"
            },
            {
              "internalType": "uint256",
              "name": "prevTotalElements",
              "type": "uint256"
            },
            {
              "internalType": "bytes",
              "name": "extraData",
              "type": "bytes"
            }
          ],
          "internalType": "struct Lib_OVMCodec.ChainBatchHeader",
          "name": "header",
          "type": "tuple"
        },
        {
          "internalType": "bytes",
          "name": "proposedHash",
          "type": "bytes"
        },
        {
          "internalType": "bytes",
          "name": "keyhash",
          "type": "bytes"
        }
      ],
      "name": "newChallenge",
      "outputs": [],
      "stateMutability": "nonpayable",
      "type": "function"
    },
    {
      "inputs": [],
      "name": "numQualifiedVerifiers",
      "outputs": [
        {
          "internalType": "uint256",
          "name": "",
          "type": "uint256"
        }
      ],
      "stateMutability": "view",
      "type": "function"
    },
    {
      "inputs": [
        {
          "internalType": "uint256",
          "name": "",
          "type": "uint256"
        },
        {
          "internalType": "address",
          "name": "",
          "type": "address"
        }
      ],
      "name": "penalties",
      "outputs": [
        {
          "internalType": "bool",
          "name": "",
          "type": "bool"
        }
      ],
      "stateMutability": "view",
      "type": "function"
    },
    {
      "inputs": [
        {
          "internalType": "string",
          "name": "_name",
          "type": "string"
        }
      ],
      "name": "resolve",
      "outputs": [
        {
          "internalType": "address",
          "name": "",
          "type": "address"
        }
      ],
      "stateMutability": "view",
      "type": "function"
    },
    {
      "inputs": [
        {
          "internalType": "address",
          "name": "",
          "type": "address"
        }
      ],
      "name": "rewards",
      "outputs": [
        {
          "internalType": "uint256",
          "name": "",
          "type": "uint256"
        }
      ],
      "stateMutability": "view",
      "type": "function"
    },
    {
      "inputs": [
        {
          "internalType": "uint256",
          "name": "_minStake",
          "type": "uint256"
        }
      ],
      "name": "setMinStake",
      "outputs": [],
      "stateMutability": "nonpayable",
      "type": "function"
    },
    {
      "inputs": [
        {
          "internalType": "uint256",
          "name": "window",
          "type": "uint256"
        }
      ],
      "name": "setVerifyWindow",
      "outputs": [],
      "stateMutability": "nonpayable",
      "type": "function"
    },
    {
      "inputs": [
        {
          "internalType": "address",
          "name": "verifier",
          "type": "address"
        },
        {
          "internalType": "bool",
          "name": "allowed",
          "type": "bool"
        }
      ],
      "name": "setWhiteList",
      "outputs": [],
      "stateMutability": "nonpayable",
      "type": "function"
    },
    {
      "inputs": [
        {
          "internalType": "uint256",
          "name": "stake",
          "type": "uint256"
        }
      ],
      "name": "verifierStake",
      "outputs": [],
      "stateMutability": "nonpayable",
      "type": "function"
    },
    {
      "inputs": [
        {
          "internalType": "address",
          "name": "",
          "type": "address"
        }
      ],
      "name": "verifier_stakes",
      "outputs": [
        {
          "internalType": "uint256",
          "name": "",
          "type": "uint256"
        }
      ],
      "stateMutability": "view",
      "type": "function"
    },
    {
      "inputs": [
        {
          "internalType": "uint256",
          "name": "",
          "type": "uint256"
        }
      ],
      "name": "verifiers",
      "outputs": [
        {
          "internalType": "address",
          "name": "",
          "type": "address"
        }
      ],
      "stateMutability": "view",
      "type": "function"
    },
    {
      "inputs": [
        {
          "internalType": "uint256",
          "name": "cIndex",
          "type": "uint256"
        },
        {
          "internalType": "bytes",
          "name": "hash",
          "type": "bytes"
        },
        {
          "internalType": "bytes",
          "name": "keyhash",
          "type": "bytes"
        }
      ],
      "name": "verify1",
      "outputs": [],
      "stateMutability": "nonpayable",
      "type": "function"
    },
    {
      "inputs": [
        {
          "internalType": "uint256",
          "name": "cIndex",
          "type": "uint256"
        },
        {
          "internalType": "bytes",
          "name": "key",
          "type": "bytes"
        }
      ],
      "name": "verify2",
      "outputs": [],
      "stateMutability": "nonpayable",
      "type": "function"
    },
    {
      "inputs": [],
      "name": "verifyWindow",
      "outputs": [
        {
          "internalType": "uint256",
          "name": "",
          "type": "uint256"
        }
      ],
      "stateMutability": "view",
      "type": "function"
    },
    {
      "inputs": [
        {
          "internalType": "address",
          "name": "",
          "type": "address"
        }
      ],
      "name": "whitelist",
      "outputs": [
        {
          "internalType": "bool",
          "name": "",
          "type": "bool"
        }
      ],
      "stateMutability": "view",
      "type": "function"
    },
    {
      "inputs": [
        {
          "internalType": "uint256",
          "name": "amount",
          "type": "uint256"
        }
      ],
      "name": "withdraw",
      "outputs": [],
      "stateMutability": "nonpayable",
      "type": "function"
    }
  ],
  "transactionHash": "0xd1b1869d088bbb0894850f35bfa7cd538f521919cc516eeb1e8c915c16b5717c",
  "args": [
    "0x3870c347e84dE40F8bD8b5FB8CbCC423Ed38CE12",
    "0xe552Fb52a4F19e44ef5A967632DBc320B0820639"
  ],
  "solcInputHash": "a45fd09b0c3f6ec19daab95bc864a518",
  "bytecode": "0x608060405262015180600d553480156200001857600080fd5b50604051620032da380380620032da8339810160408190526200003b91620000b5565b600080546001600160a01b039384166001600160a01b031991821617909155680ad78ebc5ac6200000601155601080549290931691161790556012805460ff199081166001908117909255600a80549091169091179055620000ed565b80516001600160a01b0381168114620000b057600080fd5b919050565b60008060408385031215620000c957600080fd5b620000d48362000098565b9150620000e46020840162000098565b90509250929050565b6131dd80620000fd6000396000f3fe608060405234801561001057600080fd5b50600436106101c45760003560e01c80638c80fd90116100f9578063b646c02511610097578063eab0fca311610071578063eab0fca314610472578063ef53b041146104af578063fca0fd6c146104c2578063ffa444ec146104cb57600080fd5b8063b646c02514610441578063dcd836161461044a578063e59745541461045257600080fd5b8063939f59fe116100d3578063939f59fe146103e55780639b19251a146103f8578063ac1eff681461041b578063b4b6de381461042e57600080fd5b80638c80fd90146103985780638d14e127146103ab5780638f1d3776146103be57600080fd5b80634d4127af116101665780635bf0f25d116101405780635bf0f25d146103135780635cc38c02146103265780636593363f14610349578063669fdeb51461035c57600080fd5b80634d4127af146102d45780634e71d92d146102dd5780635505705a146102e557600080fd5b8063299ca478116101a2578063299ca4781461025e5780632e1a7d4d146102a3578063375b3c0a146102b8578063461a4478146102c157600080fd5b8063015cfec7146101c95780630700037d146101f25780630c70066714610220575b600080fd5b6101dc6101d73660046127ee565b6104eb565b6040516101e991906128c5565b60405180910390f35b610212610200366004612901565b600f6020526000908152604090205481565b6040519081526020016101e9565b61024e61022e36600461291e565b600660209081526000928352604080842090915290825290205460ff1681565b60405190151581526020016101e9565b60005461027e9073ffffffffffffffffffffffffffffffffffffffff1681565b60405173ffffffffffffffffffffffffffffffffffffffff90911681526020016101e9565b6102b66102b136600461294e565b61060a565b005b61021260115481565b61027e6102cf366004612a53565b610816565b61021260135481565b6102b66108c3565b61024e6102f336600461291e565b600560209081526000928352604080842090915290825290205460ff1681565b6102b661032136600461294e565b610a30565b61024e61033436600461294e565b60086020526000908152604090205460ff1681565b6102b6610357366004612aa4565b610daa565b6101dc6040518060400160405280600d81526020017f4d455449535f4d414e414745520000000000000000000000000000000000000081525081565b6102b66103a636600461294e565b61136c565b6102b66103b9366004612afe565b6114d3565b6103d16103cc36600461294e565b6115f3565b6040516101e9989796959493929190612b69565b6102b66103f3366004612bcd565b61172f565b61024e610406366004612901565b60096020526000908152604090205460ff1681565b61027e61042936600461294e565b611948565b6102b661043c366004612c47565b61197f565b610212600e5481565b6102b6611d64565b60105461027e9073ffffffffffffffffffffffffffffffffffffffff1681565b61024e610480366004612901565b60115473ffffffffffffffffffffffffffffffffffffffff909116600090815260016020526040902054101590565b6102b66104bd36600461294e565b611e4e565b610212600d5481565b6102126104d9366004612901565b60016020526000908152604090205481565b6060600085858080601f016020809104026020016040519081016040528093929190818152602001838380828437600092018290525093945083925050505b82518110156105fe578185141561054057600091505b61059d83828151811061055557610555612ced565b01602001517fff000000000000000000000000000000000000000000000000000000000000001687878581811061058e5761058e612ced565b919091013560f81c9050611f31565b8382815181106105af576105af612ced565b60200101907effffffffffffffffffffffffffffffffffffffffffffffffffffffffffffff1916908160001a905350816105e881612d4b565b92505080806105f690612d4b565b91505061052a565b50909695505050505050565b60125460ff166106615760405162461bcd60e51b815260206004820181905260248201527f77697468647261772069732063757272656e746c792070726f6869626974656460448201526064015b60405180910390fd5b33600090815260016020526040902054818110156106c15760405162461bcd60e51b815260206004820152601e60248201527f696e73756666696369656e74207374616b6520746f20776974686472617700006044820152606401610658565b6011546106ce8383612d84565b1080156106dd57506011548110155b156106f857601380549060006106f283612d9b565b91905055505b3360009081526001602052604081208054849290610717908490612d84565b90915550506010546040517fa9059cbb0000000000000000000000000000000000000000000000000000000081523360048201526024810184905273ffffffffffffffffffffffffffffffffffffffff9091169063a9059cbb90604401602060405180830381600087803b15801561078e57600080fd5b505af11580156107a2573d6000803e3d6000fd5b505050506040513d601f19601f820116820180604052508101906107c69190612dd0565b6108125760405162461bcd60e51b815260206004820152601560248201527f746f6b656e207472616e73666572206661696c656400000000000000000000006044820152606401610658565b5050565b600080546040517fbf40fac100000000000000000000000000000000000000000000000000000000815273ffffffffffffffffffffffffffffffffffffffff9091169063bf40fac19061086d9085906004016128c5565b60206040518083038186803b15801561088557600080fd5b505afa158015610899573d6000803e3d6000fd5b505050506040513d601f19601f820116820180604052508101906108bd9190612ded565b92915050565b336000908152600f602052604090205461091f5760405162461bcd60e51b815260206004820152601260248201527f6e6f2072657761726420746f20636c61696d00000000000000000000000000006044820152606401610658565b336000818152600f6020526040808220805492905560105490517fa9059cbb000000000000000000000000000000000000000000000000000000008152600481019390935260248301829052909173ffffffffffffffffffffffffffffffffffffffff9091169063a9059cbb90604401602060405180830381600087803b1580156109a957600080fd5b505af11580156109bd573d6000803e3d6000fd5b505050506040513d601f19601f820116820180604052508101906109e19190612dd0565b610a2d5760405162461bcd60e51b815260206004820152601560248201527f746f6b656e207472616e73666572206661696c656400000000000000000000006044820152606401610658565b50565b600a5460ff161580610a5657503360009081526009602052604090205460ff1615156001145b610ac85760405162461bcd60e51b815260206004820152602360248201527f6f6e6c792077686974656c6973746564207665726966696572732063616e206360448201527f616c6c00000000000000000000000000000000000000000000000000000000006064820152608401610658565b60125460ff16610b1a5760405162461bcd60e51b815260206004820152601d60248201527f7374616b652069732063757272656e746c792070726f686962697465640000006044820152606401610658565b60008111610b6a5760405162461bcd60e51b815260206004820152601660248201527f7a65726f207374616b65206e6f7420616c6c6f776564000000000000000000006044820152606401610658565b6010546040517f23b872dd0000000000000000000000000000000000000000000000000000000081523360048201523060248201526044810183905273ffffffffffffffffffffffffffffffffffffffff909116906323b872dd90606401602060405180830381600087803b158015610be257600080fd5b505af1158015610bf6573d6000803e3d6000fd5b505050506040513d601f19601f82011682018060405250810190610c1a9190612dd0565b610c665760405162461bcd60e51b815260206004820152601560248201527f7472616e73666572206d65746973206661696c656400000000000000000000006044820152606401610658565b3360009081526001602052604090205480610cfe573360008181526001602081905260408220859055600b8054918201815582527f0175b7a638427703f0dbe7bb9bbf987a2551717b34e79f33b5b1008d1fa01db90180547fffffffffffffffffffffffff0000000000000000000000000000000000000000169092179091556013805491610cf483612d4b565b9190505550610d23565b3360009081526001602052604081208054849290610d1d908490612e0a565b90915550505b6011543360009081526001602052604090205410156108125760405162461bcd60e51b815260206004820152602b60248201527f696e73756666696369656e74207374616b6520746f207175616c69667920617360448201527f20612076657269666965720000000000000000000000000000000000000000006064820152608401610658565b601154336000908152600160205260409020541015610e0b5760405162461bcd60e51b815260206004820152601260248201527f696e73756666696369656e74207374616b6500000000000000000000000000006044820152606401610658565b600a5460ff161580610e3157503360009081526009602052604090205460ff1615156001145b610ea35760405162461bcd60e51b815260206004820152602360248201527f6f6e6c792077686974656c6973746564207665726966696572732063616e206360448201527f616c6c00000000000000000000000000000000000000000000000000000000006064820152608401610658565b600b54600c805485908110610eba57610eba612ced565b90600052602060002090600c0201600a01541480610f085750600d54600c8481548110610ee957610ee9612ced565b90600052602060002090600c02016008015442610f069190612d84565b115b610f545760405162461bcd60e51b815260206004820152601160248201527f70686173652032206e6f742072656164790000000000000000000000000000006044820152606401610658565b600083815260046020908152604080832033845290915281208054610f7890612e22565b905011610fed5760405162461bcd60e51b815260206004820152602160248201527f796f75206469646e277420706172746963697061746520696e2070686173652060448201527f31000000000000000000000000000000000000000000000000000000000000006064820152608401610658565b60008381526002602090815260408083203384529091528120805461101190612e22565b905011156110275761102283611f6d565b505050565b6000838152600360209081526040808320338452909152902061104990612e76565b6002838360405161105b929190612f1f565b602060405180830381855afa158015611078573d6000803e3d6000fd5b5050506040513d601f19601f8201168201806040525081019061109b9190612f2f565b146110e85760405162461bcd60e51b815260206004820152601b60248201527f6b657920616e64206b65796861736820646f6e2774206d6174636800000000006044820152606401610658565b600c83815481106110fb576110fb612ced565b60009182526020909120600c909102015473ffffffffffffffffffffffffffffffffffffffff163314156111f9576111c8600c848154811061113f5761113f612ced565b90600052602060002090600c02016003016001015460405160200161116691815260200190565b604080517fffffffffffffffffffffffffffffffffffffffffffffffffffffffffffffffe08184030181526020601f8601819004810284018101909252848352919085908590819084018382808284376000920191909152506124c792505050565b6111d190612f48565b600c84815481106111e4576111e4612ced565b600091825260209091206004600c9092020101555b6000838152600260209081526040808320338452909152902061121d90838361260a565b50600083815260046020908152604080832033845290915290208054611301919061124790612e22565b80601f016020809104026020016040519081016040528092919081815260200182805461127390612e22565b80156112c05780601f10611295576101008083540402835291602001916112c0565b820191906000526020600020905b8154815290600101906020018083116112a357829003601f168201915b505050505083838080601f0160208091040260200160405190810160405280939291908181526020018383808284376000920191909152506124c792505050565b60008481526004602090815260408083203384528252909120825161132c939192919091019061268e565b50600c838154811061134057611340612ced565b600091825260208220600b600c909202010180549161135e83612d4b565b919050555061102283611f6d565b6113aa6040518060400160405280600d81526020017f4d455449535f4d414e4147455200000000000000000000000000000000000000815250610816565b73ffffffffffffffffffffffffffffffffffffffff163373ffffffffffffffffffffffffffffffffffffffff161461144a5760405162461bcd60e51b815260206004820152603f60248201527f4d564d5f56657269666965723a2046756e6374696f6e2063616e206f6e6c792060448201527f62652063616c6c656420627920746865204d455449535f4d414e414745522e006064820152608401610658565b60118190556000805b600b548110156114cc5760115460016000600b848154811061147757611477612ced565b600091825260208083209091015473ffffffffffffffffffffffffffffffffffffffff168352820192909252604001902054106114bc57816114b881612d4b565b9250505b6114c581612d4b565b9050611453565b5060135550565b6115116040518060400160405280600d81526020017f4d455449535f4d414e4147455200000000000000000000000000000000000000815250610816565b73ffffffffffffffffffffffffffffffffffffffff163373ffffffffffffffffffffffffffffffffffffffff16146115b15760405162461bcd60e51b815260206004820152603f60248201527f4d564d5f56657269666965723a2046756e6374696f6e2063616e206f6e6c792060448201527f62652063616c6c656420627920746865204d455449535f4d414e414745522e006064820152608401610658565b73ffffffffffffffffffffffffffffffffffffffff9091166000908152600960205260409020805491151560ff19928316179055600a80549091166001179055565b600c818154811061160357600080fd5b90600052602060002090600c02016000915090508060000160009054906101000a900473ffffffffffffffffffffffffffffffffffffffff1690806001015490806002015490806003016040518060a00160405290816000820154815260200160018201548152602001600282015481526020016003820154815260200160048201805461169090612e22565b80601f01602080910402602001604051908101604052809291908181526020018280546116bc90612e22565b80156117095780601f106116de57610100808354040283529160200191611709565b820191906000526020600020905b8154815290600101906020018083116116ec57829003601f168201915b5050505050815250509080600801549080600901549080600a01549080600b0154905088565b600a5460ff16158061175557503360009081526009602052604090205460ff1615156001145b6117c75760405162461bcd60e51b815260206004820152602360248201527f6f6e6c792077686974656c6973746564207665726966696572732063616e206360448201527f616c6c00000000000000000000000000000000000000000000000000000000006064820152608401610658565b6011543360009081526001602052604090205410156118285760405162461bcd60e51b815260206004820152601260248201527f696e73756666696369656e74207374616b6500000000000000000000000000006044820152606401610658565b60008581526004602090815260408083203384529091529020805461184c90612e22565b1590506118c15760405162461bcd60e51b815260206004820152602860248201527f7665726966793120616c726561647920636f6d706c6574656420666f7220746860448201527f652073656e6465720000000000000000000000000000000000000000000000006064820152608401610658565b600085815260046020908152604080832033845290915290206118e590858561260a565b506000858152600360209081526040808320338452909152902061190a90838361260a565b50600c858154811061191e5761191e612ced565b600091825260208220600a600c909202010180549161193c83612d4b565b91905055505050505050565b600b818154811061195857600080fd5b60009182526020909120015473ffffffffffffffffffffffffffffffffffffffff16905081565b600a5460ff1615806119a557503360009081526009602052604090205460ff1615156001145b611a175760405162461bcd60e51b815260206004820152602360248201527f6f6e6c792077686974656c6973746564207665726966696572732063616e206360448201527f616c6c00000000000000000000000000000000000000000000000000000000006064820152608401610658565b601154336000908152600160205260409020541015611a785760405162461bcd60e51b815260206004820152601260248201527f696e73756666696369656e74207374616b6500000000000000000000000000006044820152606401610658565b611a80612702565b60208101879052338152426080820152611a9986612f8a565b6060808301918252600c80546001810182556000829052845191027fdf6966c971051c3d54ec59162606531493a51404a002842f56009d7e5cf4a8c78101805473ffffffffffffffffffffffffffffffffffffffff9093167fffffffffffffffffffffffff00000000000000000000000000000000000000009093169290921782556020808601517fdf6966c971051c3d54ec59162606531493a51404a002842f56009d7e5cf4a8c88301556040808701517fdf6966c971051c3d54ec59162606531493a51404a002842f56009d7e5cf4a8c9840155945180517fdf6966c971051c3d54ec59162606531493a51404a002842f56009d7e5cf4a8ca8401908155818301517fdf6966c971051c3d54ec59162606531493a51404a002842f56009d7e5cf4a8cb850155958101517fdf6966c971051c3d54ec59162606531493a51404a002842f56009d7e5cf4a8cc840155938401517fdf6966c971051c3d54ec59162606531493a51404a002842f56009d7e5cf4a8cd83015560808401518051879694959493611c4e937fdf6966c971051c3d54ec59162606531493a51404a002842f56009d7e5cf4a8ce90910192019061268e565b5050506080820151600882015560a0820151600982015560c0820151600a82015560e090910151600b90910155600c5460008181526004602090815260408083203384529091529020611ca290878761260a565b5060008181526003602090815260408083203384529091529020611cc790858561260a565b50600c8181548110611cdb57611cdb612ced565b600091825260208220600a600c9092020101805491611cf983612d4b565b90915550506012805460ff19169055600e8054906000611d1883612d4b565b91905055507f441214906ecb1ed44d085cb85ab8071c4734e7b4975b38397b9a5df89dec726881898942604051611d529493929190613055565b60405180910390a15050505050505050565b611da26040518060400160405280600d81526020017f4d455449535f4d414e4147455200000000000000000000000000000000000000815250610816565b73ffffffffffffffffffffffffffffffffffffffff163373ffffffffffffffffffffffffffffffffffffffff1614611e425760405162461bcd60e51b815260206004820152603f60248201527f4d564d5f56657269666965723a2046756e6374696f6e2063616e206f6e6c792060448201527f62652063616c6c656420627920746865204d455449535f4d414e414745522e006064820152608401610658565b600a805460ff19169055565b611e8c6040518060400160405280600d81526020017f4d455449535f4d414e4147455200000000000000000000000000000000000000815250610816565b73ffffffffffffffffffffffffffffffffffffffff163373ffffffffffffffffffffffffffffffffffffffff1614611f2c5760405162461bcd60e51b815260206004820152603f60248201527f4d564d5f56657269666965723a2046756e6374696f6e2063616e206f6e6c792060448201527f62652063616c6c656420627920746865204d455449535f4d414e414745522e006064820152608401610658565b600d55565b600060f883901c611f4560ff841682613116565b905060ff8161ffff161115611f6357611f606101008261313c565b90505b60f81b9392505050565b6000600c8281548110611f8257611f82612ced565b90600052602060002090600c0201604051806101000160405290816000820160009054906101000a900473ffffffffffffffffffffffffffffffffffffffff1673ffffffffffffffffffffffffffffffffffffffff1673ffffffffffffffffffffffffffffffffffffffff1681526020016001820154815260200160028201548152602001600382016040518060a00160405290816000820154815260200160018201548152602001600282015481526020016003820154815260200160048201805461204e90612e22565b80601f016020809104026020016040519081016040528092919081815260200182805461207a90612e22565b80156120c75780601f1061209c576101008083540402835291602001916120c7565b820191906000526020600020905b8154815290600101906020018083116120aa57829003601f168201915b5050509190925250505081526008820154602082015260098201546040820152600a8201546060820152600b90910154608090910152600c5460e0820151919250148015906121255750600d5460808201516121239042612d84565b105b1561212e575050565b600061216e6040518060400160405280601481526020017f5374617465436f6d6d69746d656e74436861696e000000000000000000000000815250610816565b6000848152600460209081526040808320865173ffffffffffffffffffffffffffffffffffffffff1684529091528120919250906121ab90612e76565b90506000805b600b548110156122ac576000868152600460205260408120600b805486939190859081106121e1576121e1612ced565b600091825260208083209091015473ffffffffffffffffffffffffffffffffffffffff168352820192909252604001902061221b90612e76565b141561229a578161222b81612d4b565b9250506001600560008881526020019081526020016000206000600b848154811061225857612258612ced565b60009182526020808320919091015473ffffffffffffffffffffffffffffffffffffffff1683528201929092526040019020805460ff19169115159190911790555b806122a481612d4b565b9150506121b1565b508273ffffffffffffffffffffffffffffffffffffffff1663cfdf677e6040518163ffffffff1660e01b815260040160206040518083038186803b1580156122f357600080fd5b505afa158015612307573d6000803e3d6000fd5b505050506040513d601f19601f8201168201806040525081019061232b9190612ded565b60208501516060860151516040517f67d18b9b0000000000000000000000000000000000000000000000000000000081526004810192909252602482015273ffffffffffffffffffffffffffffffffffffffff91909116906367d18b9b9060440160206040518083038186803b1580156123a457600080fd5b505afa1580156123b8573d6000803e3d6000fd5b505050506040513d601f19601f820116820180604052508101906123dc9190612f2f565b6123e9856060015161258f565b505083606001516020015182146124965760135481101561240957612496565b602084015160608501516040517f2ab65ec700000000000000000000000000000000000000000000000000000000815273ffffffffffffffffffffffffffffffffffffffff861692632ab65ec7926124639260040161315f565b600060405180830381600087803b15801561247d57600080fd5b505af1158015612491573d6000803e3d6000fd5b505050505b600e80549060006124a683612d9b565b9091555050600e546124c0576012805460ff191660011790555b5050505050565b6060826000805b82518110156125855784518214156124e557600091505b6125248382815181106124fa576124fa612ced565b602001015160f81c60f81b86848151811061251757612517612ced565b016020015160f81c6125d5565b83828151811061253657612536612ced565b60200101907effffffffffffffffffffffffffffffffffffffffffffffffffffffffffffff1916908160001a9053508161256f81612d4b565b925050808061257d90612d4b565b9150506124ce565b5090949350505050565b600081602001518260400151836060015184608001516040516020016125b89493929190613178565b604051602081830303815290604052805190602001209050919050565b600060f883901c60ff83168111156125fb576125f460ff84168261313c565b9050611f63565b611f6060ff841661010061313c565b82805461261690612e22565b90600052602060002090601f016020900481019282612638576000855561267e565b82601f106126515782800160ff1982351617855561267e565b8280016001018555821561267e579182015b8281111561267e578235825591602001919060010190612663565b5061268a929150612790565b5090565b82805461269a90612e22565b90600052602060002090601f0160209004810192826126bc576000855561267e565b82601f106126d557805160ff191683800117855561267e565b8280016001018555821561267e579182015b8281111561267e5782518255916020019190600101906126e7565b604051806101000160405280600073ffffffffffffffffffffffffffffffffffffffff168152602001600081526020016000815260200161276e6040518060a0016040528060008152602001600080191681526020016000815260200160008152602001606081525090565b8152602001600081526020016000815260200160008152602001600081525090565b5b8082111561268a5760008155600101612791565b60008083601f8401126127b757600080fd5b50813567ffffffffffffffff8111156127cf57600080fd5b6020830191508360208285010111156127e757600080fd5b9250929050565b6000806000806040858703121561280457600080fd5b843567ffffffffffffffff8082111561281c57600080fd5b612828888389016127a5565b9096509450602087013591508082111561284157600080fd5b5061284e878288016127a5565b95989497509550505050565b6000815180845260005b8181101561288057602081850181015186830182015201612864565b81811115612892576000602083870101525b50601f017fffffffffffffffffffffffffffffffffffffffffffffffffffffffffffffffe0169290920160200192915050565b6020815260006128d8602083018461285a565b9392505050565b73ffffffffffffffffffffffffffffffffffffffff81168114610a2d57600080fd5b60006020828403121561291357600080fd5b81356128d8816128df565b6000806040838503121561293157600080fd5b823591506020830135612943816128df565b809150509250929050565b60006020828403121561296057600080fd5b5035919050565b7f4e487b7100000000000000000000000000000000000000000000000000000000600052604160045260246000fd5b60405160a0810167ffffffffffffffff811182821017156129b9576129b9612967565b60405290565b600067ffffffffffffffff808411156129da576129da612967565b604051601f85017fffffffffffffffffffffffffffffffffffffffffffffffffffffffffffffffe0908116603f01168101908282118183101715612a2057612a20612967565b81604052809350858152868686011115612a3957600080fd5b858560208301376000602087830101525050509392505050565b600060208284031215612a6557600080fd5b813567ffffffffffffffff811115612a7c57600080fd5b8201601f81018413612a8d57600080fd5b612a9c848235602084016129bf565b949350505050565b600080600060408486031215612ab957600080fd5b83359250602084013567ffffffffffffffff811115612ad757600080fd5b612ae3868287016127a5565b9497909650939450505050565b8015158114610a2d57600080fd5b60008060408385031215612b1157600080fd5b8235612b1c816128df565b9150602083013561294381612af0565b805182526020810151602083015260408101516040830152606081015160608301526000608082015160a06080850152612a9c60a085018261285a565b600061010073ffffffffffffffffffffffffffffffffffffffff8b168352896020840152886040840152806060840152612ba581840189612b2c565b9150508560808301528460a08301528360c08301528260e08301529998505050505050505050565b600080600080600060608688031215612be557600080fd5b85359450602086013567ffffffffffffffff80821115612c0457600080fd5b612c1089838a016127a5565b90965094506040880135915080821115612c2957600080fd5b50612c36888289016127a5565b969995985093965092949392505050565b60008060008060008060808789031215612c6057600080fd5b86359550602087013567ffffffffffffffff80821115612c7f57600080fd5b9088019060a0828b031215612c9357600080fd5b90955060408801359080821115612ca957600080fd5b612cb58a838b016127a5565b90965094506060890135915080821115612cce57600080fd5b50612cdb89828a016127a5565b979a9699509497509295939492505050565b7f4e487b7100000000000000000000000000000000000000000000000000000000600052603260045260246000fd5b7f4e487b7100000000000000000000000000000000000000000000000000000000600052601160045260246000fd5b60007fffffffffffffffffffffffffffffffffffffffffffffffffffffffffffffffff821415612d7d57612d7d612d1c565b5060010190565b600082821015612d9657612d96612d1c565b500390565b600081612daa57612daa612d1c565b507fffffffffffffffffffffffffffffffffffffffffffffffffffffffffffffffff0190565b600060208284031215612de257600080fd5b81516128d881612af0565b600060208284031215612dff57600080fd5b81516128d8816128df565b60008219821115612e1d57612e1d612d1c565b500190565b600181811c90821680612e3657607f821691505b60208210811415612e70577f4e487b7100000000000000000000000000000000000000000000000000000000600052602260045260246000fd5b50919050565b8054600090600180821691901c81612e8c57607f165b6020811080831415612ec7577f4e487b7100000000000000000000000000000000000000000000000000000000600052602260045260246000fd5b849250601f821115612edf5784600052602060002092505b825493508015612f17577fffffffffffffffffffffffffffffffffffffffffffffffffffffffffffffffff8260200360031b1b841693505b505050919050565b8183823760009101908152919050565b600060208284031215612f4157600080fd5b5051919050565b80516020808301519190811015612e70577fffffffffffffffffffffffffffffffffffffffffffffffffffffffffffffffff60209190910360031b1b16919050565b600060a08236031215612f9c57600080fd5b612fa4612996565b82358152602083013560208201526040830135604082015260608301356060820152608083013567ffffffffffffffff811115612fe057600080fd5b830136601f820112612ff157600080fd5b613000368235602084016129bf565b60808301525092915050565b8183528181602085013750600060208284010152600060207fffffffffffffffffffffffffffffffffffffffffffffffffffffffffffffffe0601f840116840101905092915050565b8481528360208201526080604082015282356080820152602083013560a0820152604083013560c0820152606083013560e0820152600060808401357fffffffffffffffffffffffffffffffffffffffffffffffffffffffffffffffe18536030181126130c157600080fd5b8401803567ffffffffffffffff8111156130da57600080fd5b8036038613156130e957600080fd5b60a06101008501526131036101208501826020850161300c565b9250505082606083015295945050505050565b600061ffff80831681851680830382111561313357613133612d1c565b01949350505050565b600061ffff8381169083168181101561315757613157612d1c565b039392505050565b828152604060208201526000612a9c6040830184612b2c565b84815283602082015282604082015260806060820152600061319d608083018461285a565b969550505050505056fea2646970667358221220e5311cb8af0aa2479049ba6ff0cf880cb0504f4e97519b7163da582c51deccec64736f6c63430008090033",
  "devdoc": {
    "kind": "dev",
    "methods": {
      "resolve(string)": {
        "params": {
          "_name": "Name to resolve an address for."
        },
        "returns": {
          "_0": "Address associated with the given name."
        }
      }
    },
    "version": 1
  },
  "userdoc": {
    "kind": "user",
    "methods": {
      "resolve(string)": {
        "notice": "Resolves the address associated with a given name."
      }
    },
    "version": 1
  },
  "storageLayout": {
    "storage": [
      {
        "astId": 13209,
        "contract": "contracts/MVM/MVM_Verifier.sol:MVM_Verifier",
        "label": "libAddressManager",
        "offset": 0,
        "slot": "0",
        "type": "t_contract(Lib_AddressManager)13201"
      },
      {
        "astId": 11450,
        "contract": "contracts/MVM/MVM_Verifier.sol:MVM_Verifier",
        "label": "verifier_stakes",
        "offset": 0,
        "slot": "1",
        "type": "t_mapping(t_address,t_uint256)"
      },
      {
        "astId": 11456,
        "contract": "contracts/MVM/MVM_Verifier.sol:MVM_Verifier",
        "label": "challenge_keys",
        "offset": 0,
        "slot": "2",
        "type": "t_mapping(t_uint256,t_mapping(t_address,t_bytes_storage))"
      },
      {
        "astId": 11462,
        "contract": "contracts/MVM/MVM_Verifier.sol:MVM_Verifier",
        "label": "challenge_key_hashes",
        "offset": 0,
        "slot": "3",
        "type": "t_mapping(t_uint256,t_mapping(t_address,t_bytes_storage))"
      },
      {
        "astId": 11468,
        "contract": "contracts/MVM/MVM_Verifier.sol:MVM_Verifier",
        "label": "challenge_hashes",
        "offset": 0,
        "slot": "4",
        "type": "t_mapping(t_uint256,t_mapping(t_address,t_bytes_storage))"
      },
      {
        "astId": 11474,
        "contract": "contracts/MVM/MVM_Verifier.sol:MVM_Verifier",
        "label": "consensus",
        "offset": 0,
        "slot": "5",
        "type": "t_mapping(t_uint256,t_mapping(t_address,t_bool))"
      },
      {
        "astId": 11480,
        "contract": "contracts/MVM/MVM_Verifier.sol:MVM_Verifier",
        "label": "penalties",
        "offset": 0,
        "slot": "6",
        "type": "t_mapping(t_uint256,t_mapping(t_address,t_bool))"
      },
      {
        "astId": 11485,
        "contract": "contracts/MVM/MVM_Verifier.sol:MVM_Verifier",
        "label": "challenge_verifiers",
        "offset": 0,
        "slot": "7",
        "type": "t_mapping(t_uint256,t_array(t_address)dyn_storage)"
      },
      {
        "astId": 11489,
        "contract": "contracts/MVM/MVM_Verifier.sol:MVM_Verifier",
        "label": "chain_under_challenge",
        "offset": 0,
        "slot": "8",
        "type": "t_mapping(t_uint256,t_bool)"
      },
      {
        "astId": 11493,
        "contract": "contracts/MVM/MVM_Verifier.sol:MVM_Verifier",
        "label": "whitelist",
        "offset": 0,
        "slot": "9",
        "type": "t_mapping(t_address,t_bool)"
      },
      {
        "astId": 11495,
        "contract": "contracts/MVM/MVM_Verifier.sol:MVM_Verifier",
        "label": "useWhiteList",
        "offset": 0,
        "slot": "10",
        "type": "t_bool"
      },
      {
        "astId": 11498,
        "contract": "contracts/MVM/MVM_Verifier.sol:MVM_Verifier",
        "label": "verifiers",
        "offset": 0,
        "slot": "11",
        "type": "t_array(t_address)dyn_storage"
      },
      {
        "astId": 11502,
        "contract": "contracts/MVM/MVM_Verifier.sol:MVM_Verifier",
        "label": "challenges",
        "offset": 0,
        "slot": "12",
        "type": "t_array(t_struct(Challenge)11446_storage)dyn_storage"
      },
      {
        "astId": 11507,
        "contract": "contracts/MVM/MVM_Verifier.sol:MVM_Verifier",
        "label": "verifyWindow",
        "offset": 0,
        "slot": "13",
        "type": "t_uint256"
      },
      {
        "astId": 11509,
        "contract": "contracts/MVM/MVM_Verifier.sol:MVM_Verifier",
        "label": "activeChallenges",
        "offset": 0,
        "slot": "14",
        "type": "t_uint256"
      },
      {
        "astId": 11513,
        "contract": "contracts/MVM/MVM_Verifier.sol:MVM_Verifier",
        "label": "rewards",
        "offset": 0,
        "slot": "15",
        "type": "t_mapping(t_address,t_uint256)"
      },
      {
        "astId": 11515,
        "contract": "contracts/MVM/MVM_Verifier.sol:MVM_Verifier",
        "label": "metis",
        "offset": 0,
        "slot": "16",
        "type": "t_address"
      },
      {
        "astId": 11517,
        "contract": "contracts/MVM/MVM_Verifier.sol:MVM_Verifier",
        "label": "minStake",
        "offset": 0,
        "slot": "17",
        "type": "t_uint256"
      },
      {
        "astId": 11519,
        "contract": "contracts/MVM/MVM_Verifier.sol:MVM_Verifier",
        "label": "allowWithdraw",
        "offset": 0,
        "slot": "18",
        "type": "t_bool"
      },
      {
        "astId": 11521,
        "contract": "contracts/MVM/MVM_Verifier.sol:MVM_Verifier",
        "label": "numQualifiedVerifiers",
        "offset": 0,
        "slot": "19",
        "type": "t_uint256"
      }
    ],
    "types": {
      "t_address": {
        "encoding": "inplace",
        "label": "address",
        "numberOfBytes": "20"
      },
      "t_array(t_address)dyn_storage": {
        "base": "t_address",
        "encoding": "dynamic_array",
        "label": "address[]",
        "numberOfBytes": "32"
      },
      "t_array(t_struct(Challenge)11446_storage)dyn_storage": {
        "base": "t_struct(Challenge)11446_storage",
        "encoding": "dynamic_array",
        "label": "struct MVM_Verifier.Challenge[]",
        "numberOfBytes": "32"
      },
      "t_bool": {
        "encoding": "inplace",
        "label": "bool",
        "numberOfBytes": "1"
      },
      "t_bytes32": {
        "encoding": "inplace",
        "label": "bytes32",
        "numberOfBytes": "32"
      },
      "t_bytes_storage": {
        "encoding": "bytes",
        "label": "bytes",
        "numberOfBytes": "32"
      },
      "t_contract(Lib_AddressManager)13201": {
        "encoding": "inplace",
        "label": "contract Lib_AddressManager",
        "numberOfBytes": "20"
      },
      "t_mapping(t_address,t_bool)": {
        "encoding": "mapping",
        "key": "t_address",
        "label": "mapping(address => bool)",
        "numberOfBytes": "32",
        "value": "t_bool"
      },
      "t_mapping(t_address,t_bytes_storage)": {
        "encoding": "mapping",
        "key": "t_address",
        "label": "mapping(address => bytes)",
        "numberOfBytes": "32",
        "value": "t_bytes_storage"
      },
      "t_mapping(t_address,t_uint256)": {
        "encoding": "mapping",
        "key": "t_address",
        "label": "mapping(address => uint256)",
        "numberOfBytes": "32",
        "value": "t_uint256"
      },
      "t_mapping(t_uint256,t_array(t_address)dyn_storage)": {
        "encoding": "mapping",
        "key": "t_uint256",
        "label": "mapping(uint256 => address[])",
        "numberOfBytes": "32",
        "value": "t_array(t_address)dyn_storage"
      },
      "t_mapping(t_uint256,t_bool)": {
        "encoding": "mapping",
        "key": "t_uint256",
        "label": "mapping(uint256 => bool)",
        "numberOfBytes": "32",
        "value": "t_bool"
      },
      "t_mapping(t_uint256,t_mapping(t_address,t_bool))": {
        "encoding": "mapping",
        "key": "t_uint256",
        "label": "mapping(uint256 => mapping(address => bool))",
        "numberOfBytes": "32",
        "value": "t_mapping(t_address,t_bool)"
      },
      "t_mapping(t_uint256,t_mapping(t_address,t_bytes_storage))": {
        "encoding": "mapping",
        "key": "t_uint256",
        "label": "mapping(uint256 => mapping(address => bytes))",
        "numberOfBytes": "32",
        "value": "t_mapping(t_address,t_bytes_storage)"
      },
      "t_struct(ChainBatchHeader)12902_storage": {
        "encoding": "inplace",
        "label": "struct Lib_OVMCodec.ChainBatchHeader",
        "members": [
          {
            "astId": 12893,
            "contract": "contracts/MVM/MVM_Verifier.sol:MVM_Verifier",
            "label": "batchIndex",
            "offset": 0,
            "slot": "0",
            "type": "t_uint256"
          },
          {
            "astId": 12895,
            "contract": "contracts/MVM/MVM_Verifier.sol:MVM_Verifier",
            "label": "batchRoot",
            "offset": 0,
            "slot": "1",
            "type": "t_bytes32"
          },
          {
            "astId": 12897,
            "contract": "contracts/MVM/MVM_Verifier.sol:MVM_Verifier",
            "label": "batchSize",
            "offset": 0,
            "slot": "2",
            "type": "t_uint256"
          },
          {
            "astId": 12899,
            "contract": "contracts/MVM/MVM_Verifier.sol:MVM_Verifier",
            "label": "prevTotalElements",
            "offset": 0,
            "slot": "3",
            "type": "t_uint256"
          },
          {
            "astId": 12901,
            "contract": "contracts/MVM/MVM_Verifier.sol:MVM_Verifier",
            "label": "extraData",
            "offset": 0,
            "slot": "4",
            "type": "t_bytes_storage"
          }
        ],
        "numberOfBytes": "160"
      },
      "t_struct(Challenge)11446_storage": {
        "encoding": "inplace",
        "label": "struct MVM_Verifier.Challenge",
        "members": [
          {
            "astId": 11430,
            "contract": "contracts/MVM/MVM_Verifier.sol:MVM_Verifier",
            "label": "challenger",
            "offset": 0,
            "slot": "0",
            "type": "t_address"
          },
          {
            "astId": 11432,
            "contract": "contracts/MVM/MVM_Verifier.sol:MVM_Verifier",
            "label": "chainID",
            "offset": 0,
            "slot": "1",
            "type": "t_uint256"
          },
          {
            "astId": 11434,
            "contract": "contracts/MVM/MVM_Verifier.sol:MVM_Verifier",
            "label": "index",
            "offset": 0,
            "slot": "2",
            "type": "t_uint256"
          },
          {
            "astId": 11437,
            "contract": "contracts/MVM/MVM_Verifier.sol:MVM_Verifier",
            "label": "header",
            "offset": 0,
            "slot": "3",
            "type": "t_struct(ChainBatchHeader)12902_storage"
          },
          {
            "astId": 11439,
            "contract": "contracts/MVM/MVM_Verifier.sol:MVM_Verifier",
            "label": "timestamp",
            "offset": 0,
            "slot": "8",
            "type": "t_uint256"
          },
          {
            "astId": 11441,
            "contract": "contracts/MVM/MVM_Verifier.sol:MVM_Verifier",
            "label": "numQualifiedVerifiers",
            "offset": 0,
            "slot": "9",
            "type": "t_uint256"
          },
          {
            "astId": 11443,
            "contract": "contracts/MVM/MVM_Verifier.sol:MVM_Verifier",
            "label": "numVerify1",
            "offset": 0,
            "slot": "10",
            "type": "t_uint256"
          },
          {
            "astId": 11445,
            "contract": "contracts/MVM/MVM_Verifier.sol:MVM_Verifier",
            "label": "numVerify2",
            "offset": 0,
            "slot": "11",
            "type": "t_uint256"
          }
        ],
        "numberOfBytes": "384"
      },
      "t_uint256": {
        "encoding": "inplace",
        "label": "uint256",
        "numberOfBytes": "32"
      }
    }
  }
}